:400000000080002011000000510500005105000080B500AF47F2BC63C4F2000344F2FA62C4F2000212681A6000F096FA10B5054C237833B9044810B10448AFF30080012176
:40004000217010BD3081FF1F00000000D81E000008B5064B1BB106480649AFF300800648016811B1054A02B1904708BD00000000D81E00003481FF1F0881FF1F000000003D
:4000800080B582B000AF02460B46FA71BB80FB79012B25D14FF0AA0001F0E6FC4FF0700001F0E2FCBB884FEA13239BB2DBB2184601F0DAFCBB88DBB2184601F0D5FC4FF03B
:4000C000CC0001F0D1FC4FF0330001F0CDFC4FF0C30001F0C9FC4FF03C0001F0C5FC24E04FF0AA0001F0EAFD4FF0700001F0E6FDBB884FEA13239BB2DBB2184601F0DEFD67
:40010000BB88DBB2184601F0D9FD4FF0CC0001F0D5FD4FF0330001F0D1FD4FF0C30001F0CDFD4FF03C0001F0C9FD07F10807BD4680BD00BF80B582B000AFF871B9717A7142
:400140003B71FB79012B56D14FF0AA0001F08CFC4FF0980001F088FC3B7C184601F084FC7B791A464FEA8202D3181A464FEA82011A460B46D318DAB23B79D318DBB218460E
:4001800001F072FC3B7E184601F06EFC3B7D184601F06AFC4FF0240001F066FC4FF0C50001F062FC4FF0020001F05EFC4FF0000001F05AFC4FF0000001F056FC4FF0FF0026
:4001C00001F052FC4FF0FF0001F04EFCBB79184601F04AFC4FF0CC0001F046FC4FF0330001F042FC4FF0C30001F03EFC4FF03C0001F03AFC55E04FF0AA0001F05FFD4FF026
:40020000980001F05BFD3B7C184601F057FD7B791A464FEA8202D3181A464FEA82011A460B46D318DAB23B79D318DBB2184601F045FD3B7E184601F041FD3B7D184601F039
:400240003DFD4FF0240001F039FD4FF0C50001F035FD4FF0020001F031FD4FF0000001F02DFD4FF0000001F029FD4FF0FF0001F025FD4FF0FF0001F021FDBB79184601F062
:400280001DFD4FF0CC0001F019FD4FF0330001F015FD4FF0C30001F011FD4FF03C0001F00DFD07F10807BD4680BD00BF80B584B000AF03463960FB80FB88DBB27B72FB882B
:4002C0004FEA1323FB80FB88DBB23B724FF0000001F034FA01F0E0F94FF054004FF0000101F0CEF80346BB73BB7B002B3CD14FF00003FB7314E0FB7B07F11002D31813F8A6
:40030000083C184601F070F90346BB73BB7B002B02D04FF0000336E0FB7B03F10103FB73FB7B012BE7D94FF00003FB7316E0FB7B3A68D3181B78184601F056F90346BB7330
:40034000BB7B002B02D04FF000031CE04FF0050000F0C6FCFB7B03F10103FB733B681B78FA7B9A42E3D902E04FF000030BE001F001F94FF0060000F0B3FC4FF0010001F0E8
:40038000DDF94FF00103184607F11007BD4680BD80B586B004AF62B600F08AFD01F0CCFA01F0F4FB01F054FB01F07CFC01F024FA4FF47A7000F094FC4FF001004FF0080146
:4003C000FFF75EFE4FF002004FF00801FFF758FE4FF000037B6019E04FF000033B600EE03B689AB27B689BB2D3189BB218464FF00001FFF75BFF3B6803F101033B603B68D7
:400400003E2BEDDD7B6803F140037B607A6841F288339A42E0DD4FF001004FF03B01FFF72FFE4FF002004FF03B01FFF729FE4FF000033B603DE048F20C13C1F6FF733A6856
:400440009B181B7803F14103DAB23B68DBB24FF0000100914FF0200101914FF0000102914FF0010011461A464FF08003FFF762FE48F20C13C1F6FF733A689B181B7803F13F
:400480004103DAB23B68DBB24FF0000100914FF0200101914FF0000102914FF0020011461A464FF08003FFF745FE3B6803F101033B603B68052BBEDD4FF006033B6043E009
:4004C00048F20C13C1F6FF733A689B181B7803F14103DAB23B68DBB2A3F10503DBB24FF0010100914FF0200101914FF0000102914FF0010011461A464FF00003FFF71AFE97
:4005000048F20C13C1F6FF733A689B181B7803F14103DAB23B68DBB2A3F10503DBB24FF0010100914FF0200101914FF0000102914FF0020011461A464FF00003FFF7FAFD76
:400540003B6803F101033B603B680E2BB8DDFEE780B400AFFEE700BF80B586B000AF40F20103C0F200037B6141F65873C0F200033B6140F20103C0F200037B6141F658736B
:40058000C0F200033B613BE03B691B68FB603B695B68BB603B699B683B604FF000037B600FE0FB681A68BB681A60BB6803F10403BB60FB6803F10403FB607B6803F104032B
:4005C0007B607A683B689A42EBD13B69DB683B604FF000037B600BE0BB684FF000021A60BB6803F10403BB607B6803F104037B607A683B689A42EFD13B6903F110033B6141
:400600007B69002B0CBF00230123DBB27A6902F1FF327A61002BB7D101F026FCFFF7B8FEFEE700BF80B582B000AF4EF60C53CEF200034FF48062C0F2FA521A604EF6145350
:40064000CEF200034EF61452CEF20002126842F400721A604FF000037B6019E07B68032B07D840F20003C0F200037A6853F8223003E040F25153C0F2000348F20002C1F6DF
:40068000FF72796842F821307B6803F101037B607B682F2BE2D947F2BC63C4F200031B78DAB248F20413C1F6FF731A704EF60853CEF2000348F20002C1F6FF721A6000F04B
:4006C000C7F948F20013C1F6FF734FF000021A6007F10807BD4680BD80B582B000AF7860396078684FF000013A6801F0ECFB07F10807BD4680BD00BF80B584B000AFF8602B
:40070000B9607A60F868B9687A6801F0D3FB07F11007BD4680BD00BF80B483B000AF0346FB71FEE780B487B000AF786039604FF000033B614FF000037B612CE07B694FEA36
:4007400083037A68D3181B68BB60BB68FB73BB6823F0FF03BB6017E03B694FEA43033A68D3181B781A46BB68D3183A694FEA420239688A1852781A703B6903F101033B610D
:40078000FB7B03F1FF33FB73FB7B002BE4D17B6903F101037B617B69272BCFD907F11C07BD4680BC704700BF80B582B000AF4FF48143C4F200034FF081021A8044F2820386
:4007C000C4F200034FF018021A7044F28403C4F200034FF081021A8044F28603C4F200034FF018021A7044F28803C4F200034FF443721A8044F28A03C4F200034FF018024F
:400800001A7044F28C03C4F200034FF443721A8044F28E03C4F200034FF018021A7044F29003C4F2000340F217521A8044F29203C4F200034FF018021A7044F29403C4F21A
:40084000000340F6A5621A8044F29603C4F200034FF018021A7044F29803C4F200034EF65F221A8044F29A03C4F200034FF018021A704FF48643C4F200034FF002021A7049
:400880004FF040234FF008021A704FF48443C4F200034FF003021A7044F2A163C4F200034FF48472C4F600121278D2B21A7044F22223C4F200034FF014021A8044F2202306
:4008C000C4F2000341F251221A804FF00003FB704FF019037B6019E0FB784FEA4303DAB244F22523C4F200031B78DBB203F00103DBB21343DBB203F00303FB704FF4F070E0
:4009000000F0CEF97B6803F1FF337B607B68002B02D0FB78032BDFD17B68002B03D14FF00300FFF7F9FE44F20403C4F200034FF480721A8044F20403C4F200034FF00702D7
:400940001A7044F20603C4F200034FF000021A7044F20803C4F200034FF048021A7044F20403C4F200034FF000021A7044F20103C4F200034FF002021A7044F2A233C4F2DB
:40098000000344F2A232C4F200021278D2B242F07F02D2B21A7007F10807BD4680BD00BF80B483B000AF40F2CF13C4F600131B78FB7145F66E03C4F20003FA7902F00702D4
:4009C000D2B21A7045F66F03C4F20003FA794FEA1212D2B21A7045F20D13C4F200034FF010021A7045F24C13C4F200034FF401621A8045F68323C4F200034FF001021A70C5
:400A000045F69023C4F200034FF020021A7045F69823C4F200034FF010021A7045F60433C4F200034FF0A0021A7045F65833C4F200034FF010021A7045F67603C4F200033D
:400A40004FF044021A7007F10C07BD4680BC704780B586B000AF72B64FF49043C4F200034FF001021A70FFF79FFE44F2E863C4F2000344F2E862C4F200021278D2B242F044
:400A80000402D2B21A704FF00003FB7519E0FA7D13464FEA43039B184FEA430341F6DC62C0F200029B183B613B691A683B699B889BB210461946FFF70FFEFB7D03F101031C
:400AC000FB75FB7D082BE2D94FF00003FB7523E0FA7D13464FEA83039B184FEA430341F61472C0F200029B18FB60FB681B68BB60FB685B687B60FB681A7A5B7A4FEA0323FE
:400B000013437B807B88B86879681A46FFF7F4FDFB7D03F10103FB75FB7D022BD8D94FF090404FF0A001C4F60001FFF7FBFD45F20303C4F2010345F20302C4F201021278D5
:400B4000D2B242F00202D2B21A7045F21303C4F2010345F21302C4F201021278D2B242F00202D2B21A7044F2A033C4F2000344F2A032C4F200021278D2B242F04002D2B2C7
:400B80001A7044F2C233C4F2000344F2C232C4F200021278D2B242F01002D2B21A7045F20210C4F2000041F2B001C4F600014FF00802FFF7A1FD45F2C010C4F2000041F21A
:400BC000B801C4F600014FF00A02FFF795FD45F2F010C4F2000041F2C401C4F600014FF00A02FFF789FD45F21010C4F2000041F2D001C4F600014FF00A02FFF77DFD45F289
:400C00002010C4F2000041F2DC01C4F600014FF00A02FFF771FD45F24210C4F2000041F2E801C4F600014FF00802FFF765FD45F25010C4F2000041F2F001C4F600014FF032
:400C40000A02FFF759FD45F26010C4F2000041F2FC01C4F600014FF00A02FFF74DFD44F22233C4F2000344F22232C4F200021278D2B242F00802D2B21A70FFF791FE44F2B0
:400C8000B030C4F2000044F2A031C4F200014FF00E02FFF731FD07F11807BD4680BD00BF0230800800F0058000BF013800467FF4FCAF7047EFF3108072B6704780F31088B9
:400CC000704700BFAFF3008080B483B000AF0346FB7101BE07F10C07BD4680BC704700BF80B582B000AF78600BE048F22813C1F6FF731B681846FFF7D3FF7B68A3F5004334
:400D00007B607B68B3F5004FEFD848F22013C1F6FF731B687A6802FB03F31846FFF7C0FF07F10807BD4680BD80B584B000AF03463960FB714EF60853CEF200031B68FB6049
:400D4000FB791F2B03D94FF00000FFF7BDFFFB7903F01F0303F110034FEA8303FA68D3181B68BB60FB7903F01F0303F110034FEA8303FA68D3183A681A60BB68184607F17D
:400D80001007BD4680BD00BF80B582B000AF02460B46FA71BB71BB79072B03D94FF00000FFF792FFFB791F2B03D94FF00000FFF78BFFFB7903F01F0303F1604303F56443B7
:400DC000BA794FEA4212D2B21A7007F10807BD4680BD00BF80B500AF44F6D613C4F200034FF002021A7044F6C813C4F200034FF081021A7044F6DB13C4F200034FF0260230
:400E00001A7044F6DC13C4F200034FF000021A704EF28013CEF200034FF400421A604FF00F004FF00701FFF7AFFF4FF00F0040F6E961C0F20001FFF777FF48F25A13C1F662
:400E4000FF734FF010021A7000F03EFC00F056FC00F022FC80BD00BF80B582B000AFFFF729FF0346FB7144F2A533C4F2000344F2A532C4F200021278D2B242F00402D2B270
:400E80001A7044F2B533C4F2000344F2B532C4F200021278D2B242F00402D2B21A70FB791846FFF70BFF07F10807BD4680BD00BF80B500AF48F24C13C1F6FF731B78002B6C
:400EC00008D1FFF787FF48F24C13C1F6FF734FF001021A70FFF7C0FF4FF46143CEF200034FF400421A6080BD80B582B000AF44F6D713C4F200031B78FB7148F25A13C1F624
:400F0000FF731B78DBB203F04003DBB2002B00F0A082FB7903F00103002B00F0638248F25A13C1F6FF731B78DBB2A3F14503052B00F2538201A252F823F000BF550F0000CE
:400F40004B110000DB130000DB130000550F0000F3120000FB7923F02003FB71FB7903F00A03DBB2082B40F0858048F25A13C1F6FF731B78DBB2452B6DD148F25F13C1F650
:400F8000FF731B78DBB2002B21D044F6D813C4F2000348F26412C1F6FF7212681278D2B21A7044F6D713C4F200034FF004021A7048F25C13C1F6FF734FF001021A7048F237
:400FC0005A13C1F6FF734FF046021A700AE248F25D13C1F6FF731B78DBB203F00203002B1CD048F25E13C1F6FF731B78DBB243F00A03DAB248F25E13C1F6FF731A7048F204
:401000005A13C1F6FF734FF060021A704EF28013CEF200034FF400421A60E3E144F6D613C4F2000344F6D612C4F200021278D2B242F01002D2B21A7044F6D913C4F20003A1
:401040004FF010021A7044F6D713C4F200034FF004021A70C6E144F6D713C4F200034FF000021A7048F25A13C1F6FF734FF04A021A70B7E1FB7903F00A03DBB20A2B5FD1B7
:4010800048F25E13C1F6FF731B78DBB263F05F03DAB248F25E13C1F6FF731A7048F25D13C1F6FF731B78DBB203F00203002B2AD048F25A13C1F6FF731B78DBB203F008039F
:4010C000002B02D04FF0090201E04FF00A0248F25E13C1F6FF731B78DBB21343DAB248F25E13C1F6FF731A7048F25A13C1F6FF734FF060021A704EF28013CEF200034FF475
:4011000000421A606EE144F6D613C4F2000344F6D612C4F200021278D2B242F01002D2B21A7044F6D913C4F200034FF010021A7044F6D713C4F200034FF004021A7051E1F6
:401140004FF00000FFF7C0FD4CE1FB7903F00203002B7CD148F25C13C1F6FF731B78DAB248F25F13C1F6FF731B78DBB29A4228D244F6D813C4F2000348F26412C1F6FF72FA
:40118000116848F25C12C1F6FF721278D2B28A181278D2B21A7044F6D713C4F200034FF004021A7048F25C13C1F6FF731B78DBB203F10103DAB248F25C13C1F6FF731A7020
:4011C00010E148F25D13C1F6FF731B78DBB203F00203002B1CD048F25E13C1F6FF731B78DBB243F00A03DAB248F25E13C1F6FF731A7048F25A13C1F6FF734FF060021A70E3
:401200004EF28013CEF200034FF400421A60E9E000F08EFA44F6D613C4F2000344F6D612C4F200021278D2B242F01002D2B21A7044F6D913C4F200034FF010021A7044F6CE
:40124000D713C4F200034FF004021A70CAE048F25D13C1F6FF731B78DBB203F00203002B1CD048F25E13C1F6FF731B78DBB263F06503DAB248F25E13C1F6FF731A7048F27D
:401280005A13C1F6FF734FF060021A704EF28013CEF200034FF400421A60A3E044F6D613C4F2000344F6D612C4F200021278D2B242F01002D2B21A7044F6D913C4F2000360
:4012C0004FF010021A7044F6D713C4F200034FF004021A7048F25E13C1F6FF731B78DBB263F06F03DAB248F25E13C1F6FF731A7078E048F26813C1F6FF731A6848F260135F
:40130000C1F6FF731B78DBB2D21844F6D813C4F200031B78DBB2137048F26013C1F6FF731B78DBB203F10103DAB248F26013C1F6FF731A7048F26013C1F6FF731B78DAB22A
:4013400048F26C13C1F6FF731B78DBB29A4207D244F6D713C4F200034FF010021A7041E048F25D13C1F6FF731B78DBB203F00203002B1CD048F25E13C1F6FF731B78DBB2E7
:4013800043F00903DAB248F25E13C1F6FF731A7048F25A13C1F6FF734FF060021A704EF28013CEF200034FF400421A601AE044F6D613C4F2000344F6D612C4F2000212783A
:4013C000D2B242F01002D2B21A7044F6D713C4F200034FF000021A7004E04FF00000FFF773FC00BFFB7903F02003002B43D048F25A13C1F6FF731B78DBB203F00803002B47
:4014000002D04FF0010201E04FF0020248F25E13C1F6FF731B78DBB21343DAB248F25E13C1F6FF731A7044F6D613C4F2000344F6D612C4F200021278D2B222F01002D2B2D4
:401440001A7048F25A13C1F6FF734FF010021A7011E048F25A13C1F6FF731B78DBB203F01003DBB2002B06D148F25A13C1F6FF734FF010021A7007F10807BD4680BD00BF10
:4014800080B485B000AF02460B46FA71BB714FF00203FB7348F25A13C1F6FF731B78DBB2102B5FD144F6D913C4F200031B78DBB203F00803002B52D14EF28013CEF20003F6
:4014C0004FF400421A60FB794FEA4303FB71BB79002B0BD0FB7943F00103FB7148F25A13C1F6FF734FF049021A7006E048F25A13C1F6FF734FF045021A7044F6D813C4F2B8
:401500000003FA791A7044F6D913C4F200034FF001021A7000BF44F6D713C4F200031B78DBB203F00103002BF5D044F6D713C4F200031B78DBB203F00A03DBB20A2B0AD1C3
:4015400048F25A13C1F6FF734FF010021A704FF00303FB7306E04FF00003FB7302E04FF00103FB73FB7B184607F11407BD4680BC704700BF80B483B000AF4FF00203FB7182
:4015800044F6D913C4F200031B78DBB203F00403002B22D044F6D913C4F200034FF010021A7044F6D713C4F200034FF004021A7048F25A13C1F6FF734FF010021A7000BF45
:4015C00044F6D713C4F200031B78DBB203F02103002BF5D04FF00003FB71FB79184607F10C07BD4680BC704780B485B000AF0346FB714FF00203FB7344F6D913C4F2000308
:401600001B78DBB203F00403002B3DD044F6D813C4F20003FA791A7044F6D713C4F200034FF004021A7048F25A13C1F6FF734FF046021A7000BF44F6D713C4F200031B78C1
:40164000DBB203F00103002BF5D044F6D713C4F200031B78DBB203F00203002B0AD148F25A13C1F6FF734FF060021A704FF00003FB7309E048F25A13C1F6FF734FF06002F6
:401680001A704FF00303FB73FB7B184607F11407BD4680BC704700BF80B483B000AF48F25E13C1F6FF731B78FB7148F25E13C1F6FF734FF000021A70FB79184607F10C07EC
:4016C000BD4680BC704700BF80B400AF48F26013C1F6FF734FF000021A7048F25E13C1F6FF731B78DBB223F00103DAB248F25E13C1F6FF731A70BD4680BC704780B400AFE3
:4017000048F25C13C1F6FF734FF000021A7048F25E13C1F6FF731B78DBB223F00203DAB248F25E13C1F6FF731A70BD4680BC704780B400AFBD4680BC704700BF80B485B01F
:4017400000AF0346FB7145F26013C4F200031B78DBB223F01003FB7345F26013C4F20003FA794FEA0212D2B202F01002D1B2FA7B0A43D2B21A7007F11407BD4680BC7047E7
:4017800080B500AF45F62C03C4F200034FF000021A7045F62D03C4F200034FF000021A704FF0040000F06CF84FF0000000F03EF880BD00BF80B400AF44F2A833C4F20003C3
:4017C00044F2A832C4F200021278D2B242F00802D2B21A7044F2B833C4F2000344F2B832C4F200021278D2B242F00802D2B21A70BD4680BC704700BF80B500AF48F24D138C
:40180000C1F6FF731B78002B08D1FFF7B9FF48F24D13C1F6FF734FF001021A70FFF7CAFF4FF0CB0000F056F880BD00BF80B483B000AF0346FB7145F62C03C4F2000345F67F
:401840002C02C4F200021278D2B222F00202D2B21A7045F62C03C4F2000345F62C02C4F200021278D1B2FA7902F00202D2B20A43D2B21A7007F10C07BD4680BC704700BFF7
:4018800080B582B000AF0346FB7145F62C03C4F2000345F62C02C4F200021278D2B222F00C02D2B21A7045F62C03C4F2000345F62C02C4F200021278D1B2FA7902F00C0219
:4018C000D2B20A43D2B21A7000F014F807F10807BD4680BD80B483B000AF0346FB7145F68333C4F20003FA791A7007F10C07BD4680BC704780B483B000AF45F62C03C4F21D
:4019000000031B78DBB203F00C034FEA9303DBB203F10603FB7144F20B63C4F20003FA7902F1924202F59C721278D2B21A7007F10C07BD4680BC704780B500AF48F24E1309
:40194000C1F6FF731B78002B08D100F00BF848F24E13C1F6FF734FF001021A7000F036F880BD00BF80B500AF4FF0010041F6A121C0F20001FFF7D8F94FF001004FF00701EC
:40198000FFF702FA46F28653C4F200034FF072021A7046F28643C4F200034FF020021A7046F22553C4F200034FF007021A7046F23553C4F200034FF048021A7046F28753B0
:4019C000C4F200034FF000021A7080BD80B582B000AFFFF76FF90346FB7146F29653C4F2000346F29652C4F200021278D2B242F02002D2B21A7046F29643C4F2000346F2D9
:401A00009642C4F200021278D2B242F01002D2B21A704FF46143CEF200034FF002021A6046F29753C4F2000346F29752C4F200021278D2B242F01002D2B21A7000F0D0F982
:401A4000FB791846FFF73AF907F10807BD4680BD80B400AF4FF46143CEF200034FF002021A60BD4680BC704780B483B000AF0346FB7100BF46F26753C4F200031B78DBB28F
:401A800003F00403002BF5D146F24753C4F20003FA791A7007F10C07BD4680BC704700BF80B483B000AF4FF00003BB7146F26643C4F200031B78FB715EE048F25013C1F644
:401AC000FF731B78DBB21A4646F24643C4F200031B78D9B248F27013C1F6FF7399544FF00103BB71BB79002B40D048F25113C1F6FF731B78DBB2002B06D048F25213C1F66D
:401B0000FF734FF001021A7048F25013C1F6FF731B78DBB203F10103DAB248F25013C1F6FF731A7048F25013C1F6FF731B78DBB2132B06D948F25013C1F6FF734FF00002A3
:401B40001A7048F25013C1F6FF731B78DAB248F24F13C1F6FF731B78DBB29A4206D148F25113C1F6FF734FF001021A7046F26643C4F200031B78FB71FB7903F02003002B7D
:401B80009BD107F10C07BD4680BC704780B500AF48F25413C1F6FF731B78002B08D100F00BF848F25413C1F6FF734FF001021A7000F036F880BD00BF80B500AF4FF00200AB
:401BC00041F6F541C0F20001FFF7AEF84FF002004FF00701FFF7D8F846F28953C4F200034FF072021A7046F28853C4F200034FF020021A7046F22243C4F200034FF007027C
:401C00001A7046F23243C4F200034FF048021A7046F28543C4F200034FF000021A7080BD80B582B000AFFFF745F80346FB7146F29953C4F2000346F29952C4F200021278A0
:401C4000D2B242F02002D2B21A7046F29853C4F2000346F29852C4F200021278D2B242F01002D2B21A704FF46143CEF200034FF004021A6046F29543C4F2000346F2954227
:401C8000C4F200021278D2B242F01002D2B21A7000F0C8F8FB791846FFF710F807F10807BD4680BD80B400AF4FF46143CEF200034FF004021A60BD4680BC704780B483B09C
:401CC00000AF0346FB7100BF46F26543C4F200031B78DBB203F00403002BF5D146F24543C4F20003FA791A7007F10C07BD4680BC704700BF80B483B000AF4FF00003BB7163
:401D000046F26853C4F200031B78FB715EE048F25613C1F6FF731B78DBB21A4646F24A53C4F200031B78D9B248F28413C1F6FF7399544FF00103BB71BB79002B40D048F2C3
:401D40005713C1F6FF731B78DBB2002B06D048F25813C1F6FF734FF001021A7048F25613C1F6FF731B78DBB203F10103DAB248F25613C1F6FF731A7048F25613C1F6FF7383
:401D80001B78DBB2132B06D948F25613C1F6FF734FF000021A7048F25613C1F6FF731B78DAB248F25513C1F6FF731B78DBB29A4206D148F25713C1F6FF734FF001021A702D
:401DC00046F26853C4F200031B78FB71FB7903F02003002B9BD107F10C07BD4680BC704780B400AF44F2A233C4F2000344F2A232C4F200021278D2B242F00102D2B21A705C
:401E000044F2B233C4F2000344F2B232C4F200021278D2B242F00102D2B21A70BD4680BC704700BF80B400AF44F2A233C4F2000344F2A232C4F200021278D2B242F0020249
:401E4000D2B21A7044F2B233C4F2000344F2B232C4F200021278D2B242F00202D2B21A70BD4680BC704700BF38B50E4D0E4B0024E81A8510AC4205D00B4951F824209047D0
:401E80000134F7E700F056F80849094A541AA5100024AC4205D0054B53F8240080470134F7E738BD401F0000401F0000401F0000481F000010B50023934203D0CC5CC45441
:401EC0000133F9E710BD82180346934202D003F8011BFAE77047000000000000C84900401900004F0040180030510040100000000140000A800A01408005001401400008EE
:401F000000400140000A004C01400002105001401000000000510140181000480800000A014020100048800000500140A010004810000000F8B500BFF8BC08BC9E46704771
:401F40005100000025060000F8B500BFF8BC08BC9E4670472D000000681F00000881FF1F2800000068000000000000000C040C0E110800DF010E1111000300000087930308
:401F800060EA00003C0000000000307500000000000000000000000000000000000000000000000000000000000000000000000000000000000000000000000000000000F6
:401FC00000000000000000000000000000000000000000000000000000000000000000000000000000000000000000000000000000000000000000000000000000000000E1
:4020000000000000000000000000000000000000000000000000000000000000000000000000000000000000000000000000000000000000000000000000000000000000A0
:402040000000000000000000000000000000000000000000000000000000000000000000000000000000000000000000000000000000000000000000000000000000000060
:402080000000000000000000000000000000000000000000000000000000000000000000000000000000000000000000000000000000000000000000000000000000000020
:020000040003F7
:0200000480007A
:40000000044F0040085200400B640040066500400201014062020140480301405A040140460501406C06014046070140650801404E090140150A0140570B0140500C014072
:400040004F0D0140670E0140420F014070140140521501404D1601404D1701405F180140491901405F1A0140511B0140064001400B410140094201400C4301400C44014062
:400080000B4501400E460140084701400948014004490140114C01400F4D01400650014001600A360D60161B08801002146028202CC03001602061308238830F840F850F62
:4000C00086388738880D8A728B3C8C728E0F840D8672870F883889728B728308E6010603089C09040A2211031414188019031A10202C22D1250128302A4C2C092EF02F0290
:40010000321F330334E03504370439083A203F4440024515480349FF4A074BFF4C404D204EF04F05500854185604580459045A045B045C215D315F01604061A86240632070
:4001400084B1864A890190B191019246941C96819702983099019AC0A104A6EFA702A804B00EB207B304B478B502B680B701BA2ABE40BF14C021C105C5E0C6CBC80EC9FF6B
:40018000CAFFCBFFCEF0CF44D00CD401D604D804D904DA04DB04DC32DD22DF01E6C0EA40EB02032005040608081009200A900B800D080F08120C130815401711182019401D
:4001C0001A901B201D041F10220423052580272C282029012D402E082F1230203102330837113A103C2041804320472049014B804C804D084F0850405120581059415A0805
:400200005E0160806682670483018480850286038C249A80A308AA80C064C26EC4D6CA53CCA7CE24D02CD208D68FD8B1E001E20AEA0100010703093C0B020D141509175006
:4002400019701B0C1D6C1F1120022710298030023180320133603402351F39083E143F054052410645E046CB480E49FF4AFF4BFF4EF04F44500C5401580459045A045B04D1
:400280005C215D445F0166C06A406B0281408503878491839334952099839B1C9C01A202A529A780AFBEB180B201B30FB401B540B602B738BB88BE10BF11C026C104C5ECF5
:4002C000C70BC813C9FFCAFFCBFFCEF0CF44D00CD401D804D904DA04DB04DC10DD11DF01E6C0EA40EB02028008200B040F021080168019241B021C081E22201422022799C1
:4003000029102A042F12324033243508371138A43D013F044204471149014B904D214F04522053805508581059015A485C205D015F888010860290A09280932094049908D9
:400340009A049B049F11A080A320A508A702A904AA08AE10B030C008C280C418CA56CCEECECED0A4D22CD6FFE002E401E608EA06EC01001402490301049F089F0C80140ACE
:40038000165118011A261F01308032183301340736603B023E403F04406541044202440145C047E0482249FF4AFF4BFF4C624DA04EF04F41500C54185604580459045A04DA
:4003C0005B045F016640670269106A306B106D106E106F12805083028471855386888704880189368A0E8B098C248D358EC18F4A9002920198039A409B6FA0C3A230A6805D
:40040000A8B0A901AA47B080B103B348B47FB50CB730B980BB2ABE01BF40C001C515C803C9FFCA07CBFFCC40CD20CEF0CF05D008D418D604D804D904DA04DB04DC44DD24AA
:40044000DF01E040E1A8E240E3200004014003880428068007010B480E181260131019101A401D801E181F022004214123502509260229902B0A32103740388439023A4058
:400480003B903C024140459946204B0A4C804DA0540158015F02608A6542662080808140821088408D02964C979099059D109E80A004A231A380A680A701B010B220C0FF65
:4004C000C26AC40ECA04CC14CE8FD0B8D230D681D8BDE240E602020203020E010F0217011B011E0220042A01300431013202330236013A203E453F05404145EC47204823FC
:4005000049FF4AFF4BFF4F015018528054015604580459045A045B045C025D555F016040624064406540668068806A806C806E8082048301843F857E897E8D029004943FD7
:4005400095109760981C99249A229B18A20BA301A814AA29AD48AF14B010B101B208B370B407B50CB620B702B880BA20BE01BF01C002C501C650C809C9FFCA07CBFFCC409E
:40058000CD20CEF0CF05D008D608D804D904DA04DB04DC44DD93DF01E040E1A8E240E32002800320074208020A140C401001120613011608170119211A051B081C201D6048
:4005C0001F02200222162311250127202802290232143620370439563C803E01400444404530464247404A104D09502052105602588059105B205D896302674076408740D8
:40060000881089808A108C8090049154921095089624971898029A049D319E10A040A280A320A421A708B210C09CC28EC45ACA09CC66CE9FD094D6D8D888E280810183028C
:400640008D048F019001950197069B07A504B201B707BB80BE04D41CD604D804D904DB04DC30DD40DF01020403200420060409080A060B800F40108013A4182819021A0261
:400680001BA01E202109228823082540280229202A042B802C2031083210334034203504380839023B903D803F024140436848414A084B80500159015D025F086401651069
:4006C00066026954708073247C207F04831086028D408E108F80900492109340940295089708980399049E10A301A540A718A810A960AF01B080B280B640C006C21FC40F4E
:40070000CA4FCC6ECE9FD00ED20CD6C1D8B0E002EA80EE8401200240044C051006A309780AB30B070CFF0D7F104211011403170B18F319301A0C1C011D02204F229024046C
:40074000254F2730280C29032C082D702F0F308C3140327C3303340F3538370439803A2A3F0140064515480349FF4A074BFF4C404D204EF04F0550085602571058045904BD
:400780005A045B045C335D325F01604061A862406320830294019702A901B102B301B401BA08BE10BF05D608D804D904DB04DC04DD90DF01044005010620070409040C0428
:4007C0000D080E060F801682171819101A101C101E041F01202022012698278029202C142E842F0130013201330835803601371438023C503E2A4C904D804FA058205A40D8
:400800005F8060026C246D206F01760A7718820283048420860888308D149044934094089548970899859C109D109E10A108A201A301A420A540A612A880AB14C0F0C2F4C3
:40084000C4F0CA74CCF2CEF1D220D61CD808E440E610047805120683072109280F061078114012851AD71C2E1F0120602138228023052402251927222B202D212F1830E492
:40088000313E320733403418350138203A0A3E103F144043410245E046BC480E49FF4AFF4BFF4EF04F44500C5401580459045A045B045C335D335F0166C06A406B0284C741
:4008C00087019401961698C79B019C429EA1AC84AE69B008B207B430B501B6C0BB02BE10BF10C035C104C206C402C6E0C70CC818C9FFCAFFCBFFCC62CDA0CEF0CF41D00CB4
:40090000D608D804D904DA04DB04DC33DD93DF01E640E702E910EA30EB10ED10EE10EF1201080408084009400A400B080C200D080E021080121014021804190C1A401B0118
:400940001D291E0222242340244025012704284029082A102B2130803301352036103B683F084104424043204410452149024D204E0250805310571459025A085B515D409B
:400980005F106402658083108B108D108E208F40C024C2EBC48CCA0FCC29CE4ED0E7D230D63FD81004190543070C0B200C030E140F1011431304161E174E180819091B4020
:4009C0001C201F202310240325032604274428032A0C301F31203220330F3420354037103A023B083E103F51405445EC4720482349FF4AFF4BFF4F015018528054015604B8
:400A0000580459045A045B045C045D555F016040624064406540668068806A806C806E808580871089308B4C901892039303951496179802999C9B22A40EA818A909AA05FD
:400A4000ABF0AD2CAFD1B007B218B5E0B71FB808BA02BB20BE04C003C505C710C821C9FFCA07CBFFCC40CD20CEF0CF05D008D608D804D904DA04DB04DD90DF01E040E1A820
:400A8000E240E320000403020A200B0A0C080E600F08122013101410172418801A241B021D0A1E4020282104224123202540270529082A012C082E403098310234103608E5
:400AC000370139183B403C203F084101450849054B404F0851015201570159055A805C40620266807340848488818C408E0290049110931A94809508962699089C819E802A
:400B0000A238A542A701A904AB40B110B201B302C005C277C466CA33CCEFCE6ED041D208D61BD811E610EA0100420170030F04FF0578070708F309300A0C0EB3104C117F7F
:400B400012A3140115101803194F1B301E401F0B204F2120229024042503280C29012C082D023104327C3340340F3538368C370339023AA83F0456025711580459045B0483
:400B80005F019A029C01A101A202B001B301B401B602B808BE45BF04C036C104C5ECC70BC813C9FFCAFFCBFFCEF0CF44D00CD401D804D904DA04DB04DC03DF01E6C0EA4003
:400BC000EB0205900690084009100C200E1A0F80108015011602171819401B261C021D182204241025102742281029092C202E9235B0360237083C023D093E204106450C7B
:400C00004804490A4A805208589059065C106C146F0176227718861287208F0490049210931A94A8962C984099859C019D609E809F43A084A237A550A680A701A802AC08C6
:400C4000AD40C0F0C2F3C4F8CAF1CCF0CEE0D003D204D62FE248E408E802EE09000102260301089F0C80149F180A1A511C141E49308031013260341836073E04402441067B
:400C800042054403450C470E481149FF4AFF4BFF4C624DA04EF04F41500C54185604580459045A045B045C225D125F016640670269106A306B106D106E106F12804C8120F8
:400CC00082A38530864088F389108A0C8C018D019042930B9403957F98FF99039D789EB39F07A008A170A30FA404A80CA94FAB30AC4FAD02AE90B08CB138B303B40FB54020
:400D0000B67CB704B980BAA2BF10D602D712D804D904DB04DC11DD10DF01004803880423070108020A2A0E240F0210A01215132019111B801C011D0A1E0420022101220829
:400D400023082780280229112A212B083215338038C03A163D203F12452A46404E224F1056085B085D01640165206780695470A072027320874489018A088E028F04950A9E
:400D8000970898019D029E089F06A110A301A620A901AD40AF01B702C0DFC2EFC40FCA0DCC0FCE8FD0E0D230D682D8B0040106260C0A0E5110141249249F289F2C802F01A7
:400DC000301832073460350136803B083E10403541064204440245C0460E480649FF4AFF4BFF4C624DA04EF04F41500C5608580459045A045B045C115D915F016640670234
:400E000069106A306B106D106E106F1280038120844C851086A388F3897F8A0C8C088D708F0F904F9103929094FF954F9730980199309C429D02A2B3A404A501A80CA97884
:400E4000AB07AE40AF0BB08CB140B27CB303B40FB538B704B980BA2ABF01D602D710D804D904DB04DC22DD20DF010108030204020515060108020C400E440F12115416C054
:400E80001798188419881A221B021D341E481F042008220C2440272628022E842F0434403501360437103D203E4A40044101422049824A08534058805C4060026C106E2075
:400EC0006F01760B771888808B60900291569204931094A0962A9A609B809C029D029F07A110A301A404A520A610B001B124C0F5C2F8C4F7CA78CCF0CEF0D007D20CD6185A
:400F0000D808E240E6A0E820EA81EC803042342036013B40CCF0CE103388360137208440874097409C60A402A601CCF0E6503E1087809C209F20A402A601A788CE20E61022
:400F40006502820187088C2096109C209F20A402A601A708D880E6C0050410101308144057808B088F80C004C40CD402E002E60101805610884089018B2098509904C002C2
:400F8000D402E201E4010502528086109101981099049D029E10A320A902B580C004D404EE028D04910198109904A320B280E208E801650284028D0296109D029F20A4027B
:400FC000D880E2108F209F20AA10EA800B021040132014805F0878107F20910198109B08A320B708C202C40ED601DE03EC0208025D0178407C8088028F019101930298C013
:40100000AB20C208D601DC01DE04E206103F11011A391B011C061D01FFFF03C00000000000060009590F2600370048100000000F000079005103200426005920000F1000E2
:40104000040400020201000E060600097F00006040070E30070830400000A802000000042501030006E000C022FFFFFF62A0F0410C000000000002130404040444440001D4
:4010800000000000000040020010301000101012000000000000000000000000000000003F010000000000000E0017003C011C01000000000000100030000000300030000D
:4010C000000000001000201010001000000000008000408080008000000000000200640202000200000000000004040000001800600010E0A00020000000000001000211A0
:40110000110001000000000000000000000000000000000000000000000000000000000000000000000000000000000000000000000000000000000000000000000000009D
:40114000000000000000000000000000000000000000000000000000000000000000000000000000000000000000000000000000000000000000000000000000000000006F
:40118000000000000000000000000000000000000000000000000000000000000000000000000000000000000000000000000000000000000000000000000000000000002F
:4011C00000000000000000000000000000000000000000000000000000000000000000000000000000000000000000000000000000000000000000000000000000000000EF
:4012000000000000000000000000000000000000000000000000000000000000000000000000000000000000000000000000000000000000000000000000000000000000AE
:0200000490006A
:0400000000004005B7
:0200000490105A
:04000000BC90ACAF55
:0200000490303A
:0200000066F7A1
:0200000490402A
:40000000AAAAAAAAAAAAAAAAAAAAAAAAAAAAAAAAAAAAAAAAAAAAAAAAAAAAAAAAAAAAAAAAAAAAAAAAAAAAAAAAAAAAAAAAAAAAAAAAAAAAAAAAAAAAAAAAAAAAAAAAAAAAAAAA40
:40004000AAAAAAAAAAAAAAAAAAAAAAAAAAAAAAAAAAAAAAAAAAAAAAAAAAAAAAAAAAAAAAAAAAAAAAAAAAAAAAAAAAAAAAAAAAAAAAAAAAAAAAAAAAAAAAAAAAAAAAAAAAAAAAAA00
:40008000AAAAAAAAAAAAAAAAAAAAAAAAAAAAAAAAAAAAAAAAAAAAAAAAAAAAAAAAAAAAAAAAAAAAAAAAAAAAAAAAAAAAAAAAAAAAAAAAAAAAAAAAAAAAAAAAAAAAAAAAAAAAAAAAC0
:4000C000AAAAAAAAAAAAAAAAAAAAAAAAAAAAAAAAAAAAAAAAAAAAAAAAAAAAAAAAAAAAAAAAAAAAAAAAAAAAAAAAAAAAAAAAAAAAAAAAAAAAAAAAAAAAAAAAAAAAAAAAAAAAAAAA80
:0200000490501A
:0C00000000012E12306900012E259760CF
:00000001FF