:400000000080002011000000397C0100397C010080B500AF024A034B1B68136017F038FEBC760040FA46004010B5054C237833B9044B13B10448AFF300800123237010BD5E
:4000400058D4FF1F000000009CDA0100084B10B51BB108480849AFF300800848036803B910BD074B002BFBD0BDE81040184700BF000000009CDA01005CD4FF1F0881FF1F0D
:400080000000000080B582B000AF0023FB7118E0FB794FF4867202FB03F30D4A13443B603B681B78DBB2C22B08D13B68D3F808315B6838689847386800F0C6F8FB79013350
:4000C000FB71FB79132BE3D90837BD4680BD00BFBCD4FF1F80B485B000AF0346FB710B4BFB6008E0FB681B78FA799A4200D106E0FB684C33FB60FB681B78A52BF2D1FB68AF
:4001000018461437BD465DF8047B70470C81FF1F90B585B000AF0346FB710023FB600023FB7245E0FB7A264A4FF4867101FB03F313441B78DBB2C02B37D1FB7A204A4FF42F
:40014000867101FB03F31344C1221A70FB7A1C4A4FF4867101FB03F3134400225A80FC7AFB791846FFF7B6FF0146154A4FF4867303FB04F3134403F584731960FB7A4FF437
:40018000867202FB03F30E4A13440433184600214FF480721CF0FDFFFB7A4FF4867202FB03F3074A1344FB6005E0FB7A0133FB72FB7A132BB6D9FB6818461437BD4690BD73
:4001C000BCD4FF1F80B582B000AF0023FB712DE0FB791B4A4FF4867101FB03F31344C0221A70FB79164A4FF4867101FB03F3134400225A80FB794FF4867202FB03F3104A88
:4002000013440433184600214FF480721CF0C1FFFB790B4A4FF4867101FB03F3134403F5847300221A60FB790133FB71FB79132BCED9044800F052F80837BD4680BD00BFA8
:40024000BCD4FF1F8500000080B582B000AF78607B68C0221A707B6800225A807B680433184600214FF480721CF093FF7B680022C3F808210837BD4680BD00BF80B584B033
:4002800000AF03463960FB711346BB800023FB730E4BBB6010E0BB681B78FA799A4208D1BB685B68BA883868114698470346FB7306E0BB680833BB60BB681B78A52BEAD185
:4002C000FB7B18461037BD4680BD00BFD482FF1F80B400AFBD465DF8047B704780B483B000AF78600B4B93F840300F2B0CD8094B93F840305A1CD1B2064A82F840101946E1
:40030000044A7B6842F821300C37BD465DF8047B704700BFACE9FF1F80B582B000AF0023FB7111E0FB790D4A52F823300C4A13600B4B1B68002B03D0094B1B68984700E08A
:4003400008E0FB790133FB71044B93F84030FA799A42E7D30837BD4680BD00BFACE9FF1FF0E9FF1FF0B587B000AFC7E902017A600123FB755FE0FB7D013B7A68D618FB7D5F
:4003800018461CF0C7F802460B464FF000006B491AF0A2FE02460B46104619461CF0CAFB03461A464FF00003D7E902011CF0E2FB14461D46FB7D013B18461CF0BBF8024652
:4003C0000B464FF000005D491AF086FE02460B46104619461CF0AEFB03461A464FF00003D7E902011CF0C6FBA41A65EB0305FB7D013B18461CF09EF802460B464FF0000019
:400400004E491AF069FE02460B46104619461CF091FB03461A464FF00003204629461CF0A9FB02460B46D3B243F03003DBB23370FB7D0133FB75FB7D18461CF06BF8024601
:400440000B464FF000003D491AF046FE02460B46104619461CF06EFB03461A464FF00003D7E902011CF086FB10461946D7E90223994208BF90427FF47EAFFB7D013B7A68D6
:40048000D618FB7D18461CF045F802460B464FF000002A491AF020FE02460B46104619461CF048FB03461A464FF00003D7E902011CF060FB14461D46FB7D013B18461CF02F
:4004C00039F802460B464FF000001C491AF004FE02460B46104619461CF02CFB03461A464FF00003D7E902011CF044FBA41A65EB0305FB7D013B18461CF01CF802460B4627
:400500004FF000000D491AF0E7FD02460B46104619461CF00FFB03461A464FF00003204629461CF027FB02460B46D3B243F03003DBB233701C37BD46F0BD00BF000024400C
:4005400080B485B000AF78600B46FB7000237B730023FB7327E0FB78013B7A6813441B787B73FB78023BDBB2BB730FE097F90E3001337A68134497F90E2079680A441278B1
:400580001A70BB7BDBB2013BDBB2BB7397F90E20FB7B9A42EADAFB7B7A6813447A7B1A70FB7B0133FB73FA7BFB78013B9A42D2DB1437BD465DF8047B704700BFB0B584B0FF
:4005C00000AF78600B467B800023FB600023FB7234E0FB7A18461BF09DFF02460B46104619461AF021FD04460D46FB7A7A6813441B7803F00F0318461BF09CFF02460B4696
:40060000204629461BF0FCFF02460B4614461D46F8681BF07FFF02460B461046194622462B461BF03BFE02460B46104619461CF081FA0346FB60FB7A0133FB72FB7A9BB2E4
:400640007A889A42C5D8FB6818461037BD46B0BD80B485B000AF03460A46FB711346BB71FA79BB795340FB710023FB7312E0FB7903F00103002B07D0FB795B08DBB283F078
:400680007303DB43FB7102E0FB795B08FB71FB7B0133FB73FB7B072BE9D9FB7918461437BD465DF8047B704780B584B000AF78600B467B800023FB730023BB810DE0BB898B
:4006C0007A6813441B78FA7B10461946FFF7C0FF0346FB73BB890133BB81BA897B889A42EDD3FB7B18461037BD4680BD80B584B000AF0023FB732CE0FB7B484A4FF4CC716A
:4007000001FB03F3134400225A70FB7B434A4FF4CC7101FB03F313440122DA70FB7B3F4A4FF4CC7101FB03F3134401229A70FB7B4FF4CC7202FB03F30833384A1344043321
:40074000184600214FF4C0721CF023FDFB7B0133FB73FB7B2F2BCFD90023FB7323E0FB7B2F4A2C2101FB03F3134401221A70FB7B2C2202FB03F32A4A1344013318460021CE
:4007800008221CF006FDFB7B2C2202FB03F30833234A134404331846002108221CF0F9FCFB7B0133FB73FB7B0F2BD8D900F0D4FAB860BB68002B2BD00023FB71FB79BA68AC
:4007C000134404225A70FB795A1CFA71BA6802339B001344134A5A60FB79BA68134405225A70FB795A1CFA71BA6802339B0013440D4A5A60FB79BA68134406225A70FB791D
:400800005A1CFA71BA6802339B001344074A5A600748FFF763FD1037BD4680BD04EAFF1F843600202116000091160000AD160000C10D00000000000090B585B000AF0023B6
:40084000FB601CF0AFFC034618461BF073FE02460B461046194646A3D3E900231BF0FAFF02460B46104619464FF00002424B1BF0C7FE02460B46104619464FF000023F4B24
:400880001BF00CFD02460B46104619461CF052F90346FB8000237B8100BF7B895A1C7A81FA889A42F9D800237B7257E07B7A344A4FF4CC7101FB03F31344DB78DBB2012BAA
:4008C00049D17B7A2E4A4FF4CC7101FB03F3134400221A707B7A2A4A4FF4CC7101FB03F3134400229A807B7A254A4FF4CC7101FB03F313440222DA707C7A1AF085FB03462A
:4009000019461F4A4FF4CC7303FB04F313440A46DA807B7A1A4A4FF4CC7101FB03F31344083300221A807B7A4FF4CC7202FB03F30833134A13440433184600214FF4C072DB
:400940001CF027FC7B7A4FF4CC7202FB03F30C4A1344FB6005E07B7A01337B727B7A2F2BA4D9FB6818461437BD4690BDAFF300800000C0FFFFFFDF41000090400000244081
:4009800004EAFF1FAFF3008080B584B000AF0346FB710023FB731CF005FC034618461BF0C9FD02460B461046194623A3D3E900231BF050FF02460B46104619464FF000024A
:4009C0001F4B1BF01DFE02460B46104619464FF000021C4B1BF062FC02460B46104619461CF0A8F803463B810023BB8100BFBB895A1CBA813A899A42F9D80023FB7211E005
:400A0000FB7A114A4FF4CC7101FB03F313445B78DBB2FA799A4202D10023FB7305E0FB7A0133FB72FB7A2F2BEAD9FB7B18461037BD4680BDAFF300800000C0FFFFFFDF4123
:400A4000000090400000244004EAFF1FAFF3008090B587B000AF0346FB7100237B611CF0A1FB034618461BF065FD02460B461046194655A3D3E900231BF0ECFE02460B46C6
:400A8000104619464FF00002514B1BF0B9FD02460B46104619464FF000024E4B1BF0FEFB02460B46104619461CF044F80346FB8100237B8200BF7B8A5A1C7A82FA899A42A7
:400AC000F9D800237B7418E07B7C434A4FF4CC7101FB03F313445B78DBB2FA799A4209D17B7C4FF4CC7202FB03F33B4A13447B617B6964E07B7C01337B747B7C2F2BE3D9D3
:400B000000237B7457E07B7C334A4FF4CC7101FB03F31344DB78DBB2012B49D17B7C2E4A4FF4CC7101FB03F3134400221A707B7C294A4FF4CC7101FB03F313440222DA7084
:400B40007C7C1AF061FA03461946234A4FF4CC7303FB04F313440A46DA807B7C1E4A4FF4CC7101FB03F31344083300221A807B7C194A4FF4CC7101FB03F3134400229A800D
:400B80007B7C4FF4CC7202FB03F30833124A13440433184600214FF4C0721CF0FAFA7B7C4FF4CC7202FB03F30B4A13447B6105E07B7C01337B747B7C2F2BA4D97B691846AF
:400BC0001C37BD4690BD00BF0000C0FFFFFFDF41000090400000244004EAFF1FAFF3008080B584B000AF0346FB710023FB7307E0FB7B374A002142F82310FB7B0133FB7372
:400C0000FB7B032BF4D91CF0CDFA034618461BF091FC02460B46104619462BA3D3E900231BF018FE02460B46104619464FF00002284B1BF0E5FC02460B46104619464FF09A
:400C40000002254B1BF02AFB02460B46104619461BF070FF03463B810023BB8100BFBB895A1CBA813A899A42F9D80023FB730023FB721CE0FB7A194A4FF4CC7101FB03F31B
:400C800013445B78DBB2FA799A420DD1FB7B5A1CFA731946FB7A4FF4CC7202FB03F30F4A13440B4A42F82130FB7A0133FB72FB7A2F2B02D8FB7B032BDCD9054B1846103712
:400CC000BD4680BDAFF300800000C0FFFFFFDF41F4E9FF1F000090400000244004EAFF1F80B483B000AF78607B6800225A707B680122DA707B6801229A707B680022DA80FE
:400D00000C37BD465DF8047B704700BF80B584B000AF0346FB710023FB7314E0FB7B4FF4CC7202FB03F30B4A1344BB60BB685B78DBB2FA799A4203D1B868FFF7D1FF05E0AF
:400D4000FB7B0133FB73FB7B2F2BE7D91037BD4680BD00BF04EAFF1F80B483B000AF00237B600023FB700023FB701CE0FB78134A2C2101FB03F313441B78DBB2012B0FD1BB
:400D8000FB780E4A2C2101FB03F3134403221A70FB782C2202FB03F3084A13447B6005E0FB780133FB70FB780F2BDFD97B6818460C37BD465DF8047B704700BF84360020E4
:400DC000B0B586B000AF0023FB75CEE2FB7D4FF4CC7202FB03F3B44A13443B613B69DB78DBB2032B40F0BE823B699B78DBB2013B072B00F2B78201A252F823F06513000012
:400E00001D0E0000470E0000710E00009B0E00004F0F0000B11000000B120000FB7D4FF4CC7202FB03F3A04A1344184600F0A8FAFB7D4FF4CC7202FB03F39B4A134418462B
:400E4000FFF74EFF8EE2FB7D4FF4CC7202FB03F3954A1344184600F0DFFAFB7D4FF4CC7202FB03F3904A13441846FFF739FF79E2FB7D4FF4CC7202FB03F38B4A13441846FC
:400E800000F02AFBFB7D4FF4CC7202FB03F3864A13441846FFF724FF64E21AF0B5F803461846FB7D804A4FF4CC7101FB03F3134408331B889BB21A464FF47A7303FB02F336
:400EC0000344FA7D78494FF4CC7000FB02F20A44D28892B29B1AFB60F8681BF02BFB02460B46104619464FF00002704B1BF0B2FC02460B4614461D46FB7D6B4A4FF4CC7172
:400F000001FB03F313449B889BB218461BF012FB02460B46204629461BF002FE0346002B00D11FE2FB7D4FF4CC7202FB03F35E4A1344184600F0D0FAFB7D4FF4CC7202FBCA
:400F400003F3594A13441846FFF7CAFE0AE21AF05BF803461846FB7D534A4FF4CC7101FB03F3134408331B889BB21A464FF47A7303FB02F30344FA7D4B494FF4CC7000FB1D
:400F800002F20A44D28892B29B1ABB60B8681BF0D1FA02460B46104619464FF00002434B1BF058FC02460B4614461D46FB7D3E4A4FF4CC7101FB03F3134408335B889BB285
:400FC00018461BF0B7FA02460B46204629461BF0A7FD0346002B00D1C4E1B8681BF0AAFA02460B46104619464FF000022F4B1BF031FC02460B4614461D46FB7D2A4A4FF43B
:40100000CC7101FB03F313449B889BB218461BF091FA02460B46204629461BF081FD0346002B00D19EE1FB7D4FF4CC7202FB03F31D4A1344184600F0EFF9FC7D19F0E4FFC6
:4010400003461946184A4FF4CC7303FB04F313440A46DA80FB7D144A4FF4CC7101FB03F31344083300221A80FB7D0F4A4FF4CC7101FB03F3134400229A80FB7D0A4A4FF473
:40108000CC7101FB03F313441B78DBB2002B0AD0FB7D4FF4CC7202FB03F3034A13441846FFF71EFE5EE15DE104EAFF1F00408F4019F0AAFF03461846FB7DAF4A4FF4CC71A3
:4010C00001FB03F3134408331B889BB21A464FF47A7303FB02F30344FA7DA7494FF4CC7000FB02F20A44D28892B29B1A7B6078681BF020FA02460B46104619464FF00002CD
:401100009E4B1BF0A7FB02460B4614461D46FB7D994A4FF4CC7101FB03F3134408335B889BB218461BF006FA02460B46204629461BF0F6FC0346002B00D113E178681BF03C
:40114000F9F902460B46104619464FF000028B4B1BF080FB02460B4614461D46FB7D864A4FF4CC7101FB03F313449B889BB218461BF0E0F902460B46204629461BF0D0FC34
:401180000346002B00D1EDE0FB7D4FF4CC7202FB03F3794A1344184600F0F8F9FC7D19F033FF03461946744A4FF4CC7303FB04F313440A46DA80FB7D6F4A4FF4CC7101FB99
:4011C00003F31344083300221A80FB7D6A4A4FF4CC7101FB03F3134400229A80FB7D664A4FF4CC7101FB03F313441B78DBB2002B0AD0FB7D4FF4CC7202FB03F35E4A134479
:401200001846FFF76DFDADE0ACE019F0FDFE03461846FB7D584A4FF4CC7101FB03F3134408331B889BB21A464FF47A7303FB02F30344FA7D50494FF4CC7000FB02F20A4488
:40124000D28892B29B1A3B6038681BF073F902460B46104619464FF00002484B1BF0FAFA02460B4614461D46FB7D434A4FF4CC7101FB03F3134408335B889BB218461BF050
:4012800059F902460B46204629461BF049FC0346002B00D165E038681BF04CF902460B46104619464FF00002344B1BF0D3FA02460B4614461D46FB7D2F4A4FF4CC7101FBFB
:4012C00003F313449B889BB218461BF033F902460B46204629461BF023FC0346002B00D13FE0FB7D4FF4CC7202FB03F3224A1344184600F0F1F8FC7D19F086FE034619460C
:401300001D4A4FF4CC7303FB04F313440A46DA80FB7D194A4FF4CC7101FB03F31344083300221A80FB7D144A4FF4CC7101FB03F3134400229A80FB7D0F4A4FF4CC7101FB0B
:4013400003F313441B78DBB2002B0AD0FB7D4FF4CC7202FB03F3084A13441846FFF7C0FCFFE700BFFB7D0133FB75FB7D2F2B7FF62DAD1837BD46B0BD04EAFF1F00408F409A
:4013800080B584B000AF78600023FB730023BB730023FB7337E00023BB732EE0FA7BBB7B1C492C2000FB02F213440B445B78002B00D125E0FA7BB97B164813469B0013443D
:4013C0005B0013440B4402339B0003445B68002B0FD0FA7BB97B0F4813469B0013445B0013440B4402339B0003445B687868984700E005E0BB7B0133BB73BB7B072BCDD9B8
:40140000FB7B0133FB73FB7B0F2BC4D91037BD4680BD00BF8436002080B584B000AF78600023FB730023BB7300237B730023BB734AE000237B733DE0BA7B7B7B25492C20B6
:4014400000FB02F213440B445B78002B00D134E0BA7B7B7B1F492C2000FB02F213440B445A787B685B78DBB29A4220D1BA7B797B184813469B0013445B0013440B44023394
:401480009B0003445B68002B0ED0BA7B797B114813469B0013445B0013440B4402339B0003445B68786898470123FB7305E07B7B01337B737B7B072BBED9FB7B002B00D058
:4014C00005E0BB7B0133BB73BB7B0F2BB1D91037BD4680BD8436002080B584B000AF78600023FB730023BB730023FB7345E00023BB733CE0FA7BBB7B23492C2000FB02F2CD
:4015000013440B445B78002B00D133E0FA7BBB7B1D492C2000FB02F213440B445A787B685B78DBB29A421FD1FA7BB97B164813469B0013445B0013440B4402339B000344E6
:401540005B68002B0FD0FA7BB97B0F4813469B0013445B0013440B4402339B0003445B687868984706E005E0BB7B0133BB73BB7B072BBFD9FB7B0133FB73FB7B0F2BB6D9FF
:401580001037BD4680BD00BF8436002080B584B000AF78600023FB730023BB730023FB7335E00023BB732CE0FA7BBB7B1B492C2000FB02F213440B445B78002B00D123E074
:4015C000FA7BB97B154813469B0013445B0013440B4402339B0003445B68002B0ED0FA7BB97B0E4813469B0013445B0013440B4402339B0003445B6878689847BB7B013368
:40160000BB73BB7B072BCFD9FB7B0133FB73FB7B0F2BC6D91037BD4680BD00BF8436002080B485B000AF78600023FB7325E0FB7B4FF4CC7202FB03F3144A1344BB60BB6882
:401640009B78DBB2072B0ED0BB689B78DBB2062B09D0BB689B78DBB2082B04D0BB689B78DBB2052B06D1BB681B899BB201339AB2BB681A81FB7B0133FB73FB7B2F2BD6D970
:401680001437BD465DF8047B704700BF04EAFF1F80B584B000AF78607B68FB60FB681B7B1846FFF733FB1037BD4680BD80B584B000AF78607B68FB60FB68D3F890311846DB
:4016C000FFF70EFB1037BD4680BD00BF80B400AF024B1846BD465DF8047B70474639002080B500AF19F044FA014B00221A7080BD74D4FF1F90B585B000AF0346FB8019F02E
:4017000037FAFB881B0A9BB2DAB21E4B1A70FB88DAB21C4B5A705420002119F0CFF80346BB81BB89002B2AD10023FB7308E0FB7B144AD35C184619F09DF9FB7B0133FB73DF
:40174000FB7B012BF3D95420012119F015F90346BB81BB89002B10D10223FB730AE0FC7B012019F0C7F903461A46064B1A55FB7B0133FB73FB7B412BF1D919F04FF91437D2
:40178000BD4690BD4439002080B582B000AF2C4B1B78DBB2002B04D019F0EAF9284B00221A701BF0FFFC034618461AF0C3FE02460B46104619464FF00002224B1AF020FFE8
:4017C00002460B46104619461BA3D3E900231BF041F802460B46104619461BF0ABF903469BB264339BB2BB800023FB8002E0FB880133FB80BB88FA889A42F8D3124B1B78FA
:40180000DBB203F01003002B0AD1104B1B78DBB283F00103DBB2002B02D00C4B01221A700A4B1B78DBB283F00103DBB2002BB8D10837BD4680BD00BF0000C0FFFFFFDF4147
:401840000483FF1F00408F40D949004074D4FF1F80B584B000AF0346FB800023FB73002019F0FAF90023BB8119F082F9FB881B0A9BB2DAB2184B1A70FB88DAB2164B5A70D8
:401880005420002119F01AF80346BB81BB89002B13D10023BB7308E0BB7B0F4AD35C184619F0E8F8BB7B0133BB73BB7B412BF3D919F0B4F8052017F027F8BB89002B04D019
:4018C000FB7B5A1CFA73092BCED9012019F0C4F91037BD4680BD00BF4439002080B500AF0248002142221BF054FC80BD4439002080B400AF024B1846BD465DF8047B7047E6
:401900008839002080B500AF0248002110221BF040FC80BD8839002080B582B000AF0023FB7119F025F96820002118F0C7FF0346BB71BB79002B53D1002019F09BF8FB7975
:401940005A1CFA711A46314B9B5C03F07F03DBB2184619F08FF8FB795A1CFA711A462B4B9B5C03F07F03DBB2184619F083F8FB795A1CFA711A46254B9B5C03F03F03DBB2DF
:40198000184619F077F8FB795A1CFA711A461F4B9B5C03F00703DBB2184619F06BF8FB795A1CFA711A46194B9B5C03F03F03DBB2184619F05FF8FB795A1CFA711A46134B44
:4019C0009B5C03F01F03DBB2184619F053F8FB795A1CFA711A460D4B9B5C184619F04AF819F01CF86820002118F068FF0346BB71BB79002B07D10E2019F03CF8042019F076
:401A000039F819F00BF80837BD4680BD8839002090B583B000AF19F0ABF86820002118F04DFF0346BB80BB88002B02D1002019F021F818F0F3FF19F09BF86820012118F0EA
:401A40003DFF0346BB80BB88002B1CD10023FB7116E0FB79052B08D8FC79012019F04AF803461A460A4B1A5507E0FC79002019F041F803461A46064B1A55FB790133FB71B9
:401A8000FB79062BE5D918F0C9FF0C37BD4690BD8839002080B582B000AF6820002118F00DFF0346FB71FB79002B07D10E2018F0E1FF042018F0DEFF18F0B0FF0837BD4668
:401AC00080BD00BF80B500AF16F078FB17F02AF817F050FD18F09EF817F000FA18F002FD00F014F8FEF702FE00F08CF8FEF76AFBFEF7EEFB0FF086F805F058FE0AF03EF8D5
:401B000001F000FE0AF04AF980BD00BF80B500AF19F02CFA044818F0CDFB19F0F1F8034819F064F980BD00BF311B0000711B000080B582B000AF19F039FA0420FEF788FFE5
:401B400078607B68002B08D07B6804225A707B6803229A707B680322DA70044B5B680133024A53600837BD4680BD00BFDC71002080B582B000AF19F0E3F80720FEF768FF03
:401B800078607B68002B08D07B6807225A707B6803229A707B680322DA700837BD4680BD80B584B000AF78600B467B8013467B700023FB730023BB811AE018F0D9FF07203D
:401BC000002118F07BFE0346FB73FB7B002B0CD17B78184618F04EFFBB897A6813441B78184618F047FF18F019FFBB890133BB81BA897B889A42E0D3FB7B18461037BD46E5
:401C000080BD00BF80B582B000AFFFF7A5F878607B68002B0FD00023FB70FB787A6813442B225A70FB785A1CFA707A6802339B001344044A5A600448FEF750FB0837BD46B7
:401C400080BD00BF651C00004D1C000080B500AF034B1B78DBB2002B01D016F00DFF80BD75D4FF1F80B500AF034B01221A700320002116F0BBFE80BD75D4FF1F80B582B08D
:401C800000AF78600B467B80184BDB889BB2002B07D0164BDB889BB27A889A4211D200231FE0124B9B68114A11687A88084679689847034683F00103DBB2002B01D0002398
:401CC0000FE07B880A4879681A461BF057FA074A7B88D380054B01221A71064B02221A60012318460837BD4680BD00BF98390020A439002080E100E080B584B000AF786090
:401D00007B68BB60BB68002B1CD0052016F0FCFD0023FB730FE0BB68D3F808319B6BFA7BB9680A44127910469847022016F0ECFDFB7B0133FB73FB7B9AB2BB685B889BB2B8
:401D40009A42E8D31037BD4680BD00BF80B586B000AF78607B683B613B69D3F89031FB604A200AF00FFF0246FB68DA61FB68DB6904337B617B69002B2AD025E0164BD3F83E
:401D8000403715489847B860BB68002B19D0BB6800221A70BB687A695A61BB6800229A61BB68FA68DA61BB68DB69D3F8903BBA68D26910469847084BD3F844370648B968FA
:401DC00098477B6934337B617B691B68002BD5D11837BD4680BD00BF7C6A002080B586B000AF78607B683B613B69D3F89031FB6044200AF0C7FE0246FB68DA61FB68DB69A5
:401E000004337B617B69002B2AD025E0164BD3F8403715489847B860BB68002B19D0BB6800221A70BB687A695A61BB6800229A61BB68FA68DA61BB68DB69D3F8903BBA68A4
:401E4000D26910469847084BD3F844370648B96898477B6934337B617B691B68002BD5D11837BD4680BD00BF7C6A002080B586B000AF78607B683B613B69D3F89031FB605C
:401E80003B691B7B18460AF07DFE0246FB68DA61FB68DB6904337B617B69002B2AD025E0164BD3F8403715489847B860BB68002B19D0BB6800221A70BB687A695A61BB6886
:401EC00000229A61BB68FA68DA61BB68DB69D3F8903BBA68D26910469847084BD3F844370648B96898477B6934337B617B691B68002BD5D11837BD4680BD00BF7C6A0020DC
:401F000080B586B000AF78607B683B613B69D3F89031FB604E200AF035FE0246FB68DA61FB68DB6904337B617B69002B2AD025E0164BD3F8403715489847B860BB68002B17
:401F400019D0BB6800221A70BB687A695A61BB6800229A61BB68FA68DA61BB68DB69D3F8903BBA68D26910469847084BD3F844370648B96898477B6934337B617B691B68E4
:401F8000002BD5D11837BD4680BD00BF7C6A002080B588B000AF78600023FB617B683B610023FB7636E0FB7E444A40F6983101FB03F3134408331B79DBB2012B27D1FB7E18
:401FC00040F6983202FB03F33C4A1344FB61FB7E3A4A40F6983101FB03F31344083302221A71FB7E0133364A9278934203DB334B01221A7313E0FB7E0133304A40F6983155
:4020000001FB03F31344083301221A7107E0FB7E0133FB762A4B9B78FA7E9A42C3D3FB69002B48D0FB6901225A7149200AF0AAFD0246FB69DA61FB69DB6904337B617B696E
:40204000002B32D02DE01F4BD3F840371D489847F860FB68002B21D0FB6800221A70FB687A695A61FB6800229A61FB68FA69DA61FB68DB69D3F8903BFA68D26910469847BF
:402080003B69D3F89421FB681A62FB683A695A620C4BD3F844370B48F96898477B6934337B617B691B68002BCDD1F86900F00CF8F86900F0C9F82037BD4680BD083C002072
:4020C000686A00207C6A002080B586B000AF78607B683B613B699B78DBB20B2B04D03B699B78DBB20A2B54D13B691B7ADBB2002B4FD04B200AF046FD02463B69DA613B6908
:40210000DB6904337B617B69002B2AD025E0224BD3F8403720489847F860FB68002B19D0FB6800221A70FB687A695A61FB6800229A61FB683A69DA61FB68DB69D3F8903B67
:40214000FA68D26910469847134BD3F844371248F96898477B6934337B617B691B68002BD5D11320FEF768FBB860BB6813225A70BB6803229A703B691A78BB681A73BB68D0
:402180000122A3F88C21BB680322DA703B6900221A721837BD4680BD7C6A002080B586B000AF78607B683B613B699B78DBB20B2B04D03B699B78DBB20A2B38D14C200AF094
:4021C000E1FC02463B69DA613B69DB6904337B617B69002B2AD025E01A4BD3F8403719489847F860FB68002B19D0FB6800221A70FB687A695A61FB6800229A61FB683A6986
:40220000DA61FB68DB69D3F8903BFA68D269104698470C4BD3F844370A48F96898477B6934337B617B691B68002BD5D107E03B699B78DBB2092B02D13B6901221A721837F2
:40224000BD4680BD7C6A002080B586B000AF78607B683B613B699B78DBB2062B04D03B699B78DBB2072B3CD13B695B7ADBB2002B37D047200AF086FC02463B69DA613B69F5
:40228000DB6904337B617B69002B2AD025E0164BD3F8403714489847F860FB68002B19D0FB6800221A70FB687A695A61FB6800229A61FB683A69DA61FB68DB69D3F8903BFE
:4022C000FA68D26910469847074BD3F844370648F96898477B6934337B617B691B68002BD5D11837BD4680BD7C6A002080B588B000AF78607B687B613D4B9B78002B02D1A6
:402300003B4B01225A700023FB770023BB775BE0BB7F40F6983202FB03F3364A13443B613B69002B4DD03869FFF738FFFB7F83F00103DBB2002B44D03B6903F120027B6950
:402340000C33104619464FF4C0721AF017FF51200AF018FC02463B69DA613B69DB690433BB61BB69002B2AD025E0234BD3F8403721489847F860FB68002B19D0FB68002259
:402380001A70FB68BA695A61FB6800229A61FB683A69DA61FB68DB69D3F8903BFA68D26910469847144BD3F844371348F9689847BB693433BB61BB691B68002BD5D10123FF
:4023C000FB77BB7F0133BB77094B9B78BA7F9A429ED30A4B1B68002B03D0084B1B68786998477B6901221A702037BD4680BD00BF686A0020083C00207C6A002078D4FF1FC5
:4024000080B588B000AF78607B687B610023FB777AE0FB7F40F6983202FB03F3404A13443B613B69002B6CD00023BB77FB7F032B1AD801A252F823F0492400005124000034
:402440005924000061240000364BDB78BB770BE0344B1B79BB7707E0324B5B79BB7703E0304B9B79BB7700BF3B690022DA7000237B7742E03B692033184600214FF4C07225
:402480001AF087FE46200AF07DFB02463B69DA613B69DB690433BB61BB69002B2AD025E0214BD3F8403720489847F860FB68002B19D0FB6800221A70FB68BA695A61FB688E
:4024C00000229A61FB683A69DA61FB68DB69D3F8903BFA68D26910469847134BD3F844371148F9689847BB693433BB61BB691B68002BD5D17B7F01337B777A7FBB7F9A42E4
:40250000B8D3FB7F0133FB77064B9B78FA7F9A42FFF47FAF7B6901221A702037BD4680BD083C0020686A00207C6A002090B58DB000AF78607B68BB62BB6A1B7B184600F080
:40254000F5FB78627B6A002B00F0A081BB6A5A7B7B6ADA70FFF718F9FFF7C0F97B6A1B78184600F089FB03467B847B8C1846FFF7C1F87B6ADB78DBB2032B00F2458101A29D
:4025800052F823F0952500002F260000CD2600006B270000A64BDB79032B3AD1A44B1B7A022B36D1BB6A03F10E02BB6A1B7D9BB210461946FEF702F8F861FB699D4AA2FBDC
:4025C0000323DB08184619F0A5FF02460B461046194618F031FD02460B46104619461AF0A9FA0346FB61BB6A03F10E02BB6A1B7D104600211A461AF0CCFDFB691A464FF010
:402600000003B96A01F10E04104619462246FDF7A9FEFFF75BF80146BB6A03F10E02BB6A1B7D084611461A461AF0A8FDECE0804BDB79032B3AD17E4B1B7A022B36D1BB6AB3
:4026400003F10E02BB6A1B7D9BB210461946FDF7B5FFB861BB69774AA2FB0323DB08184619F058FF02460B461046194618F0E4FC02460B46104619461AF05CFA0346BB6144
:40268000BB6A03F10E02BB6A1B7D104600211A461AF07FFDBB691A464FF00003B96A01F10E04104619462246FDF75CFEFFF70EF8034603F11001BB6A03F10E02BB6A1B7D4F
:4026C000084611461A461AF059FD9DE0584BDB79032B3AD1564B1B7A022B36D1BB6A03F10E02BB6A1B7D9BB210461946FDF766FF78617B694F4AA2FB0323DB08184619F0BA
:4027000009FF02460B461046194618F095FC02460B46104619461AF00DFA03467B61BB6A03F10E02BB6A1B7D104600211A461AF030FD7B691A464FF00003B96A01F10E0485
:40274000104619462246FDF70DFEFEF7BFFF034603F12001BB6A03F10E02BB6A1B7D084611461A461AF00AFD4EE0314BDB79032B3AD12F4B1B7A022B36D1BB6A03F10E028D
:40278000BB6A1B7D9BB210461946FDF717FF38613B69284AA2FB0323DB08184619F0BAFE02460B461046194618F046FC02460B46104619461AF0BEF903463B61BB6A03F137
:4027C0000E02BB6A1B7D104600211A461AF0E1FC3B691A464FF00003B96A01F10E04104619462246FDF7BEFDFEF770FF034603F13001BB6A03F10E02BB6A1B7D08461146B8
:402800001A461AF0BBFC00BF7B8C1846FFF720F8FEF766FF46200AF0B5F902467B6ADA617B6ADB690433FB62FB6A002B2ED029E0686A0020CDCCCCCC174BD3F840371648FC
:402840009847F860FB68002B19D0FB6800221A70FB68FA6A5A61FB6800229A61FB687A6ADA61FB68DB69D3F8903BFA68D26910469847094BD3F844370748F9689847FB6A7A
:402880003433FB62FB6A1B68002BD5D1BB6A01221A703437BD4690BD7C6A002080B586B000AF78607B683B613B691B7B184600F03DFAF860FB68002B37D048200AF062F92E
:4028C0000246FB68DA61FB68DB6904337B617B69002B2AD025E0184BD3F8403716489847B860BB68002B19D0BB6800221A70BB687A695A61BB6800229A61BB68FA68DA6169
:40290000BB68DB69D3F8903BBA68D26910469847094BD3F844370848B96898477B6934337B617B691B68002BD5D13B6901221A701837BD4680BD00BF7C6A002080B586B0AF
:4029400000AF7860FEF720FFFEF7C8FF4FF40070FEF7D0FEFEF7BAFE034600221A704FF40070FEF775FFFEF7B9FF4FF41070FEF7C1FEFEF7ABFE034600221A704FF4107052
:40298000FEF766FFFEF7AAFF4FF42070FEF7B2FEFEF79CFE034600221A704FF42070FEF757FFFEF79BFF4FF43070FEF7A3FEFEF78DFE034600221A704FF43070FEF748FF69
:4029C000FEF78EFE2E4B00229A702E4B3B613B69002B51D03B692033184600214FF4B4721AF0D7FB4D200AF0CDF802463B69DA613B69DB6904337B617B69002B3CD037E071
:402A0000214BD3F8403720489847F860FB68002B2BD0FB6801221A70FB687A695A61FB6800229A61FB683A69DA61FB68DB69D3F8903BFA68D26910469847FB68DB69012215
:402A400083F8382BFB68DB69002283F8392BFB68DB69FA68D26992F8382BD2B21A700A4BD3F844370848F96898477B6934337B617B691B68002BC3D11837BD4680BD00BFCB
:402A8000686A0020083C00207C6A002090B583B000AF7860FEF778FEFEF720FF4FF4E070FEF728FEFEF712FE03465A7A6D4B9A74FEF70CFE03469A7A6B4B1A71FEF706FE10
:402AC00003460B331B78002B04D0FEF7FFFD0346DB7A00E01623654A1370FEF7F7FD03460C331B78002B04D0FEF7F0FD03461B7B00E018235D4A5370FEF7F0FE4FF4A07064
:402B0000FEF7F8FDFEF7E2FD034601331B781B029CB2FEF7DBFD03461B789BB2224613439BB29AB2524B1A80FEF7D8FE4FF4A070FEF7E0FDFEF7CAFD03460233184600212F
:402B400010221AF026FBFEF7C1FD0346023300221A70FEF7BBFD0346033300221A70FEF7B5FD0346043305221A70FEF7AFFD0346053300221A704FF4A070FEF769FEFEF7F9
:402B8000A5FD0346023318460821FDF717FD03469AB2344B9A81FEF7A1FE4FF4C070FEF7A9FDFEF793FD034618460821FDF706FD03469AB22B4BDA81FEF790FE4FF40070AD
:402BC000FEF798FDFEF782FD034605331B78002B0CBF01230023DAB2264B5A73FEF77EFE4FF41070FEF786FDFEF770FD034605331B78002B0CBF01230023DAB21D4B83F8EE
:402C0000A52BFEF76BFE4FF42070FEF773FDFEF75DFD034605331B78002B0CBF01230023DAB2144B03F5B9531D331A70FEF756FE4FF43070FEF75EFDFEF748FD034605338E
:402C40001B78002B0CBF01230023DAB2094B03F50B5315331A70FEF71DFFFEF741FD0C37BD4690BD686A0020D0710020043C0020D0D3FF1F083C002080B485B000AF03466C
:402C8000FB710023FB81274B9B78022B02D0042B14D03FE0244B1B78FA799A4203D14FF48063FB8109E0204B93F8983BFA799A4203D14FF48863FB812CE02BE01A4B1B78FE
:402CC000FA799A4203D14FF48063FB8121E0164B93F8983BFA799A4203D14FF48863FB8117E0114B03F5B95310331B78FA799A4203D14FF49063FB810BE00B4B03F50B53E9
:402D000008331B78FA799A4203D14FF49863FB81FFE700BFFB8918461437BD465DF8047B704700BF686A0020083C002080B485B000AF0346FB710023FB600023FB7216E0A2
:402D4000FB7A114A40F6983101FB03F313441B78FA799A4208D1FB7A40F6983202FB03F3094A1344FB6007E0FB7A0133FB72074B9B78FA7A9A42E3D3FB6818461437BD469C
:402D80005DF8047B704700BF083C0020686A002080B588B000AF78607B683B610023FB61584BBB612E2007F0B1F803461A463B6913441B7BFB730FE0BB691B78012B08D181
:402DC000BB695B78FA7B9A4203D1BB695B68FB6106E0BB690833BB61BB691B78FF2BEBD1FB69002B00F08A80FB6903F120023B690C33104619464FF4C0721AF0BFF90B2079
:402E000007F084F803461A46FB69134493F82030392B0CBF01230023DAB2FB69DA73042007F074F803461A463B6913441B7BBB73BB7B0D2B24D1052007F068F803461A46B6
:402E40003B6913441B7B7B734A2009F09BFE0246FB69DA61FB690A229A71FB697A7BDA71072007F053F803461A46FB69134493F8203003F00F03DAB2FB6983F87A2B0BE009
:402E8000BB7B0E2B08D14A2009F07CFE0246FB69DA61FB690B229A71FB6900229A72FB69DB6904337B617B69002B27D022E0164BD3F8403714489847B860BB68002B16D0EB
:402EC000BB687A695A61BB6800229A61BB68FA69DA61BB68DB69D3F8903BBA68D26910469847094BD3F844370748B96898477B6934337B617B691B68002BD8D12037BD46DC
:402F000080BD00BF0883FF1F7C6A002080B588B000AF78607B683B610023FB61584BBB612E2006F0F3FF03461A463B6913441B7BFB730FE0BB691B78022B08D1BB695B78B4
:402F4000FA7B9A4203D1BB695B68FB6106E0BB690833BB61BB691B78FF2BEBD1FB69002B00F08A80FB6903F120023B690C33104619464FF4C0721AF001F90B2006F0C6FFF1
:402F800003461A46FB69134493F82030392B0CBF01230023DAB2FB69DA73042006F0B6FF03461A463B6913441B7BBB73BB7B0D2B24D1052006F0AAFF03461A463B6913441D
:402FC0001B7B7B734A2009F0DDFD0246FB69DA61FB690A229A71FB697A7BDA71072006F095FF03461A46FB69134493F8203003F00F03DAB2FB6983F87A2B0BE0BB7B0E2B8B
:4030000008D14A2009F0BEFD0246FB69DA61FB690B229A71FB6900229A72FB69DB6904337B617B69002B27D022E0164BD3F8403714489847B860BB68002B16D0BB687A6991
:403040005A61BB6800229A61BB68FA69DA61BB68DB69D3F8903BBA68D26910469847094BD3F844370748B96898477B6934337B617B691B68002BD8D12037BD4680BD00BF64
:403080000883FF1F7C6A0020B0B582B000AF3A4BD3F848373848984778607B68002B68D07B689B69002B64D07B689B691B8A002B5FD017F07DFE03461A467B685B8A9BB263
:4030C00019464FF47A7303FB01F313447A68128A92B29B1A3B60386819F02CFA02460B46104619464FF00002244B19F0B3FB02460B4614461D467B689B691B8A184619F019
:4031000019FA02460B462046294619F009FD0346002B2ED07B6800225A827B6800221A827B68DB899BB201339AB27B68DA817B689B699B68002B04D07B689B699B68786806
:4031400098477B68DB899BB2142B07D90A4BD3F84C370948984700237B6006E07B689A697B685A617B6800229A6116F09BF815F0F1FE0837BD46B0BD7C6A002000408F4031
:4031800080B582B000AF8A4B1B79DBB283F00103DBB2002B00D042E1864BD3F848378548984778607B68002B00F01F817B689B69002B00F01A817B6800225A827B68002221
:4031C0001A827B68DB6903F5C472794BDB889BB2104679491A4619F0D1FF7B68DB69744AD28892B2A3F8F0220023FB700023BB7000237B7000233B7066E07B689A693B7852
:40320000134493F82630FF2B5AD00123BB70FB7883F00103DBB2002B06D07B689A693B78134493F82230FB707B689B695B68786898477B68DB699B78DAB27B6899693B783C
:403240000B4493F826309A423BD17B681B78DBB283F00103DBB2002B13D07B689B691B6B002B04D07B689B691B6B786898477B681B6A002B05D07B681B6A7A68526A1046C5
:4032800098477B681B78DBB283F00103DBB2002B07D0484BD3F84C374648984700237B600BE07B689A697B685A617B6800229A61404BD3F83C373F48984701237B7006E047
:4032C00005E03B7801333B703B78032B95D9BB7883F00103DBB2002B38D07B689B695B68786898477B681B78DBB283F00103DBB2002B13D07B689B691B6B002B04D07B68D1
:403300009B691B6B786898477B681B6A002B05D07B681B6A7A68526A104698477B681B78DBB283F00103DBB2002B07D0214BD3F84C372048984700237B6056E07B689A697D
:403340007B685A617B6800229A614EE07B7883F00103DBB2002B48D0FB78002B07D0154BD3F84C371348984700237B603DE07B689B695B7E002B21D07B681B899BB2132BE1
:4033800007D90C4BD3F84C370A48984700237B602BE07B681B899BB201339AB27B681A817B689A697B685A617B6800229A611CE0983900207C6A0020A43900207B685B8941
:4033C0009BB2002B05D117F0F3FC03461A467B685A817B689A697B685A617B6800229A61104BD3F83C370F4898470F4B00221A710D4B0022DA800D4800214FF4007219F0C0
:40340000C8FE7B68DB6903F5C473184600214FF4B47219F0BEFE15F045FF15F09BFD0837BD4680BD7C6A002098390020A439002080B584B000AF78601B4B1B8801339AB2F1
:40344000194B1A80194BD3F8483718489847F860FB68002B1BD0FB689B69002B17D0FB689B691B8A002B06D0FB685B8A9BB201339AB2FB685A82FB689B695B69002B06D08A
:40348000FB689B899BB201339AB2FB689A8117F08FFC03461A46064B1A80034B00221A801037BD4680BD00BF7ED4FF1F7C6A00207CD4FF1F80B582B000AF8F4BD3F84837A6
:4034C0008D48984778607B68002B00F011817B685B69002B00F00C810023FB700023BB7000237B70854B00221A71844B0022DA80834800214FF4007219F04BFE7B68DB6995
:4035000003F5C473184600214FF4B47219F041FE00233B7079E07B685A693B7813449B7FFF2B6ED00123BB70FB7883F00103DBB2002B05D07B685A693B7813449B7EFB70D9
:403540007B68DB699B78DAB27B6859693B780B449B7F9A4256D17B685B69DB6A002B06D07B685B69DB6A7A68D269104698477B685B695B68002B29D07B68DB695F4A1360C5
:403580007B685B691B7E002B06D07B685B691B7E9AB25A4BDA8004E07B685B69DB68574A93607B685B691B687A68D269104698477B685A697B689A617B6800225A6117F016
:4035C000F7FB03461A467B681A8217E07B685B691B687A68D269104698477B681B6A002B05D07B681B6A7A68526A10469847424BD3F84C374048984700237B6001237B704C
:4036000006E005E03B7801333B703B78032B82D9BB7883F00103DBB2002B53D07B685B69DB6A002B06D07B685B69DB6A7A68D269104698477B685B695B68002B29D07B68D0
:40364000DB692E4A13607B685B691B7E002B06D07B685B691B7E9AB2284BDA8004E07B685B69DB68254A93607B685B691B687A68D269104698477B685A697B689A617B686E
:4036800000225A6117F094FB03461A467B681A822EE07B685B691B687A68D269104698477B681B6A002B05D07B681B6A7A68526A10469847104BD3F84C370F489847002340
:4036C0007B6015E07B7883F00103DBB2002B0FD0FB78002B07D0084BD3F84C370648984700237B6004E0044BD3F83C37024898470837BD4680BD00BF7C6A002098390020E9
:40370000A439002080B584B000AF08F025FDFDF723FBF860FB68002B71D00023FB72FB7AFA68134420225A70FB7A5A1CFA72FA6802339B001344A74A5A60FB7AFA6813449E
:4037400024225A70FB7A5A1CFA72FA6802339B001344A14A5A60FB7AFA68134407225A70FB7A5A1CFA72FA6802339B0013449B4A5A60FB7AFA68134408225A70FB7A5A1C07
:40378000FA72FA6802339B001344954A5A60FB7AFA6813440D225A70FB7A5A1CFA72FA6802339B0013448F4A5A60FB7AFA68134409225A70FB7A5A1CFA72FA6802339B0035
:4037C0001344894A5A60FB7AFA6813440A225A70FB7A5A1CFA72FA6802339B001344834A5A60FB7AFA6813440B225A70FB7A5A1CFA72FA6802339B0013447D4A5A60FDF7E0
:40380000ABFAF860FB68002B71D00023BB72BB7AFA6813440E225A70BB7A5A1CBA72FA6802339B001344734A5A60BB7AFA6813440F225A70BB7A5A1CBA72FA6802339B00BB
:4038400013446D4A5A60BB7AFA68134410225A70BB7A5A1CBA72FA6802339B001344674A5A60BB7AFA68134412225A70BB7A5A1CBA72FA6802339B001344614A5A60BB7AE5
:40388000FA68134413225A70BB7A5A1CBA72FA6802339B0013445B4A5A60BB7AFA68134411225A70BB7A5A1CBA72FA6802339B001344554A5A60BB7AFA68134414225A70FF
:4038C000BB7A5A1CBA72FA6802339B0013444F4A5A60BB7AFA68134415225A70BB7A5A1CBA72FA6802339B001344494A5A60FCF7A3FF78607B68002B0CD07B680E225A7045
:403900007B6842F210729A807B6805229A707B680322DA70FCF790FF78607B68002B0CD07B680F225A707B6843F698229A807B6805229A707B680322DA70FCF77DFF7860AF
:403940007B68002B0CD07B682B225A707B6844F620629A807B6805229A707B680322DA70FCF76AFF78607B68002B0FD07B6808225A707B6844F620629A807B68FA225A81B9
:403980007B6806229A707B680322DA70FCF754FF78607B68002B0ED07B6814225A707B6800229A807B6814225A817B6806229A707B680322DA7017F0FBF903461A46154B35
:4039C0001A801548FCF78AFC1448FCF787FC1037BD4680BD912D00000D2F000031340000911F00008D2A00004D1D00006D1E0000DD1D00003D290000ED22000001240000AF
:403A00002D2500009D28000049220000B5340000011F00007CD4FF1F893000008131000090B58DB004AF786003233B724FF6FF73BB810023FB81C523BB72294BFB617B68E8
:403A4000BB61BB691B78002B24D1A320FCF760FB78617B69002B1CD07B691C1DF86919F00DFC03469BB2009301AA07F1080393E8030082E803002020EA212246FB6904F011
:403A80004BF903461A467B695A807B69C2221A7023E022E0A420FCF73BFB38613B69002B1BD03B691C1DF86919F0E8FB03469BB2009301AA07F1080393E8030082E80300D8
:403AC0002020EA212246FB6904F026F903461A463B695A803B69C2221A702437BD4690BDA8DA010090B585B000AF78607B68FB60FB681B78002B48D1FB681C6B2E2006F08E
:403B000005FA034623441B7B562B19D1FDF73CFEFDF7E4FE4FF40070FDF7ECFDFDF7D6FD03465B79FB72FDF7DBFDFB7A002B03D1FB68A5221A7173E0FB68A6221A716FE0A3
:403B4000FB681C6B2E2006F0E1F9034623441B7B572B19D1FDF718FEFDF7C0FE4FF42070FDF7C8FDFDF7B2FD03465B79BB72FDF7B7FDBB7A002B03D1FB68A5221A7103E0E2
:403B8000FB68A6221A714BE04AE0FB681B78012B46D1FB681C6B2E2006F0B8F9034623441B7B562B19D1FDF7EFFDFDF797FE4FF43070FDF79FFDFDF789FD03465B797B72D1
:403BC000FDF78EFD7B7A002B03D1FB68A5221A7126E0FB68A6221A7122E0FB681C6B2E2006F094F9034623441B7B572B18D1FDF7CBFDFDF773FE4FF41070FDF77BFDFDF72F
:403C000065FD03465B793B72FDF76AFD3B7A002B03D1FB68A5221A7102E0FB68A6221A711437BD4690BD00BFB0B586B000AF78607B687B61786906F0B1F903461A4640F661
:403C4000983303FB02F3464A13443B613B69002B00F083803B69D3F8143B386998473B69D3F8283B38699847F8603B69D3F8183B38699847FB68002B6FD00023FB72FB6857
:403C8000E3225A70FB7A5A1CFA7219463B691A78FB680B449A70FB7AFA6813449D1C7B691C6B242006F032F90346083323441C1D242006F04FF90346284621461A4619F0A9
:403CC0005DFA242006F046F903461A46FB7A1344FB72FB7AFA6813449D1C7B691C6B252006F014F90346083323441C1D252006F031F90346284621461A4619F03FFAFB7ABA
:403D0000FA6813449C1CFB7AFA6813440233184619F0B4FA0346DBB220461946FCF710FC252006F017F903461A46FB7A1344FB72FB7A9AB2FB68A3F802213B69D3F8143B33
:403D4000386998473B69D3F8203B3869F96898473B69D3F8183B386998471837BD46B0BD083C0020B0B590B004AF786003233B724FF6FF73BB810023FB818523BB727B6866
:403D8000FB62FDF701FDFDF7A9FD4FF4E070FDF7B1FCFDF79BFC03461B7A87F82B30FDF79FFCFB6A1B78002B47D1A320FCF7B0F978627B6A002B3FD007F1100318460021F7
:403DC000102219F0E6F997F82B30012B09D197F82B3007F1100210463C491A4619F01CFA08E097F82B3007F11002104638491A4619F012FA7B6A1D1D07F11003184619F0B2
:403E00003DFA03469BB207F11004009301AA07F1080393E8030082E80300F0204FF495712A46234603F078FF03461A467B6A5A807B6AC2221A7046E045E0A420FCF768F9C3
:403E400038623B6A002B3ED007F1100318460021102219F09EF997F82B30012B09D197F82B3007F11002104618491A4619F0D4F908E097F82B3007F11002104614491A46AE
:403E800019F0CAF93B6A1D1D07F11003184619F0F5F903469BB207F11004009301AA07F1080393E8030082E80300F0204FF495712A46234603F030FF03461A463B6A5A80AD
:403EC0003B6AC2221A703037BD46B0BDD0DA0100DCDA010090B58DB004AF786003233B724FF6FF73BB810023FB81C523BB72294BFB617B68BB61BB691B78002B24D1A32086
:403F0000FCF706F978617B69002B1CD07B691C1DF86919F0B3F903469BB2009301AA07F1080393E8030082E803006020EA212246FB6903F0F1FE03461A467B695A807B6942
:403F4000C2221A7023E022E0A420FCF7E1F838613B69002B1BD03B691C1DF86919F08EF903469BB2009301AA07F1080393E8030082E803006020EA212246FB6903F0CCFE47
:403F800003461A463B695A803B69C2221A702437BD4690BDE8DA0100F0B58FB004AF786003233B734FF6FF733B8200237B82C523BB734F4BBB607B687B627B6A1B78002B55
:403FC0004AD1A320FCF7A4F838623B6A002B42D00023FB77BA23BB833B6A00225A803B6A5B889BB21A463B6A13441D1DFB7F9B0007F12802134453F8204CFB7F9B0007F1CA
:404000002802134453F8203C184619F037F903469BB2BE8B009301AA07F10C0393E8030082E803001A2031462A46234603F074FE03461A463B6A5B889BB213449AB23B6AFD
:404040005A80BB8B2033BB83FB7F0133FB773B6AC2221A7049E048E0A420FCF759F8B861BB69002B41D00023FB75BA23BB82BB6900225A80BB695B889BB21A46BB6913448E
:404080001D1DFB7D9B0007F12802134453F8204CFB7D9B0007F12802134453F8203C184619F0ECF803469BB2BE8A009301AA07F10C0393E8030082E803001A2031462A46D6
:4040C000234603F029FE03461A46BB695B889BB213449AB2BB695A80BB8A2033BB82FB7D0133FB75BB69C2221A702C37BD46F0BDA8DB01002DE9F04196B004AF7860032347
:404100003B7500233B834FF6FF737B838523BB75002387F847300023A7F844300023A7F842307B68FB63F86B05F038FF0346032B3ED801A252F823F0494100006341000053
:404140007D41000097410000BD4BDB7887F847304FF40073A7F844304FF44073A7F8423026E0B74B1B7987F847304FF41073A7F844304FF45073A7F8423019E0B04B5B793E
:4041800087F847304FF42073A7F844304FF46073A7F842300CE0AA4B9B7987F847304FF43073A7F844304FF47073A7F8423000BFFB6B1B78002B40F00881FDF7E5FAFDF77B
:4041C0008DFBB7F844301846FDF794FAFDF77EFA03465A1C07F1100310681860FDF780FAFDF7D2FAFDF77AFBB7F842301846FDF781FA002387F84130DDE097F8413007F1C1
:404200004802134413F8383C013B032B00F2CE8001A252F823F000BF2942000087420000E94200004B430000A320FBF771FFB863BB6B002B26D097F84130824A32F8236008
:4042400097F841307F4A9B0013445D88BB6B1C1DFDF73CFA86461023009301AA07F1140393E8030082E80300304629462246734603F052FD03461A46BB6B5A80BB6BC222E3
:404280001A7093E092E0A320FBF742FF78637B6B002B28D097F841306A4A32F8238097F84130684A9B0013445E887B6B1D1DFDF70DFA034603F110041023009301AA07F1D5
:4042C000140393E8030082E80300404631462A46234603F021FD03461A467B6B5A807B6BC2221A7062E061E0A320FBF711FF38633B6B002B28D097F84130524A32F8238003
:4043000097F841304F4A9B0013445E883B6B1D1DFDF7DCF9034603F120041023009301AA07F1140393E8030082E80300404631462A46234603F0F0FC03461A463B6B5A80B9
:404340003B6BC2221A7031E030E0A320FBF7E0FEF862FB6A002B28D097F84130394A32F8238097F84130374A9B0013445E88FB6A1D1DFDF7ABF9034603F13004102300937C
:4043800001AA07F1140393E8030082E80300404631462A46234603F0BFFC03461A46FB6A5A80FB6AC2221A70FFE700BF97F84130013387F8413097F8412097F847309A427E
:4043C000FFF41BAFFDF78CF90EE1FB6B1B78012B40F00A81FDF7D8F9FDF780FAB7F844301846FDF787F9FDF771F903465A1C07F10C0310681860FDF773F9FDF7C5F9FDF776
:404400006DFAB7F842301846FDF774F9002387F84030E0E097F8403007F14802134413F83C3C013B032B00F2D18001A252F823F049440000A7440000094500006B45000025
:40444000686A0020BC83FF1FA420FBF761FEB862BB6A002B26D097F84030654A32F8236097F84030624A9B0013445D88BB6A1C1DFDF72CF986461023009301AA07F11403D8
:4044800093E8030082E80300304629462246734603F042FC03461A46BB6A5A80BB6AC2221A7093E092E0A420FBF732FE78627B6A002B28D097F840304D4A32F8238097F800
:4044C00040304B4A9B0013445E887B6A1D1DFDF7FDF8034603F110041023009301AA07F1140393E8030082E80300404631462A46234603F011FC03461A467B6A5A807B6AF8
:40450000C2221A7062E061E0A420FBF701FE38623B6A002B28D097F84030354A32F8238097F84030324A9B0013445E883B6A1D1DFDF7CCF8034603F120041023009301AA6C
:4045400007F1140393E8030082E80300404631462A46234603F0E0FB03461A463B6A5A803B6AC2221A7031E030E0A420FBF7D0FDF861FB69002B28D097F840301C4A32F84F
:40458000238097F840301A4A9B0013445E88FB691D1DFDF79BF8034603F130041023009301AA07F1140393E8030082E80300404631462A46234603F0AFFB03461A46FB699C
:4045C0005A80FB69C2221A70FFE700BF97F84030013387F8403097F8402097F847309A42FFF418AFFDF77CF84837BD46BDE8F081BC83FF1FF0B58FB004AF786003233B731D
:404600004FF6FF733B8200237B82C523BB734F4BBB607B687B627B6A1B78002B4AD1A320FBF776FD38623B6A002B42D00023FB77BA23BB833B6A00225A803B6A5B889BB2D3
:404640001A463B6A13441D1DFB7F9B0007F12802134453F8204CFB7F9B0007F12802134453F8203C184618F009FE03469BB2BE8B009301AA07F10C0393E8030082E80300AE
:404680001A2031462A46234603F046FB03461A463B6A5B889BB213449AB23B6A5A80BB8B2033BB83FB7F0133FB773B6AC2221A7049E048E0A420FBF72BFDB861BB69002BFB
:4046C00041D00023FB75BA23BB82BB6900225A80BB695B889BB21A46BB6913441D1DFB7D9B0007F12802134453F8204CFB7D9B0007F12802134453F8203C184618F0BEFDDC
:4047000003469BB2BE8A009301AA07F10C0393E8030082E803001A2031462A46234603F0FBFA03461A46BB695B889BB213449AB2BB695A80BB8A2033BB82FB7D0133FB756A
:40474000BB69C2221A702C37BD46F0BDD0DB010090B585B000AF78607B68FB60F86805F01DFC03461A4640F6983303FB02F31C4A1344BB60BB6893F8783BDBB2002B28D0B5
:40478000BB68002283F8782BFB681C6B0B2005F0BDFB0346083323441C1D0B2005F0DAFB0346204600211A4618F0F3FCFB681C6B0B2005F0ABFB0346234439221A73FB68E9
:4047C0001C6B052005F0A2FB0346234444221A7302E0BB6808229A731437BD4690BD00BF083C0020B0B588B000AF78607B68BB61B86905F0D3FB03461A4640F6983303FB2F
:4048000002F3844A13447B617B69D3F8143B786998477B69D3F8283B7869984738617B69D3F8183B786998473B69002B00F0EE800023FB773B69A2225A70FB7F5A1CFA7742
:4048400019467B691A783B690B449A70FB7F5A1CFA771D46BB691C6B072005F057FB034623441A7B3B692B449A70FB7F3A6913449D1CBB691C6B122005F048FB0346083361
:4048800023441C1D122005F065FB0346284621461A4618F073FCFB7F3A6913449C1C122005F058FB034620461946FBF749FE122005F050FB03461A46FB7F1344FB77FB7F17
:4048C0000133FB77FB7F3A6913449D1CBB691C6B0E2005F01BFB0346083323441C1D0E2005F038FB0346284621461A4618F046FCFB7F3A6913449C1C0E2005F02BFB034601
:4049000020461946FBF71CFE0E2005F023FB03461A46FB7F1344FB77BB691C6B052005F0F5FA034623441B7BFB73FB7B102B0CD0432B13D00F2B1AD1FB7F5A1CFA771A464D
:404940003B69134402229A7011E0FB7F5A1CFA771A463B69134401229A7008E0FB7F5A1CFA771A463B69134403229A7000BFFB7F3A6913449D1CBB691C6B062005F0C6FAEF
:40498000034608332344043328461946082218F0F5FBFB7B102B07D1FB7F3A69134402331846082102F04CFCFB7F3A691344023318460821FBF7C4FDFB7F0833FB77BB69C5
:4049C0001C6B062005F0A2FA034608332344043318460021082218F0DCFBFB7F9AB23B69A3F802217B69002283F8782B7B69D3F8143B786998477B69D3F8203B7869396938
:404A000098477B69D3F8183B786998472037BD46B0BD00BF083C0020F0B58BB004AF78607B687B617B69002B65D07B691B699A8D7B691A837B691B69DA8D7B695A837B69F9
:404A40001B78002B2CD1A320FBF762FB38613B69002B24D07B69B3F818E07B695E8B3B691D1D7B6903F11D047B691B6993F830309BB27A691269009301AB32321068516810
:404A800003C3704631462A46234603F045F903461A463B695A803B69C2221A702BE02AE0A420FBF735FBF860FB68002B23D07B69B3F818E07B695E8BFB681D1D7B6903F123
:404AC0001D047B691B6993F830309BB27A691269009301AB32321068516803C3704631462A46234603F018F903461A46FB685A80FB68C2221A701C37BD46F0BDB0B584B0A0
:404B000000AF78607B68BB60BB68002B58D00023FB8100237B732EE0BB681B7F1A467B7BD31A013B184617F005FD02460B464FF00000254916F0D0FA04460D467B7BBA684E
:404B400013445B7F03F00F03184617F0F3FC02460B462046294617F053FD02460B461046194617F0E7FF03469AB2FB891344FB817B7B01337B73BB681B7F7A7B9A42CBD37B
:404B8000FCF702FEFCF7AAFE4FF4A070FCF7B2FDFCF79CFD0346FA89D2B21A70FCF796FD03460133FA89120A92B2D2B21A704FF4A070FCF74DFE054AFB891380FCF790FDA1
:404BC0001037BD46B0BD00BF00002440D0D3FF1F90B585B000AF78607B68FB60FB68002B3DD0FCF7D1FDFCF779FE4FF4A070FCF781FDFCF76BFD034601331B781B029CB27B
:404C0000FCF764FD03461B789BB2224613439BB27B81FCF765FDFB681D3318460021102218F0B7FA7A894FF00003F96801F11D04104619462246FBF795FBFB681D33184615
:404C400018F01CFB0346DAB2FB681A77FB6803F11D02FB681B7F10461946FBF771FC1437BD4690BD90B585B000AF78607B68FB60FB68002B32D0FCF787FDFCF72FFE4FF481
:404C8000E070FCF737FDFCF721FD03465B7AFB72FCF726FDFB681D3318460021102218F078FAFA7A4FF00003F96801F11D04104619462246FBF756FBFB681D33184618F04A
:404CC000DDFA0346DAB2FB681A77FB6803F11D02FB681B7F10461946FBF732FC1437BD4690BD00BFF0B58BB004AF78607B687B617B69002B65D07B691B699A8D7B691A83F4
:404D00007B691B69DA8D7B695A837B691B78002B2CD1A320FBF7FCF938613B69002B24D07B69B3F818E07B695E8B3B691D1D7B6903F11D047B691B6993F830309BB27A6990
:404D40001269009301AB32321068516803C3704631462A46234602F0DFFF03461A463B695A803B69C2221A702BE02AE0A420FBF7CFF9F860FB68002B23D07B69B3F818E01C
:404D80007B695E8BFB681D1D7B6903F11D047B691B6993F830309BB27A691269009301AB32321068516803C3704631462A46234602F0B2FF03461A46FB685A80FB68C22222
:404DC0001A701C37BD46F0BDB0B584B000AF78607B68BB60BB68002B50D00023FB730023BB732FE0BB681B7F1A46BB7BD31A013B184617F09FFB02460B464FF000002149EC
:404E000016F06AF904460D46BB7BBA6813445B7F03F00F03184617F08DFB02460B462046294617F0EDFB02460B461046194617F081FE03469BB2DAB2FB7B1344FB73BB7B2D
:404E40000133BB73BB681B7FBA7B9A42CAD3FCF79BFCFCF743FD4FF4E070FCF74BFCFCF735FC03460933FA7B1A704FF4E070FCF7EFFC054AFB7B9374FCF732FC1037BD468B
:404E8000B0BD00BF00002440686A002080B588B000AF78607B68FB61FB69D3F89031BB61BB69002B38D0BB6913229A72BB6903F11D02FB690C3310461946082218F05EF95D
:404EC000BB6908221A77FBF7B7FC78617B69002B22D0134A07F10C031068516803C3BB691B78002B03D17B691F225A7002E07B6923225A707B6903229A707B690C331A46E9
:404F000007F10C0303CB106051607B690822A3F88C217B690322DA702037BD4680BD00BFF8DB010080B485B000AF78607B68FB60FB685B6B002B0AD0FB685B6B002B03D025
:404F4000FB685B6B01221A70FB6800225A631437BD465DF8047B704780B586B000AF78607B687B617B691B78002B22D1FBF764FC38613B69002B1BD07B693A695A633B696D
:404F80007A69C3F890213B6927225A703B6932225A813B694FF47A729A803B69194AC3F894213B6906229A703B690322DA7025E024E07B691B78012B20D1FBF73DFCF860AB
:404FC000FB68002B1AD07B69FA685A63FB687A69C3F89021FB6828225A70FB6832225A81FB684FF47A729A80FB68064AC3F89421FB6806229A70FB680322DA701837BD46F3
:4050000080BD00BF8D4E0000B0B590B004AF786004233B724FF6FF73BB810023FB81C523BB727B68BB62BB6A1B78002B40F00482BB6A1B691B783E2B40F0FE81A320FBF74C
:4050400067F878627B6A002B00F01481002387F82F30FCF799FBFCF755FCFCF7D9FC07F1100318460021082218F093F8FCF740FC034602331B7803F04003002B32D097F855
:405080002F305A1C87F82F201C46FCF731FC034602331B781B09DBB2DBB203F00103DBB243F03003DBB2DAB207F13003234403F8202C97F82F305A1C87F82F201C46FCF719
:4050C00017FC034602331B78DBB203F00F03DBB243F03003DBB2DAB207F13003234403F8202C31E097F82F305A1C87F82F201C46FCF7FEFB034602331B781B09DBB2DBB235
:4051000003F00303DBB243F03003DBB2DAB207F13003234403F8202C97F82F305A1C87F82F201C46FCF7E4FB034602331B78DBB203F00F03DBB243F03003DBB2DAB207F184
:405140003003234403F8202C97F82F305A1C87F82F2007F1300213443A2203F8202C97F82F305A1C87F82F201C46FCF7C1FB034601331B781B09DBB2DBB203F00703DBB2DD
:4051800043F03003DBB2DAB207F13003234403F8202C97F82F305A1C87F82F201C46FCF7A7FB034601331B78DBB203F00F03DBB243F03003DBB2DAB207F13003234403F833
:4051C000202C97F82F305A1C87F82F2007F1300213443A2203F8202C97F82F305A1C87F82F201C46FCF784FB03461B781B09DBB2DBB203F00703DBB243F03003DBB2DAB2E4
:4052000007F13003234403F8202C97F82F305A1C87F82F201C46FCF76BFB03461B78DBB203F00F03DBB243F03003DBB2DAB207F13003234403F8202CFCF752FA7B6A1D1DF7
:4052400097F82F309BB207F11004009301AA07F1080393E8030082E80300C920BA212A46234602F059FD03461A467B6A5A807B6AC2221A70A320FAF74BFF78627B6A002B33
:4052800000F0D980002387F82330FCF77DFAFCF739FBFCF7BDFB07F1100318460021082217F077FF97F823305A1C87F823201C46FCF71EFB034604331B781B09DBB2DBB26A
:4052C00003F00303DBB243F03003DBB2DAB207F13003234403F8202C97F823305A1C87F823201C46FCF704FB034604331B78DBB203F00F03DBB243F03003DBB2DAB207F1B9
:405300003003234403F8202C97F823305A1C87F8232007F1300213442F2203F8202C97F823305A1C87F823201C46FCF7E1FA034605331B781B09DBB2DBB203F00103DBB239
:4053400043F03003DBB2DAB207F13003234403F8202C97F823305A1C87F823201C46FCF7C7FA034605331B78DBB203F00F03DBB243F03003DBB2DAB207F13003234403F866
:40538000202C97F823305A1C87F8232007F1300213442F2203F8202C97F823305A1C87F823201C46FCF7A4FA034606331B781B09DBB2DBB243F03003DBB2DAB207F1300364
:4053C000234403F8202C97F823305A1C87F823201C46FCF78DFA034606331B78DBB203F00F03DBB243F03003DBB2DAB207F13003234403F8202CFCF773F97B6A1D1D97F870
:4054000023309BB207F11004009301AA07F1080393E8030082E80300C9204FF495712A46234602F079FC03461A467B6A5A807B6AC2221A70F5E1F4E1BB6A1B78012B40F0A8
:40544000F081BB6A1B691B783E2B40F0EA81A420FAF75EFEF861FB69002B00F01481002387F82E30FCF790F9FCF74CFAFCF7D0FA07F1100318460021082217F08AFEFCF755
:4054800037FA034602331B7803F04003002B32D097F82E305A1C87F82E201C46FCF728FA034602331B781B09DBB2DBB203F00103DBB243F03003DBB2DAB207F130032344BC
:4054C00003F8202C97F82E305A1C87F82E201C46FCF70EFA034602331B78DBB203F00F03DBB243F03003DBB2DAB207F13003234403F8202C31E097F82E305A1C87F82E200F
:405500001C46FCF7F5F9034602331B781B09DBB2DBB203F00303DBB243F03003DBB2DAB207F13003234403F8202C97F82E305A1C87F82E201C46FCF7DBF9034602331B7891
:40554000DBB203F00F03DBB243F03003DBB2DAB207F13003234403F8202C97F82E305A1C87F82E2007F1300213443A2203F8202C97F82E305A1C87F82E201C46FCF7B8F92A
:40558000034601331B781B09DBB2DBB203F00703DBB243F03003DBB2DAB207F13003234403F8202C97F82E305A1C87F82E201C46FCF79EF9034601331B78DBB203F00F03FD
:4055C000DBB243F03003DBB2DAB207F13003234403F8202C97F82E305A1C87F82E2007F1300213443A2203F8202C97F82E305A1C87F82E201C46FCF77BF903461B781B0979
:40560000DBB2DBB203F00703DBB243F03003DBB2DAB207F13003234403F8202C97F82E305A1C87F82E201C46FCF762F903461B78DBB203F00F03DBB243F03003DBB2DAB214
:4056400007F13003234403F8202CFCF749F8FB691D1D97F82E309BB207F11004009301AA07F1080393E8030082E80300C920BA212A46234602F050FB03461A46FB695A804C
:40568000FB69C2221A70A420FAF742FDF861FB69002B00F0C6800023FB76FCF775F8FCF731F9FCF7B5F907F1100318460021082217F06FFDFB7E5A1CFA761C46FCF718F968
:4056C000034604331B781B09DBB2DBB203F00303DBB243F03003DBB2DAB207F13003234403F8202CFB7E5A1CFA761C46FCF700F9034604331B78DBB203F00F03DBB243F069
:405700003003DBB2DAB207F13003234403F8202CFB7E5A1CFA7607F1300213442F2203F8202CFB7E5A1CFA761C46FCF7E1F8034605331B781B09DBB2DBB203F00103DBB269
:4057400043F03003DBB2DAB207F13003234403F8202CFB7E5A1CFA761C46FCF7C9F8034605331B78DBB203F00F03DBB243F03003DBB2DAB207F13003234403F8202CFB7E58
:405780005A1CFA7607F1300213442F2203F8202CFB7E5A1CFA761C46FCF7AAF8034606331B781B09DBB2DBB243F03003DBB2DAB207F13003234403F8202CFB7E5A1CFA768A
:4057C0001C46FCF795F8034606331B78DBB203F00F03DBB243F03003DBB2DAB207F13003234403F8202CFBF77BFFFB691D1DFB7E9BB207F11004009301AA07F1080393E8A3
:40580000030082E80300C9204FF495712A46234602F082FA03461A46FB695A80FB69C2221A703037BD46B0BDB0B590B004AF786002233B724FF6FF73BB810023FB81C52373
:40584000BB727B68BB62BB6A1B78002B40F0DE81BB6A1B691B78012B40F0D881A320FAF757FC78627B6A002B00F0EA80002387F82F30FBF789FFFCF745F8FCF7C9F807F1F6
:40588000100318460021082217F083FCFCF730F8034602331B7803F04003002B32D097F82F305A1C87F82F201C46FCF721F8034602331B781B09DBB2DBB203F00103DBB2A4
:4058C00043F03003DBB2DAB207F13003234403F8202C97F82F305A1C87F82F201C46FCF707F8034602331B78DBB203F00F03DBB243F03003DBB2DAB207F13003234403F88E
:40590000202C31E097F82F305A1C87F82F201C46FBF7EEFF034602331B781B09DBB2DBB203F00303DBB243F03003DBB2DAB207F13003234403F8202C97F82F305A1C87F887
:405940002F201C46FBF7D4FF034602331B78DBB203F00F03DBB243F03003DBB2DAB207F13003234403F8202CA74B5B78002B0BD097F82F305A1C87F82F2007F130021344AB
:405980003A2203F8202C0AE097F82F305A1C87F82F2007F130021344202203F8202C97F82F305A1C87F82F201C46FBF7A1FF034601331B781B09DBB2DBB203F00703DBB220
:4059C00043F03003DBB2DAB207F13003234403F8202C97F82F305A1C87F82F201C46FBF787FF034601331B78DBB203F00F03DBB243F03003DBB2DAB207F13003234403F808
:405A0000202CFBF76DFE7B6A1D1D97F82F309BB207F11004009301AA07F1080393E8030082E8030010204FF4DD712A46234602F073F903461A467B6A5A807B6AC2221A7078
:405A4000A320FAF765FB78627B6A002B00F0DA80002387F82330FBF797FEFBF753FFFBF7D7FF07F1100318460021082217F091FB97F823305A1C87F823201C46FBF738FF6A
:405A8000034604331B781B09DBB2DBB203F00303DBB243F03003DBB2DAB207F13003234403F8202C97F823305A1C87F823201C46FBF71EFF034604331B78DBB203F00F0387
:405AC000DBB243F03003DBB2DAB207F13003234403F8202C97F823305A1C87F8232007F1300213442F2203F8202C97F823305A1C87F823201C46FBF7FBFE034605331B7813
:405B00001B09DBB2DBB203F00103DBB243F03003DBB2DAB207F13003234403F8202C97F823305A1C87F823201C46FBF7E1FE034605331B78DBB203F00F03DBB243F0300365
:405B4000DBB2DAB207F13003234403F8202C97F823305A1C87F8232007F1300213442F2203F8202C97F823305A1C87F823201C46FBF7BEFE034606331B781B09DBB2DBB283
:405B800043F03003DBB2DAB207F13003234403F8202C97F823305A1C87F823201C46FBF7A7FE034606331B78DBB203F00F03DBB243F03003DBB2DAB207F13003234403F83A
:405BC000202CFBF78DFD7B6A1D1D97F823309BB207F11004009301AA07F1080393E8030082E803004FF404704FF4DD712A46234602F092F803461A467B6A5A807B6AC22289
:405C00001A70CFE1CEE100BFAC83FF1FBB6A1B78012B40F0C781BB6A1B691B78012B40F0C181A420FAF774FAF861FB69002B00F0EA80002387F82E30FBF7A6FDFBF762FEED
:405C4000FBF7E6FE07F1100318460021082217F0A0FAFBF74DFE034602331B7803F04003002B32D097F82E305A1C87F82E201C46FBF73EFE034602331B781B09DBB2DBB239
:405C800003F00103DBB243F03003DBB2DAB207F13003234403F8202C97F82E305A1C87F82E201C46FBF724FE034602331B78DBB203F00F03DBB243F03003DBB2DAB207F1BB
:405CC0003003234403F8202C31E097F82E305A1C87F82E201C46FBF70BFE034602331B781B09DBB2DBB203F00303DBB243F03003DBB2DAB207F13003234403F8202C97F869
:405D00002E305A1C87F82E201C46FBF7F1FD034602331B78DBB203F00F03DBB243F03003DBB2DAB207F13003234403F8202C9F4B1B7A002B0BD097F82E305A1C87F82E2043
:405D400007F1300213443A2203F8202C0AE097F82E305A1C87F82E2007F130021344202203F8202C97F82E305A1C87F82E201C46FBF7BEFD034601331B781B09DBB2DBB24E
:405D800003F00703DBB243F03003DBB2DAB207F13003234403F8202C97F82E305A1C87F82E201C46FBF7A4FD034601331B78DBB203F00F03DBB243F03003DBB2DAB207F136
:405DC0003003234403F8202CFBF78AFCFB691D1D97F82E309BB207F11004009301AA07F1080393E8030082E8030010204FF4DD712A46234601F090FF03461A46FB695A8039
:405E0000FB69C2221A70A420FAF782F9F861FB69002B00F0C7800023FB76FBF7B5FCFBF771FDFBF7F5FD07F1100318460021082217F0AFF9FB7E5A1CFA761C46FBF758FD5B
:405E4000034604331B781B09DBB2DBB203F00303DBB243F03003DBB2DAB207F13003234403F8202CFB7E5A1CFA761C46FBF740FD034604331B78DBB203F00F03DBB243F09E
:405E80003003DBB2DAB207F13003234403F8202CFB7E5A1CFA7607F1300213442F2203F8202CFB7E5A1CFA761C46FBF721FD034605331B781B09DBB2DBB203F00103DBB29E
:405EC00043F03003DBB2DAB207F13003234403F8202CFB7E5A1CFA761C46FBF709FD034605331B78DBB203F00F03DBB243F03003DBB2DAB207F13003234403F8202CFB7E8D
:405F00005A1CFA7607F1300213442F2203F8202CFB7E5A1CFA761C46FBF7EAFC034606331B781B09DBB2DBB243F03003DBB2DAB207F13003234403F8202CFB7E5A1CFA76BF
:405F40001C46FBF7D5FC034606331B78DBB203F00F03DBB243F03003DBB2DAB207F13003234403F8202CFBF7BBFBFB691D1DFB7E9BB207F11004009301AA07F1080393E89C
:405F8000030082E803004FF404704FF4DD712A46234601F0C1FE03461A46FB695A80FB69C2221A703037BD46B0BD00BFAC83FF1FB0B5D8B004AF3B1D1860042387F81431A9
:405FC0004FF6FF73A7F818310023A7F81A31C52387F816313B1D1B68C7F84C31D7F84C31D3F89031C7F84831D7F848311B78002B40F04383D7F848311B691B78012B40F069
:406000003C83A320FAF784F8C7F84401D7F84431002B30D0914B1B785A1CD1B28F4A11701A468E4B1344DB7887F81C318B4B1B78032B02D9894B00221A70D7F844311D1D1D
:4060400007F58E740123009301AA07F58A7393E8030082E803004FF4147012212A46234601F05AFE03461A46D7F844315A80D7F84431C2221A7007F58873184600210222AD
:4060800017F087F807F58873D7F84801194602F00DFF07F58673D7F84801194603F04CF897F81131002B44D1A320FAF731F8C7F84401D7F84431002B5FD097F80D31002BC3
:4060C0001BD0674A07F580731068516803C312891A80D7F8443104331A4607F5807303CB106051601B881381D7F844310A225A80D7F84431C2221A703FE05A4A07F1F4034B
:406100001068516803C312891A80D7F8443104331A4607F1F40303CB106051601B881381D7F844310A225A80D7F84431C2221A7023E0A320F9F7ECFFC7F84401D7F844315E
:40614000002B1AD0484A07F1E8031068516803C312891A80D7F8443104331A4607F1E80303CB106051601B881381D7F844310A225A80D7F84431C2221A70A320F9F7C8FF0F
:40618000C7F84401D7F84431002B1DD0374A07F1D803144620686168A26807C3A2891A80D7F8443104331C4607F1D80307CB20606160A2601B88A381D7F844310E225A800D
:4061C000D7F84431C2221A7097F81031002B4FD1A320F9F79DFFC7F84401D7F84431002B6AD097F80C31002B1BD01D4A07F1CC031068516803C312891A80D7F8443104331F
:406200001A4607F1CC0303CB106051601B881381D7F844310A225A80D7F84431C2221A704AE0104A07F1C0031068516803C312891A80D7F8443104331A4607F1C00303CB46
:40624000106051601B881381D7F844310A225A80D7F84431C2221A702EE000BFAC83FF1FB0DC0100BCDC010008DB0100C8DC0100A320F9F74DFFC7F84401D7F84431002B8F
:406280001AD0C44A07F1B4031068516803C312891A80D7F8443104331A4607F1B40303CB106051601B881381D7F844310A225A80D7F84431C2221A70A320F9F729FFC7F8C5
:4062C0004401D7F84431002B1DD0B34A07F1A403144620686168A26807C3A2891A80D7F8443104331C4607F1A40307CB20606160A2601B88A381D7F844310E225A80D7F8A8
:406300004431C2221A704FF6FF73A7F818310023A7F81A31A14B9B781A46642303FB02F3B3F5FA6F47DDD7F84801FFF77DFA9B4B00229A70994B5B78002B14BF012300232D
:40634000DBB283F00103DBB203F00103DAB2934B5A70934BC7F84031012387F81431A320F9F7D6FEC7F83C01D7F83C31002B21D0D7F83C311C1DD7F8400116F07FFF03463E
:406380009BB2009301AA07F58A7393E8030082E803000F200E212246D7F8403101F0BCFC03461A46D7F83C315A80D7F83C31C2221A7006E005E0794B9B780133DAB2774B32
:4063C0009A70012387F81431764B5B7B83F00103DBB2002B64D0744B1B781846FAF7D4FA0346002B2ED0A320F9F792FEC7F84401D7F84431002B53D06C4BC7F83831D7F849
:4064000044311C1DD7F8380116F038FF03469BB2009301AA07F58A7393E8030082E80300B8204FF4E8712246D7F8383101F074FC03461A46D7F844315A80D7F84431C2224D
:406440001A702DE0A320F9F763FEC7F84401D7F84431002B24D007F10C0318460021202216F097FED7F844311D1D07F10C042023009301AA07F58A7393E8030082E80300BC
:40648000B8204FF4E8712A46234601F045FC03461A46D7F844315A80D7F84431C2221A70434B1B78DBB2002B00F08880A320F9F72FFEC7F84401D7F84431002B00F0DC8074
:4064C0003B4B5B78DBB2002B2FD03A4BC7F83431D7F844311C1DD7F8340116F0CFFE03462046D7F834111A4616F048FED7F844311C1DD7F8340116F0C1FE03469BB20093B1
:4065000001AA07F58A7393E8030082E80300B8204FF4E8712246D7F8343101F0FDFB03461A46D7F844315A802EE0234BC7F83031D7F844311C1DD7F8300116F09FFE034607
:406540002046D7F830111A4616F018FED7F844311C1DD7F8300116F091FE03469BB2009301AA07F58A7393E8030082E80300B8204FF4E8712246D7F8303101F0CDFB034651
:406580001A46D7F844315A80D7F84431C2221A709EE300BF08DB0100D8DC0100AC83FF1F00DC01003483FF1F043C002010DC0100686A002034DC01005CDC0100CB4B1B78A1
:4065C00083F00103DBB2002B56D0A320F9F7A0FDC7F84401D7F84431002B49D007F10C0318462021282216F0D4FDC14B9B78042B0DD107F10C03BF4A1C4615460FCD0FC4FB
:406600000FCD0FC495E8030084E803000CE007F10C03B94A1C4615460FCD0FC40FCD0FC495E80F0007C42380D7F844311D1D07F10C03184616F022FE03469BB207F10C040A
:40664000009301AA07F58A7393E8030082E80300A0204FF4E8712A46234601F05DFB03461A46D7F844315A80D7F84431C2221A709E4B01221A702BE32AE3D7F848311B7875
:40668000012B40F02583D7F848311B691B78012B40F01E83A420F9F73BFDC7F82C01D7F82C31002B30D0954BDB795A1CD1B2934AD1711A46914B13449B7A87F81C318F4BB1
:4066C000DB79032B02D98D4B0022DA71D7F82C311D1D07F58E740123009301AA07F58A7393E8030082E803004FF4147012212A46234601F011FB03461A46D7F82C315A80CF
:40670000D7F82C31C2221A7007F1A00318460021022216F03EFD07F1A003D7F84801194602F0C4FB07F19C03D7F84801194602F003FD97F8A130002B44D1A420F9F7E8FC45
:40674000C7F82C01D7F82C31002B5FD097F89D30002B1BD06A4A07F190031068516803C312891A80D7F82C3104331A4607F1900303CB106051601B881381D7F82C310A22FE
:406780005A80D7F82C31C2221A703FE05D4A07F184031068516803C312891A80D7F82C3104331A4607F1840303CB106051601B881381D7F82C310A225A80D7F82C31C2224A
:4067C0001A7023E0A420F9F7A3FCC7F82C01D7F82C31002B1AD04C4A07F178031068516803C312891A80D7F82C3104331A4607F1780303CB106051601B881381D7F82C31CF
:406800000A225A80D7F82C31C2221A70A420F9F77FFCC7F82C01D7F82C31002B1DD03B4A07F16803144620686168A26807C3A2891A80D7F82C3104331C4607F1680307CB33
:4068400020606160A2601B88A381D7F82C310E225A80D7F82C31C2221A7097F8A030002B56D1A420F9F754FCC7F82C01D7F82C31002B70D097F89C30002B1BD0204A07F133
:406880005C031068516803C312891A80D7F82C3104331A4607F15C0303CB106051601B881381D7F82C310A225A80D7F82C31C2221A7050E007F15003124A1068516803C373
:4068C00012891A80D7F82C311A1D07F1500303CB106051601B881381D7F82C310A225A80D7F82C31C2221A7035E000BF80D4FF1F686A0020E8DC010080DC0100AC83FF1F1C
:40690000B0DC0100BCDC010008DB0100C8DC0100A420F9F7FDFBC7F82C01D7F82C31002B19D007F14403C54A1068516803C312891A80D7F82C311A1D07F1440303CB106076
:4069400051601B881381D7F82C310A225A80D7F82C31C2221A70A420F9F7DAFBC7F82C01D7F82C31002B1DD007F13403B44A144620686168A26807C3A2891A80D7F82C310D
:406980001A1D07F13403144607CB20606160A2601B88A381D7F82C310E225A80D7F82C31C2221A704FF6FF73A7F818310023A7F81A31A44B5B7A1A46642303FB02F3B3F579
:4069C000FA6F16DDD7F84801FEF72EFF9D4B00225A729C4B1B7A002B14BF01230023DBB283F00103DBB203F00103DAB2954B1A7205E0944B5B7A0133DAB2924B5A720123C4
:406A000087F81431904B5B7B83F00103DBB2002B64D08E4B5B781846F9F7B6FF0346002B2ED0A420F9F774FBC7F82C01D7F82C31002B53D0864BC7F82831D7F82C311C1D86
:406A4000D7F8280116F01AFC03469BB2009301AA07F58A7393E8030082E80300B8204FF4E8712246D7F8283101F056F903461A46D7F82C315A80D7F82C31C2221A702DE0B0
:406A8000A420F9F745FBC7F82C01D7F82C31002B24D007F10C0318460021202216F079FBD7F82C311D1D07F10C042023009301AA07F58A7393E8030082E80300B8204FF47B
:406AC000E8712A46234601F027F903461A46D7F82C315A80D7F82C31C2221A705D4B1B78DBB2002B72D0A420F9F712FBC7F82C01D7F82C31002B00F0EB80564B5B78DBB275
:406B0000002B2FD0544BC7F82431D7F82C311C1DD7F8240116F0B2FB03462046D7F824111A4616F02BFBD7F82C311C1DD7F8240116F0A4FB03469BB2009301AA07F58A7362
:406B400093E8030082E80300B8204FF4E8712246D7F8243101F0E0F803461A46D7F82C315A802EE03D4BC7F82031D7F82C311C1DD7F8200116F082FB03462046D7F8201185
:406B80001A4616F0FBFAD7F82C311C1DD7F8200116F074FB03469BB2009301AA07F58A7393E8030082E80300B8204FF4E8712246D7F8203101F0B0F803461A46D7F82C318E
:406BC0005A80D7F82C31C2221A7081E0244B5B7883F00103DBB2002B7AD0A420F9F798FAC7F82C01D7F82C31002B6ED007F10C0318462021282216F0CCFAD7F82C311C1D1D
:406C000007F10C03184616F039FB024607F10C032046194616F0B2FA0E4B9B78042B23D107F10C030F4A1C4615460FCD0FC40FCD0FC495E8030084E8030022E008DB010010
:406C4000D8DC0100AC83FF1F7083FF1F043C002010DC0100686A002034DC01005CDC010080D4FF1FE8DC010007F10C031A4A1C4615460FCD0FC40FCD0FC495E80F0007C464
:406C80002380D7F82C311D1D07F10C03184616F0F5FA03469BB207F10C04009301AA07F58A7393E8030082E80300A0204FF4E8712A46234601F030F803461A46D7F82C318E
:406CC0005A80D7F82C31C2221A70044B01225A7007F5A877BD46B0BD80DC010080D4FF1F80B586B000AF78607B687B617B691B78002B20D12120F9F7ABFE38613B69002B04
:406D000018D07B693A695A633B697A69C3F890213B691C4AC3F894213B6921225A703B6906229A703B694FF47A725A813B690322DA7023E022E07B691B78012B1ED1252096
:406D4000F9F786FEF860FB68002B17D07B69FA685A63FB687A69C3F89021FB68094AC3F89421FB6825225A70FB6806229A70FB684FF47A725A81FB680322DA701837BD465D
:406D800080BD00BF0950000080B487B000AF78607B687B617B691B78002B0AD17B695B6B3B613B69002B03D03B6901221A700DE00CE07B691B78012B08D17B695B6BFB60BD
:406DC000FB68002B02D0FB6801221A701C37BD465DF8047B704700BF80B586B000AF78607B687B617B691B78002B1ED12220F9F72FFE38613B69002B16D01E4B00229A70FF
:406E00007B693A695A633B697A69C3F890213B6922225A703B6906229A703B6964225A813B690322DA7021E020E07B691B78012B1CD12620F9F70CFEF860FB68002B15D0DF
:406E40000C4B00225A727B69FA685A63FB687A69C3F89021FB6826225A70FB6806229A70FB6864225A81FB680322DA701837BD4680BD00BFAC83FF1F80B584B000AF7860ED
:406E80007B68FB60FB68D3F89431002B07D0FB68D3F89431FA68D2F89021104698471037BD4680BD80B487B000AF78607B687B617B691B78002B0AD17B695B6B3B613B69FB
:406EC000002B03D03B6901221A700DE00CE07B691B78012B08D17B695B6BFB60FB68002B02D0FB6801221A701C37BD465DF8047B704700BF80B588B000AF78600023FB7750
:406F00007B68BB61BB691B6B7B61786803F046F80346FB74FB7C914A40F6983101FB03F3134408335B79DBB283F00103DBB2002B00F0C3808A4B1B78DBB2012B40F0BC80DE
:406F40007B69002B00F0B8802E2002F0DFFF03461A467B6913441B7B002B32D0042002F0D5FF03461A467B6913441B7BBB74BB7C0E2B08D0BB691B691B78042B21D1BB69BA
:406F8000DB780E2B1DD10123FB77BB69FF225A71BB695A79BB699A72042002F0B7FF03461A467B69134400221A732E2002F0AEFF03461A467B69134400221A73BB698C22D9
:406FC0009A702E2002F0A2FF03461A467B6913441B7B002B32D0832002F098FF03461A467B6913441B7B7B747B7CB52B08D0BB691B691B78832B21D1BB69DB78B52B1DD19B
:407000000123FB77BB69FF225A71BB695A79BB699A72832002F07AFF03461A467B69134400221A732E2002F071FF03461A467B69134400221A73BB698C229A702E2002F083
:4070400065FF03461A467B6913441B7B002B33D0832002F05BFF03461A467B6913441B7B3B743B7C462B08D0BB691B691B78832B22D1BB69DB78462B1ED10123FB77BB697F
:40708000FF225A71BB695A79BB699A72832002F03DFF03461A467B69134400221A738D2002F034FF03461A467B69134400221A73BB698C229A704BE04AE07B69002B47D09D
:4070C0002E2002F023FF03461A467B6913441B7B002B3DD0042002F019FF03461A467B6913441B7BFB73FB7B452B02D0FB7B002B08D1BB691B691B78042B29D1BB69DB7859
:40710000452B25D0FB7C154A40F6983101FB03F3134408335B79FB77BB69FF225A71BB695A79BB699A72042002F0F0FE03461A467B69134400221A732E2002F0E7FE03460F
:407140001A467B69134400221A73BB692B229A70FB7F18462037BD4680BD00BF083C0020D071002080B584B000AF78607B68FB60FB68DB78392B21D1124B16221A70114BA2
:4071800018225A70FAF700FBFAF7A8FB4FF4E070FAF7B0FAFAF79AFA03460B33094A12781A70FAF793FA03460C33064A52781A704FF4E070FAF74CFBFAF792FA1037BD466E
:4071C00080BD00BF043C002080B584B000AF78607B68FB60FB68DB788C2B02D08D2B07D00DE0164B18221A70144B18225A7006E0124B16221A70114B16225A7000BFFAF7AF
:40720000C3FAFAF76BFB4FF4E070FAF773FAFAF75DFA03460B33094A12781A70FAF756FA03460C33054A52781A704FF4E070FAF70FFBFAF755FA1037BD4680BD043C0020F2
