:400000000080002011000000217B0100217B010080B500AF024A034B1B68136017F0ACFDBC760040FA46004010B5054C237833B9044B13B10448AFF300800123237010BD1D
:40004000A8D0FF1F0000000084D90100084B10B51BB108480849AFF300800848036803B910BD074B002BFBD0BDE81040184700BF0000000084D90100ACD0FF1F0881FF1FA7
:400080000000000080B582B000AF0023FB7118E0FB794FF4867202FB03F30D4A13443B603B681B78DBB2C22B08D13B68D3F808315B6838689847386800F0C6F8FB79013350
:4000C000FB71FB79132BE3D90837BD4680BD00BF0CD1FF1F80B485B000AF0346FB710B4BFB6008E0FB681B78FA799A4200D106E0FB684C33FB60FB681B78A52BF2D1FB6862
:4001000018461437BD465DF8047B70470C81FF1F90B585B000AF0346FB710023FB600023FB7245E0FB7A264A4FF4867101FB03F313441B78DBB2C02B37D1FB7A204A4FF42F
:40014000867101FB03F31344C1221A70FB7A1C4A4FF4867101FB03F3134400225A80FC7AFB791846FFF7B6FF0146154A4FF4867303FB04F3134403F584731960FB7A4FF437
:40018000867202FB03F30E4A13440433184600214FF480721CF071FFFB7A4FF4867202FB03F3074A1344FB6005E0FB7A0133FB72FB7A132BB6D9FB6818461437BD4690BDFF
:4001C0000CD1FF1F80B582B000AF0023FB712DE0FB791B4A4FF4867101FB03F31344C0221A70FB79164A4FF4867101FB03F3134400225A80FB794FF4867202FB03F3104A3B
:4002000013440433184600214FF480721CF035FFFB790B4A4FF4867101FB03F3134403F5847300221A60FB790133FB71FB79132BCED9044800F052F80837BD4680BD00BF34
:400240000CD1FF1F8500000080B582B000AF78607B68C0221A707B6800225A807B680433184600214FF480721CF007FF7B680022C3F808210837BD4680BD00BF80B584B072
:4002800000AF03463960FB711346BB800023FB730E4BBB6010E0BB681B78FA799A4208D1BB685B68BA883868114698470346FB7306E0BB680833BB60BB681B78A52BEAD185
:4002C000FB7B18461037BD4680BD00BFD482FF1F80B400AFBD465DF8047B704780B483B000AF78600B4B93F840300F2B0CD8094B93F840305A1CD1B2064A82F840101946E1
:40030000044A7B6842F821300C37BD465DF8047B704700BFFCE5FF1F80B582B000AF0023FB7111E0FB790D4A52F823300C4A13600B4B1B68002B03D0094B1B68984700E03E
:4003400008E0FB790133FB71044B93F84030FA799A42E7D30837BD4680BD00BFFCE5FF1F40E6FF1FF0B587B000AFC7E902017A600123FB755FE0FB7D013B7A68D618FB7DC6
:4003800018461CF03BF802460B464FF000006B491AF016FE02460B46104619461CF03EFB03461A464FF00003D7E902011CF056FB14461D46FB7D013B18461CF02FF802460E
:4003C0000B464FF000005D491AF0FAFD02460B46104619461CF022FB03461A464FF00003D7E902011CF03AFBA41A65EB0305FB7D013B18461CF012F802460B464FF000004A
:400400004E491AF0DDFD02460B46104619461CF005FB03461A464FF00003204629461CF01DFB02460B46D3B243F03003DBB23370FB7D0133FB75FB7D18461BF0DFFF02462C
:400440000B464FF000003D491AF0BAFD02460B46104619461CF0E2FA03461A464FF00003D7E902011CF0FAFA10461946D7E90223994208BF90427FF47EAFFB7D013B7A687D
:40048000D618FB7D18461BF0B9FF02460B464FF000002A491AF094FD02460B46104619461CF0BCFA03461A464FF00003D7E902011CF0D4FA14461D46FB7D013B18461BF05D
:4004C000ADFF02460B464FF000001C491AF078FD02460B46104619461CF0A0FA03461A464FF00003D7E902011CF0B8FAA41A65EB0305FB7D013B18461BF090FF02460B46D9
:400500004FF000000D491AF05BFD02460B46104619461CF083FA03461A464FF00003204629461CF09BFA02460B46D3B243F03003DBB233701C37BD46F0BD00BF00002440B2
:4005400080B485B000AF78600B46FB7000237B730023FB7327E0FB78013B7A6813441B787B73FB78023BDBB2BB730FE097F90E3001337A68134497F90E2079680A441278B1
:400580001A70BB7BDBB2013BDBB2BB7397F90E20FB7B9A42EADAFB7B7A6813447A7B1A70FB7B0133FB73FA7BFB78013B9A42D2DB1437BD465DF8047B704700BFB0B584B0FF
:4005C00000AF78600B467B800023FB600023FB7234E0FB7A18461BF011FF02460B46104619461AF095FC04460D46FB7A7A6813441B7803F00F0318461BF010FF02460B463B
:40060000204629461BF070FF02460B4614461D46F8681BF0F3FE02460B461046194622462B461BF0AFFD02460B46104619461CF0F5F90346FB60FB7A0133FB72FB7A9BB217
:400640007A889A42C5D8FB6818461037BD46B0BD80B485B000AF03460A46FB711346BB71FA79BB795340FB710023FB7312E0FB7903F00103002B07D0FB795B08DBB283F078
:400680007303DB43FB7102E0FB795B08FB71FB7B0133FB73FB7B072BE9D9FB7918461437BD465DF8047B704780B584B000AF78600B467B800023FB730023BB810DE0BB898B
:4006C0007A6813441B78FA7B10461946FFF7C0FF0346FB73BB890133BB81BA897B889A42EDD3FB7B18461037BD4680BD80B584B000AF0023FB732CE0FB7B484A4FF4CC716A
:4007000001FB03F3134400225A70FB7B434A4FF4CC7101FB03F313440122DA70FB7B3F4A4FF4CC7101FB03F3134401229A70FB7B4FF4CC7202FB03F30833384A1344043321
:40074000184600214FF4C0721CF097FCFB7B0133FB73FB7B2F2BCFD90023FB7323E0FB7B2F4A2C2101FB03F3134401221A70FB7B2C2202FB03F32A4A13440133184600215B
:4007800008221CF07AFCFB7B2C2202FB03F30833234A134404331846002108221CF06DFCFB7B0133FB73FB7B0F2BD8D900F0D4FAB860BB68002B2BD00023FB71FB79BA68C5
:4007C000134404225A70FB795A1CFA71BA6802339B001344134A5A60FB79BA68134405225A70FB795A1CFA71BA6802339B0013440D4A5A60FB79BA68134406225A70FB791D
:400800005A1CFA71BA6802339B001344074A5A600748FFF763FD1037BD4680BD54E6FF1FD43200202116000091160000AD160000C10D00000000000090B585B000AF00231E
:40084000FB601CF023FC034618461BF0E7FD02460B461046194646A3D3E900231BF06EFF02460B46104619464FF00002424B1BF03BFE02460B46104619464FF000023F4B55
:400880001BF080FC02460B46104619461CF0C6F80346FB8000237B8100BF7B895A1C7A81FA889A42F9D800237B7257E07B7A344A4FF4CC7101FB03F31344DB78DBB2012BC4
:4008C00049D17B7A2E4A4FF4CC7101FB03F3134400221A707B7A2A4A4FF4CC7101FB03F3134400229A807B7A254A4FF4CC7101FB03F313440222DA707C7A1AF0F9FA0346B7
:4009000019461F4A4FF4CC7303FB04F313440A46DA807B7A1A4A4FF4CC7101FB03F31344083300221A807B7A4FF4CC7202FB03F30833134A13440433184600214FF4C072DB
:400940001CF09BFB7B7A4FF4CC7202FB03F30C4A1344FB6005E07B7A01337B727B7A2F2BA4D9FB6818461437BD4690BDAFF300800000C0FFFFFFDF4100009040000024400E
:4009800054E6FF1FAFF3008080B584B000AF0346FB710023FB731CF079FB034618461BF03DFD02460B461046194623A3D3E900231BF0C4FE02460B46104619464FF00002A4
:4009C0001F4B1BF091FD02460B46104619464FF000021C4B1BF0D6FB02460B46104619461CF01CF803463B810023BB8100BFBB895A1CBA813A899A42F9D80023FB7211E0AB
:400A0000FB7A114A4FF4CC7101FB03F313445B78DBB2FA799A4202D10023FB7305E0FB7A0133FB72FB7A2F2BEAD9FB7B18461037BD4680BDAFF300800000C0FFFFFFDF4123
:400A4000000090400000244054E6FF1FAFF3008090B587B000AF0346FB7100237B611CF015FB034618461BF0D9FC02460B461046194655A3D3E900231BF060FE02460B461F
:400A8000104619464FF00002514B1BF02DFD02460B46104619464FF000024E4B1BF072FB02460B46104619461BF0B8FF0346FB8100237B8200BF7B8A5A1C7A82FA899A4245
:400AC000F9D800237B7418E07B7C434A4FF4CC7101FB03F313445B78DBB2FA799A4209D17B7C4FF4CC7202FB03F33B4A13447B617B6964E07B7C01337B747B7C2F2BE3D9D3
:400B000000237B7457E07B7C334A4FF4CC7101FB03F31344DB78DBB2012B49D17B7C2E4A4FF4CC7101FB03F3134400221A707B7C294A4FF4CC7101FB03F313440222DA7084
:400B40007C7C1AF0D5F903461946234A4FF4CC7303FB04F313440A46DA807B7C1E4A4FF4CC7101FB03F31344083300221A807B7C194A4FF4CC7101FB03F3134400229A809A
:400B80007B7C4FF4CC7202FB03F30833124A13440433184600214FF4C0721CF06EFA7B7C4FF4CC7202FB03F30B4A13447B6105E07B7C01337B747B7C2F2BA4D97B6918463B
:400BC0001C37BD4690BD00BF0000C0FFFFFFDF41000090400000244054E6FF1FAFF3008080B584B000AF0346FB710023FB7307E0FB7B374A002142F82310FB7B0133FB7326
:400C0000FB7B032BF4D91CF041FA034618461BF005FC02460B46104619462BA3D3E900231BF08CFD02460B46104619464FF00002284B1BF059FC02460B46104619464FF0CB
:400C40000002254B1BF09EFA02460B46104619461BF0E4FE03463B810023BB8100BFBB895A1CBA813A899A42F9D80023FB730023FB721CE0FB7A194A4FF4CC7101FB03F335
:400C800013445B78DBB2FA799A420DD1FB7B5A1CFA731946FB7A4FF4CC7202FB03F30F4A13440B4A42F82130FB7A0133FB72FB7A2F2B02D8FB7B032BDCD9054B1846103712
:400CC000BD4680BDAFF300800000C0FFFFFFDF4144E6FF1F000090400000244054E6FF1F80B483B000AF78607B6800225A707B680122DA707B6801229A707B680022DA8065
:400D00000C37BD465DF8047B704700BF80B584B000AF0346FB710023FB7314E0FB7B4FF4CC7202FB03F30B4A1344BB60BB685B78DBB2FA799A4203D1B868FFF7D1FF05E0AF
:400D4000FB7B0133FB73FB7B2F2BE7D91037BD4680BD00BF54E6FF1F80B483B000AF00237B600023FB700023FB701CE0FB78134A2C2101FB03F313441B78DBB2012B0FD16F
:400D8000FB780E4A2C2101FB03F3134403221A70FB782C2202FB03F3084A13447B6005E0FB780133FB70FB780F2BDFD97B6818460C37BD465DF8047B704700BFD432002098
:400DC000B0B586B000AF0023FB75CEE2FB7D4FF4CC7202FB03F3B44A13443B613B69DB78DBB2032B40F0BE823B699B78DBB2013B072B00F2B78201A252F823F06513000012
:400E00001D0E0000470E0000710E00009B0E00004F0F0000B11000000B120000FB7D4FF4CC7202FB03F3A04A1344184600F0A8FAFB7D4FF4CC7202FB03F39B4A134418462B
:400E4000FFF74EFF8EE2FB7D4FF4CC7202FB03F3954A1344184600F0DFFAFB7D4FF4CC7202FB03F3904A13441846FFF739FF79E2FB7D4FF4CC7202FB03F38B4A13441846FC
:400E800000F02AFBFB7D4FF4CC7202FB03F3864A13441846FFF724FF64E21AF029F803461846FB7D804A4FF4CC7101FB03F3134408331B889BB21A464FF47A7303FB02F3C2
:400EC0000344FA7D78494FF4CC7000FB02F20A44D28892B29B1AFB60F8681BF09FFA02460B46104619464FF00002704B1BF026FC02460B4614461D46FB7D6B4A4FF4CC718B
:400F000001FB03F313449B889BB218461BF086FA02460B46204629461BF076FD0346002B00D11FE2FB7D4FF4CC7202FB03F35E4A1344184600F0D0FAFB7D4FF4CC7202FBE4
:400F400003F3594A13441846FFF7CAFE0AE219F0CFFF03461846FB7D534A4FF4CC7101FB03F3134408331B889BB21A464FF47A7303FB02F30344FA7D4B494FF4CC7000FBA3
:400F800002F20A44D28892B29B1ABB60B8681BF045FA02460B46104619464FF00002434B1BF0CCFB02460B4614461D46FB7D3E4A4FF4CC7101FB03F3134408335B889BB29E
:400FC00018461BF02BFA02460B46204629461BF01BFD0346002B00D1C4E1B8681BF01EFA02460B46104619464FF000022F4B1BF0A5FB02460B4614461D46FB7D2A4A4FF46C
:40100000CC7101FB03F313449B889BB218461BF005FA02460B46204629461BF0F5FC0346002B00D19EE1FB7D4FF4CC7202FB03F31D4A1344184600F0EFF9FC7D19F058FF6B
:4010400003461946184A4FF4CC7303FB04F313440A46DA80FB7D144A4FF4CC7101FB03F31344083300221A80FB7D0F4A4FF4CC7101FB03F3134400229A80FB7D0A4A4FF473
:40108000CC7101FB03F313441B78DBB2002B0AD0FB7D4FF4CC7202FB03F3034A13441846FFF71EFE5EE15DE154E6FF1F00408F4019F01EFF03461846FB7DAF4A4FF4CC71E3
:4010C00001FB03F3134408331B889BB21A464FF47A7303FB02F30344FA7DA7494FF4CC7000FB02F20A44D28892B29B1A7B6078681BF094F902460B46104619464FF000025A
:401100009E4B1BF01BFB02460B4614461D46FB7D994A4FF4CC7101FB03F3134408335B889BB218461BF07AF902460B46204629461BF06AFC0346002B00D113E178681BF0E1
:401140006DF902460B46104619464FF000028B4B1BF0F4FA02460B4614461D46FB7D864A4FF4CC7101FB03F313449B889BB218461BF054F902460B46204629461BF044FC65
:401180000346002B00D1EDE0FB7D4FF4CC7202FB03F3794A1344184600F0F8F9FC7D19F0A7FE03461946744A4FF4CC7303FB04F313440A46DA80FB7D6F4A4FF4CC7101FB26
:4011C00003F31344083300221A80FB7D6A4A4FF4CC7101FB03F3134400229A80FB7D664A4FF4CC7101FB03F313441B78DBB2002B0AD0FB7D4FF4CC7202FB03F35E4A134479
:401200001846FFF76DFDADE0ACE019F071FE03461846FB7D584A4FF4CC7101FB03F3134408331B889BB21A464FF47A7303FB02F30344FA7D50494FF4CC7000FB02F20A4414
:40124000D28892B29B1A3B6038681BF0E7F802460B46104619464FF00002484B1BF06EFA02460B4614461D46FB7D434A4FF4CC7101FB03F3134408335B889BB218461BF069
:40128000CDF802460B46204629461BF0BDFB0346002B00D165E038681BF0C0F802460B46104619464FF00002344B1BF047FA02460B4614461D46FB7D2F4A4FF4CC7101FB2E
:4012C00003F313449B889BB218461BF0A7F802460B46204629461BF097FB0346002B00D13FE0FB7D4FF4CC7202FB03F3224A1344184600F0F1F8FC7D19F0FAFD03461946B3
:401300001D4A4FF4CC7303FB04F313440A46DA80FB7D194A4FF4CC7101FB03F31344083300221A80FB7D144A4FF4CC7101FB03F3134400229A80FB7D0F4A4FF4CC7101FB0B
:4013400003F313441B78DBB2002B0AD0FB7D4FF4CC7202FB03F3084A13441846FFF7C0FCFFE700BFFB7D0133FB75FB7D2F2B7FF62DAD1837BD46B0BD54E6FF1F00408F404E
:4013800080B584B000AF78600023FB730023BB730023FB7337E00023BB732EE0FA7BBB7B1C492C2000FB02F213440B445B78002B00D125E0FA7BB97B164813469B0013443D
:4013C0005B0013440B4402339B0003445B68002B0FD0FA7BB97B0F4813469B0013445B0013440B4402339B0003445B687868984700E005E0BB7B0133BB73BB7B072BCDD9B8
:40140000FB7B0133FB73FB7B0F2BC4D91037BD4680BD00BFD432002080B584B000AF78600023FB730023BB7300237B730023BB734AE000237B733DE0BA7B7B7B25492C206A
:4014400000FB02F213440B445B78002B00D134E0BA7B7B7B1F492C2000FB02F213440B445A787B685B78DBB29A4220D1BA7B797B184813469B0013445B0013440B44023394
:401480009B0003445B68002B0ED0BA7B797B114813469B0013445B0013440B4402339B0003445B68786898470123FB7305E07B7B01337B737B7B072BBED9FB7B002B00D058
:4014C00005E0BB7B0133BB73BB7B0F2BB1D91037BD4680BDD432002080B584B000AF78600023FB730023BB730023FB7345E00023BB733CE0FA7BBB7B23492C2000FB02F281
:4015000013440B445B78002B00D133E0FA7BBB7B1D492C2000FB02F213440B445A787B685B78DBB29A421FD1FA7BB97B164813469B0013445B0013440B4402339B000344E6
:401540005B68002B0FD0FA7BB97B0F4813469B0013445B0013440B4402339B0003445B687868984706E005E0BB7B0133BB73BB7B072BBFD9FB7B0133FB73FB7B0F2BB6D9FF
:401580001037BD4680BD00BFD432002080B584B000AF78600023FB730023BB730023FB7335E00023BB732CE0FA7BBB7B1B492C2000FB02F213440B445B78002B00D123E028
:4015C000FA7BB97B154813469B0013445B0013440B4402339B0003445B68002B0ED0FA7BB97B0E4813469B0013445B0013440B4402339B0003445B6878689847BB7B013368
:40160000BB73BB7B072BCFD9FB7B0133FB73FB7B0F2BC6D91037BD4680BD00BFD432002080B485B000AF78600023FB7325E0FB7B4FF4CC7202FB03F3144A1344BB60BB6836
:401640009B78DBB2072B0ED0BB689B78DBB2062B09D0BB689B78DBB2082B04D0BB689B78DBB2052B06D1BB681B899BB201339AB2BB681A81FB7B0133FB73FB7B2F2BD6D970
:401680001437BD465DF8047B704700BF54E6FF1F80B584B000AF78607B68FB60FB681B7B1846FFF733FB1037BD4680BD80B584B000AF78607B68FB60FB68D3F8903118468F
:4016C000FFF70EFB1037BD4680BD00BF80B400AF024B1846BD465DF8047B70479635002080B500AF19F0B8F9014B00221A7080BDC4D0FF1F90B585B000AF0346FB8019F023
:40170000ABF9FB881B0A9BB2DAB21E4B1A70FB88DAB21C4B5A705420002119F043F80346BB81BB89002B2AD10023FB7308E0FB7B144AD35C184619F011F9FB7B0133FB7384
:40174000FB7B012BF3D95420012119F089F80346BB81BB89002B10D10223FB730AE0FC7B012019F03BF903461A46064B1A55FB7B0133FB73FB7B412BF1D919F0C3F8143778
:40178000BD4690BD9435002080B582B000AF2C4B1B78DBB2002B04D019F05EF9284B00221A701BF073FC034618461AF037FE02460B46104619464FF00002224B1AF094FECD
:4017C00002460B46104619461BA3D3E900231AF0B5FF02460B46104619461BF01FF903469BB264339BB2BB800023FB8002E0FB880133FB80BB88FA889A42F8D3124B1B780C
:40180000DBB203F01003002B0AD1104B1B78DBB283F00103DBB2002B02D00C4B01221A700A4B1B78DBB283F00103DBB2002BB8D10837BD4680BD00BF0000C0FFFFFFDF4147
:401840000483FF1F00408F40D9490040C4D0FF1F80B584B000AF0346FB800023FB73002019F06EF90023BB8119F0F6F8FB881B0A9BB2DAB2184B1A70FB88DAB2164B5A70A5
:401880005420002118F08EFF0346BB81BB89002B13D10023BB7308E0BB7B0F4AD35C184619F05CF8BB7B0133BB73BB7B412BF3D919F028F8052016F09BFFBB89002B04D03D
:4018C000FB7B5A1CFA73092BCED9012019F038F91037BD4680BD00BF9435002080B500AF0248002142221BF0C8FB80BD9435002080B400AF024B1846BD465DF8047B704767
:40190000D835002080B500AF0248002110221BF0B4FB80BDD835002080B582B000AF0023FB7119F099F86820002118F03BFF0346BB71BB79002B53D1002019F00FF8FB790F
:401940005A1CFA711A46314B9B5C03F07F03DBB2184619F003F8FB795A1CFA711A462B4B9B5C03F07F03DBB2184618F0F7FFFB795A1CFA711A46254B9B5C03F03F03DBB2F1
:40198000184618F0EBFFFB795A1CFA711A461F4B9B5C03F00703DBB2184618F0DFFFFB795A1CFA711A46194B9B5C03F03F03DBB2184618F0D3FFFB795A1CFA711A46134BD6
:4019C0009B5C03F01F03DBB2184618F0C7FFFB795A1CFA711A460D4B9B5C184618F0BEFF18F090FF6820002118F0DCFE0346BB71BB79002B07D10E2018F0B0FF042018F01C
:401A0000ADFF18F07FFF0837BD4680BDD835002090B583B000AF19F01FF86820002118F0C1FE0346BB80BB88002B02D1002018F095FF18F067FF19F00FF86820012118F060
:401A4000B1FE0346BB80BB88002B1CD10023FB7116E0FB79052B08D8FC79012018F0BEFF03461A460A4B1A5507E0FC79002018F0B5FF03461A46064B1A55FB790133FB7152
:401A8000FB79062BE5D918F03DFF0C37BD4690BDD835002080B582B000AF6820002118F081FE0346FB71FB79002B07D10E2018F055FF042018F052FF18F024FF0837BD46D9
:401AC00080BD00BF80B500AF16F0ECFA16F09EFF17F0C4FC18F012F817F074F918F076FC00F014F8FEF702FE00F08CF8FEF76AFBFEF7EEFB0FF008F805F03CFD09F022FFCC
:401B000001F012FD0AF02EF880BD00BF80B500AF19F0A0F9044818F041FB19F065F8034819F0D8F880BD00BF311B0000711B000080B582B000AF19F0ADF90420FEF788FFB0
:401B400078607B68002B08D07B6804225A707B6803229A707B680322DA70044B5B680133024A53600837BD4680BD00BFF46F002080B582B000AF19F057F80720FEF768FF79
:401B800078607B68002B08D07B6807225A707B6803229A707B680322DA700837BD4680BD80B584B000AF78600B467B8013467B700023FB730023BB811AE018F04DFF0720C9
:401BC000002118F0EFFD0346FB73FB7B002B0CD17B78184618F0C2FEBB897A6813441B78184618F0BBFE18F08DFEBB890133BB81BA897B889A42E0D3FB7B18461037BD4619
:401C000080BD00BF80B582B000AFFFF7A5F878607B68002B0FD00023FB70FB787A6813442B225A70FB785A1CFA707A6802339B001344044A5A600448FEF750FB0837BD46B7
:401C400080BD00BF651C00004D1C000080B500AF034B1B78DBB2002B01D016F081FE80BDC5D0FF1F80B500AF034B01221A700320002116F02FFE80BDC5D0FF1F80B582B00E
:401C800000AF78600B467B80184BDB889BB2002B07D0164BDB889BB27A889A4211D200231FE0124B9B68114A11687A88084679689847034683F00103DBB2002B01D0002398
:401CC0000FE07B880A4879681A461BF0CBF9074A7B88D380054B01221A71064B02221A60012318460837BD4680BD00BFE8350020F435002080E100E080B584B000AF786085
:401D00007B68BB60BB68002B1CD0322016F070FD0023FB730FE0BB68D3F808319B6BFA7BB9680A44127910469847012016F060FDFB7B0133FB73FB7B9AB2BB685B889BB2A4
:401D40009A42E8D31037BD4680BD00BF80B586B000AF78607B683B613B69D3F89031FB604F200AF0F7FD0246FB68DA61FB68DB6904337B617B69002B2AD025E0164BD3F853
:401D8000483815489847B860BB68002B19D0BB6800221A70BB687A695A61BB6800229A61BB68FA68DA61BB68DB69D3F8C03BBA68D26910469847084BD3F84C380648B968B8
:401DC00098477B6934337B617B691B68002BD5D11837BD4680BD00BF8C67002080B588B000AF78600023FB617B683B610023FB7636E0FB7E444A40F6C83101FB03F3134429
:401E000008339B78DBB2012B27D1FB7E40F6C83202FB03F33C4A1344FB61FB7E3A4A40F6C83101FB03F31344083302229A70FB7E0133364A9278934203DB334B01229A7259
:401E400013E0FB7E0133304A40F6C83101FB03F31344083301229A7007E0FB7E0133FB762A4B9B78FA7E9A42C3D3FB69002B48D0FB6901225A7148200AF06CFD0246FB6981
:401E8000DA61FB69DB6904337B617B69002B32D02DE01F4BD3F848381D489847F860FB68002B21D0FB6800221A70FB687A695A61FB6800229A61FB68FA69DA61FB68DB6906
:401EC000D3F8C03BFA68D269104698473B69D3F89421FB681A62FB683A695A620C4BD3F84C380B48F96898477B6934337B617B691B68002BCDD1F86900F00CF8F86900F04F
:401F0000C9F82037BD4680BD58380020786700208C67002080B586B000AF78607B683B613B699B78DBB20B2B04D03B699B78DBB20A2B54D13B699B79DBB2002B4FD0492032
:401F40000AF008FD02463B69DA613B69DB6904337B617B69002B2AD025E0224BD3F8483820489847F860FB68002B19D0FB6800221A70FB687A695A61FB6800229A61FB6871
:401F80003A69DA61FB68DB69D3F8C03BFA68D26910469847134BD3F84C381248F96898477B6934337B617B691B68002BD5D11320FEF742FCB860BB6813225A70BB68032276
:401FC0009A703B691A78BB681A73BB680122A3F88C21BB680322DA703B6900229A711837BD4680BD8C67002080B586B000AF78607B683B613B699B78DBB20B2B04D03B69FB
:402000009B78DBB20A2B38D14A200AF0A3FC02463B69DA613B69DB6904337B617B69002B2AD025E01A4BD3F8483819489847F860FB68002B19D0FB6800221A70FB687A697B
:402040005A61FB6800229A61FB683A69DA61FB68DB69D3F8C03BFA68D269104698470C4BD3F84C380A48F96898477B6934337B617B691B68002BD5D107E03B699B78DBB2E3
:40208000092B02D13B6901229A711837BD4680BD8C67002080B586B000AF78607B683B613B699B78DBB2062B04D03B699B78DBB2072B3CD13B69DB79DBB2002B37D046204B
:4020C0000AF048FC02463B69DA613B69DB6904337B617B69002B2AD025E0164BD3F8483814489847F860FB68002B19D0FB6800221A70FB687A695A61FB6800229A61FB68C9
:402100003A69DA61FB68DB69D3F8C03BFA68D26910469847074BD3F84C380648F96898477B6934337B617B691B68002BD5D11837BD4680BD8C67002080B588B000AF78605E
:402140007B687B613D4B9B78002B02D13B4B01225A700023FB770023BB775BE0BB7F40F6C83202FB03F3364A13443B613B69002B4DD03869FFF738FFFB7F83F00103DBB267
:40218000002B44D03B6903F120027B690C33104619464FF4C0721AF065FF4E200AF0DAFB02463B69DA613B69DB690433BB61BB69002B2AD025E0234BD3F84838214898477D
:4021C000F860FB68002B19D0FB6800221A70FB68BA695A61FB6800229A61FB683A69DA61FB68DB69D3F8C03BFA68D26910469847144BD3F84C381348F9689847BB693433EC
:40220000BB61BB691B68002BD5D10123FB77BB7F0133BB77094B9B78BA7F9A429ED30A4B1B68002B03D0084B1B68786998477B6901221A702037BD4680BD00BF7867002095
:40224000583800208C670020C8D0FF1F80B588B000AF78607B687B610023FB777AE0FB7F40F6C83202FB03F3404A13443B613B69002B6CD00023BB77FB7F032B1AD801A28C
:4022800052F823F0952200009D220000A5220000AD220000364BDB78BB770BE0344B1B79BB7707E0324B5B79BB7703E0304B9B79BB7700BF3B690022DA7000237B7742E06B
:4022C0003B692033184600214FF4C0721AF0D5FE45200AF03FFB02463B69DA613B69DB690433BB61BB69002B2AD025E0214BD3F8483820489847F860FB68002B19D0FB689D
:4023000000221A70FB68BA695A61FB6800229A61FB683A69DA61FB68DB69D3F8C03BFA68D26910469847134BD3F84C381148F9689847BB693433BB61BB691B68002BD5D14B
:402340007B7F01337B777A7FBB7F9A42B8D3FB7F0133FB77064B9B78FA7F9A42FFF47FAF7B6901221A702037BD4680BD58380020786700208C67002090B58DB000AF7860B6
:402380007B68BB62BB6A1B7B184600F011FC78627B6A002B00F0A081BB6A5A7B7B6ADA70FFF7F2F9FFF79AFA7B6A1B78184600F0A5FB03467B847B8C1846FFF79BF97B6AF6
:4023C000DB78DBB2032B00F2458101A252F823F0E12300007B24000019250000B7250000A64BDB79032B3AD1A44B1B7A022B36D1BB6A03F10E02BB6A1B7D9BB2104619463C
:40240000FEF7DCF8F861FB699D4AA2FB0323DB08184619F0F3FF02460B461046194618F07FFD02460B46104619461AF0F7FA0346FB61BB6A03F10E02BB6A1B7D1046002113
:402440001A461AF01AFEFB691A464FF00003B96A01F10E04104619462246FDF783FFFFF735F90146BB6A03F10E02BB6A1B7D084611461A461AF0F6FDECE0804BDB79032BAE
:402480003AD17E4B1B7A022B36D1BB6A03F10E02BB6A1B7D9BB210461946FEF78FF8B861BB69774AA2FB0323DB08184619F0A6FF02460B461046194618F032FD02460B464D
:4024C000104619461AF0AAFA0346BB61BB6A03F10E02BB6A1B7D104600211A461AF0CDFDBB691A464FF00003B96A01F10E04104619462246FDF736FFFFF7E8F8034603F13D
:402500001001BB6A03F10E02BB6A1B7D084611461A461AF0A7FD9DE0584BDB79032B3AD1564B1B7A022B36D1BB6A03F10E02BB6A1B7D9BB210461946FEF740F878617B6908
:402540004F4AA2FB0323DB08184619F057FF02460B461046194618F0E3FC02460B46104619461AF05BFA03467B61BB6A03F10E02BB6A1B7D104600211A461AF07EFD7B6932
:402580001A464FF00003B96A01F10E04104619462246FDF7E7FEFFF799F8034603F12001BB6A03F10E02BB6A1B7D084611461A461AF058FD4EE0314BDB79032B3AD12F4B7C
:4025C0001B7A022B36D1BB6A03F10E02BB6A1B7D9BB210461946FDF7F1FF38613B69284AA2FB0323DB08184619F008FF02460B461046194618F094FC02460B46104619464F
:402600001AF00CFA03463B61BB6A03F10E02BB6A1B7D104600211A461AF02FFD3B691A464FF00003B96A01F10E04104619462246FDF798FEFFF74AF8034603F13001BB6AD3
:4026400003F10E02BB6A1B7D084611461A461AF009FD00BF7B8C1846FFF7FAF8FFF740F845200AF077F902467B6ADA617B6ADB690433FB62FB6A002B2ED029E078670020C0
:40268000CDCCCCCC174BD3F8483816489847F860FB68002B19D0FB6800221A70FB68FA6A5A61FB6800229A61FB687A6ADA61FB68DB69D3F8C03BFA68D26910469847094B0A
:4026C000D3F84C380748F9689847FB6A3433FB62FB6A1B68002BD5D1BB6A01221A703437BD4690BD8C67002080B586B000AF78607B683B613B691B7B184600F059FAF860D6
:40270000FB68002B37D047200AF024F90246FB68DA61FB68DB6904337B617B69002B2AD025E0184BD3F8483816489847B860BB68002B19D0BB6800221A70BB687A695A610E
:40274000BB6800229A61BB68FA68DA61BB68DB69D3F8C03BBA68D26910469847094BD3F84C380848B96898477B6934337B617B691B68002BD5D13B6901221A701837BD46A5
:4027800080BD00BF8C67002080B586B000AF7860FEF7FAFFFFF7A2F84FF40070FEF7AAFFFEF794FF034600221A704FF40070FFF74FF8FFF793F84FF41070FEF79BFFFEF714
:4027C00085FF034600221A704FF41070FFF740F8FFF784F84FF42070FEF78CFFFEF776FF034600221A704FF42070FFF731F8FFF775F84FF43070FEF77DFFFEF767FF0346FE
:4028000000221A704FF43070FFF722F8FEF768FF2E4B00229A702E4B3B613B69002B51D03B692033184600214FF4C0721AF025FC4B200AF08FF802463B69DA613B69DB69E2
:4028400004337B617B69002B3CD037E0214BD3F8483820489847F860FB68002B2BD0FB6801221A70FB687A695A61FB6800229A61FB683A69DA61FB68DB69D3F8C03BFA6893
:40288000D26910469847FB68DB69012283F8682BFB68DB69002283F8692BFB68DB69FA68D26992F8682BD2B21A700A4BD3F84C380848F96898477B6934337B617B691B68C7
:4028C000002BC3D11837BD4680BD00BF78670020583800208C67002090B583B000AF7860FEF752FFFEF7FAFF4FF4E070FEF702FFFEF7ECFE03465A7A7B4B9A74FEF7E6FEA4
:4029000003469A7A794B1A71FEF7E0FE03460B331B78002B04D0FEF7D9FE0346DB7A00E01623734A1370FEF7D1FE03460C331B78002B04D0FEF7CAFE03461B7B00E01823A7
:402940006B4A5370FEF7C2FE03460D3330221A70FEF7BCFE03460E3332221A70FEF7B6FE03460F3330221A70FEF7B0FE0346103334221A704FF4E070FEF76AFFFEF7AEFFFC
:402980004FF4A070FEF7B6FEFEF7A0FE034601331B781B029CB2FEF799FE03461B789BB2224613439BB29AB2524B1A80FEF796FF4FF4A070FEF79EFEFEF788FE0346023363
:4029C0001846002110221AF058FBFEF77FFE0346023300221A70FEF779FE0346033300221A70FEF773FE0346043305221A70FEF76DFE0346053300221A704FF4A070FEF72A
:402A000027FFFEF763FE0346023318460821FDF7D5FD03469AB2344B9A81FEF75FFF4FF4C070FEF767FEFEF751FE034618460821FDF7C4FD03469AB22B4BDA81FEF74EFF8F
:402A40004FF40070FEF756FEFEF740FE034605331B78002B0CBF01230023DAB2264BDA72FEF73CFF4FF41070FEF744FEFEF72EFE034605331B78002B0CBF01230023DAB265
:402A80001D4B83F8D32BFEF729FF4FF42070FEF731FEFEF71BFE034605331B78002B0CBF01230023DAB2144B03F5BC531B331A70FEF714FF4FF43070FEF71CFEFEF706FE05
:402AC000034605331B78002B0CBF01230023DAB2094B03F50D5323331A70FEF7DBFFFEF7FFFD0C37BD4690BD78670020E86F00205438002024D0FF1F5838002080B485B0CD
:402B000000AF0346FB710023FB81274B9B78022B02D0042B14D03FE0244B1B78FA799A4203D14FF48063FB8109E0204B93F8C83BFA799A4203D14FF48863FB812CE02BE04F
:402B40001A4B1B78FA799A4203D14FF48063FB8121E0164B93F8C83BFA799A4203D14FF48863FB8117E0114B03F5BC5310331B78FA799A4203D14FF49063FB810BE00B4B95
:402B800003F50D5318331B78FA799A4203D14FF49863FB81FFE700BFFB8918461437BD465DF8047B704700BF786700205838002080B485B000AF0346FB710023FB600023C6
:402BC000FB7216E0FB7A114A40F6C83101FB03F313441B78FA799A4208D1FB7A40F6C83202FB03F3094A1344FB6007E0FB7A0133FB72074B9B78FA7A9A42E3D3FB681846A9
:402C00001437BD465DF8047B704700BF583800207867002080B588B000AF78607B683B610023FB614C4BBB612E2007F053F803461A463B6913441B7BFB730FE0BB691B78CA
:402C4000012B08D1BB695B78FA7B9A4203D1BB695B68FB6106E0BB690833BB61BB691B78FF2BEBD1FB69002B72D0FB6903F120023B690C33104619464FF4C0721AF0F2F9A5
:402C80000B2007F027F803461A46FB69134493F82030392B0CBF01230023DAB2FB695A73042007F017F803461A463B6913441B7BBB73BB7B0D2B10D1052007F00BF8034618
:402CC0001A463B6913441B7B7B737B7B184609F041FE0246FB69DA6108E0BB7B0E2B05D1442009F037FE0246FB69DA61FB6900221A72FB69DB6904337B617B69002B27D009
:402D000022E0164BD3F8483814489847B860BB68002B16D0BB687A695A61BB6800229A61BB68FA69DA61BB68DB69D3F8C03BBA68D26910469847094BD3F84C380748B968CA
:402D400098477B6934337B617B691B68002BD8D12037BD4680BD00BF0883FF1F8C67002080B588B000AF78607B683B610023FB614C4BBB612E2006F0ADFF03461A463B691E
:402D800013441B7BFB730FE0BB691B78022B08D1BB695B78FA7B9A4203D1BB695B68FB6106E0BB690833BB61BB691B78FF2BEBD1FB69002B72D0FB6903F120023B690C3381
:402DC000104619464FF4C0721AF04CF90B2006F081FF03461A46FB69134493F82030392B0CBF01230023DAB2FB695A73042006F071FF03461A463B6913441B7BBB73BB7B1F
:402E00000D2B10D1052006F065FF03461A463B6913441B7B7B737B7B184609F09BFD0246FB69DA6108E0BB7B0E2B05D1442009F091FD0246FB69DA61FB6900221A72FB6991
:402E4000DB6904337B617B69002B27D022E0164BD3F8483814489847B860BB68002B16D0BB687A695A61BB6800229A61BB68FA69DA61BB68DB69D3F8C03BBA68D26910461E
:402E80009847094BD3F84C380748B96898477B6934337B617B691B68002BD8D12037BD4680BD00BF0883FF1F8C670020B0B582B000AF3A4BD3F850383848984778607B6895
:402EC000002B68D07B689B69002B64D07B689B691B8A002B5FD017F0DFFE03461A467B685B8A9BB219464FF47A7303FB01F313447A68128A92B29B1A3B60386819F08EFA86
:402F000002460B46104619464FF00002244B19F015FC02460B4614461D467B689B691B8A184619F07BFA02460B462046294619F06BFD0346002B2ED07B6800225A827B68A6
:402F400000221A827B68DB899BB201339AB27B68DA817B689B699B68002B04D07B689B699B68786898477B68DB899BB2142B07D90A4BD3F854380948984700237B6006E03C
:402F80007B689A697B685A617B6800229A6116F0FDF815F053FF0837BD46B0BD8C67002000408F4080B582B000AF8A4B1B79DBB283F00103DBB2002B00D042E1864BD3F8A0
:402FC00050388548984778607B68002B00F01F817B689B69002B00F01A817B6800225A827B6800221A827B68DB6903F5D072794BDB889BB2104679491A461AF033F87B68A3
:40300000DB69744AD28892B2A3F820230023FB700023BB7000237B7000233B7066E07B689A693B78134493F82630FF2B5AD00123BB70FB7883F00103DBB2002B06D07B6845
:403040009A693B78134493F82230FB707B689B695B68786898477B68DB699B78DAB27B6899693B780B4493F826309A423BD17B681B78DBB283F00103DBB2002B13D07B6824
:403080009B691B6B002B04D07B689B691B6B786898477B681B6A002B05D07B681B6A7A68526A104698477B681B78DBB283F00103DBB2002B07D0484BD3F854384648984758
:4030C00000237B600BE07B689A697B685A617B6800229A61404BD3F844383F48984701237B7006E005E03B7801333B703B78032B95D9BB7883F00103DBB2002B38D07B6823
:403100009B695B68786898477B681B78DBB283F00103DBB2002B13D07B689B691B6B002B04D07B689B691B6B786898477B681B6A002B05D07B681B6A7A68526A10469847B9
:403140007B681B78DBB283F00103DBB2002B07D0214BD3F854382048984700237B6056E07B689A697B685A617B6800229A614EE07B7883F00103DBB2002B48D0FB78002B7E
:4031800007D0154BD3F854381348984700237B603DE07B689B695B7E002B21D07B681B899BB2132B07D90C4BD3F854380A48984700237B602BE07B681B899BB201339AB222
:4031C0007B681A817B689A697B685A617B6800229A611CE0E83500208C670020F43500207B685B899BB2002B05D117F055FD03461A467B685A817B689A697B685A617B68FC
:4032000000229A61104BD3F844380F4898470F4B00221A710D4B0022DA800D4800214FF4007219F02AFF7B68DB6903F5D073184600214FF4C07219F020FF15F0A7FF15F033
:40324000FDFD0837BD4680BD8C670020E8350020F435002080B584B000AF78601B4B1B8801339AB2194B1A80194BD3F8503818489847F860FB68002B1BD0FB689B69002B6C
:4032800017D0FB689B691B8A002B06D0FB685B8A9BB201339AB2FB685A82FB689B695B69002B06D0FB689B899BB201339AB2FB689A8117F0F1FC03461A46064B1A80034BF2
:4032C00000221A801037BD4680BD00BFCED0FF1F8C670020CCD0FF1F80B582B000AF8F4BD3F850388D48984778607B68002B00F011817B685B69002B00F00C810023FB7007
:403300000023BB7000237B70854B00221A71844B0022DA80834800214FF4007219F0ADFE7B68DB6903F5D073184600214FF4C07219F0A3FE00233B7079E07B685A693B7894
:4033400013449B7FFF2B6ED00123BB70FB7883F00103DBB2002B05D07B685A693B7813449B7EFB707B68DB699B78DAB27B6859693B780B449B7F9A4256D17B685B69DB6A04
:40338000002B06D07B685B69DB6A7A68D269104698477B685B695B68002B29D07B68DB695F4A13607B685B691B7E002B06D07B685B691B7E9AB25A4BDA8004E07B685B69A6
:4033C000DB68574A93607B685B691B687A68D269104698477B685A697B689A617B6800225A6117F059FC03461A467B681A8217E07B685B691B687A68D269104698477B685C
:403400001B6A002B05D07B681B6A7A68526A10469847424BD3F854384048984700237B6001237B7006E005E03B7801333B703B78032B82D9BB7883F00103DBB2002B53D056
:403440007B685B69DB6A002B06D07B685B69DB6A7A68D269104698477B685B695B68002B29D07B68DB692E4A13607B685B691B7E002B06D07B685B691B7E9AB2284BDA80E7
:4034800004E07B685B69DB68254A93607B685B691B687A68D269104698477B685A697B689A617B6800225A6117F0F6FB03461A467B681A822EE07B685B691B687A68D269A7
:4034C000104698477B681B6A002B05D07B681B6A7A68526A10469847104BD3F854380F48984700237B6015E07B7883F00103DBB2002B0FD0FB78002B07D0084BD3F85438F9
:403500000648984700237B6004E0044BD3F84438024898470837BD4680BD00BF8C670020E8350020F435002080B584B000AF08F0F7FCFDF711FCF860FB68002B47D00023C2
:40354000FB72FB7AFA68134420225A70FB7A5A1CFA72FA6802339B001344934A5A60FB7AFA68134424225A70FB7A5A1CFA72FA6802339B0013448D4A5A60FB7AFA68134450
:4035800007225A70FB7A5A1CFA72FA6802339B001344874A5A60FB7AFA68134408225A70FB7A5A1CFA72FA6802339B001344814A5A60FB7AFA6813440D225A70FB7A5A1C14
:4035C000FA72FA6802339B0013447B4A5A60FDF7C3FBF860FB68002B71D00023BB72BB7AFA6813440E225A70BB7A5A1CBA72FA6802339B001344714A5A60BB7AFA68134483
:403600000F225A70BB7A5A1CBA72FA6802339B0013446B4A5A60BB7AFA68134410225A70BB7A5A1CBA72FA6802339B001344654A5A60BB7AFA68134412225A70BB7A5A1C76
:40364000BA72FA6802339B0013445F4A5A60BB7AFA68134413225A70BB7A5A1CBA72FA6802339B001344594A5A60BB7AFA68134411225A70BB7A5A1CBA72FA6802339B0094
:403680001344534A5A60BB7AFA68134414225A70BB7A5A1CBA72FA6802339B0013444D4A5A60BB7AFA68134415225A70BB7A5A1CBA72FA6802339B001344474A5A60FDF72F
:4036C000BBF878607B68002B0CD07B680E225A707B6842F210729A807B6805229A707B680322DA70FDF7A8F878607B68002B0CD07B680F225A707B6843F698229A807B6858
:4037000005229A707B680322DA70FDF795F878607B68002B0CD07B682B225A707B6844F620629A807B6805229A707B680322DA70FDF782F878607B68002B10D07B68082269
:403740005A707B6844F620629A807B684FF4FA725A817B6806229A707B680322DA70FDF76BF878607B68002B0ED07B6814225A707B6800229A807B681E225A817B680622CC
:403780009A707B680322DA7017F086FA03461A46124B1A801248FCF7A1FD1248FCF79EFD1037BD4680BD00BF152C0000612D000055320000DD1D0000D9280000892700006C
:4037C000392100004D22000079230000E926000095200000D93200004D1D0000CCD0FF1FAD2E0000A52F000090B58DB004AF786003233B724FF6FF73BB810023FB81C52368
:40380000BB72294BFB617B68BB61BB691B78002B24D1A320FCF77CFC78617B69002B1CD07B691C1DF86919F09DFC03469BB2009301AA07F1080393E8030082E80300202091
:40384000EA212246FB6904F04BF903461A467B695A807B69C2221A7023E022E0A420FCF757FC38613B69002B1BD03B691C1DF86919F078FC03469BB2009301AA07F108038C
:4038800093E8030082E803002020EA212246FB6904F026F903461A463B695A803B69C2221A702437BD4690BD90D9010090B585B000AF78607B68FB60FB681B78002B48D12C
:4038C000FB681C6B2E2006F005FA034623441B7B562B19D1FDF758FFFEF700F84FF40070FDF708FFFDF7F2FE03465B79FB72FDF7F7FEFB7A002B03D1FB68A5221A7173E031
:40390000FB68A6221A716FE0FB681C6B2E2006F0E1F9034623441B7B572B19D1FDF734FFFDF7DCFF4FF42070FDF7E4FEFDF7CEFE03465B79BB72FDF7D3FEBB7A002B03D126
:40394000FB68A5221A7103E0FB68A6221A714BE04AE0FB681B78012B46D1FB681C6B2E2006F0B8F9034623441B7B562B19D1FDF70BFFFDF7B3FF4FF43070FDF7BBFEFDF7B3
:40398000A5FE03465B797B72FDF7AAFE7B7A002B03D1FB68A5221A7126E0FB68A6221A7122E0FB681C6B2E2006F094F9034623441B7B572B18D1FDF7E7FEFDF78FFF4FF44D
:4039C0001070FDF797FEFDF781FE03465B793B72FDF786FE3B7A002B03D1FB68A5221A7102E0FB68A6221A711437BD4690BD00BFB0B586B000AF78607B687B61786906F0F6
:403A0000B1F903461A4640F6C83303FB02F3464A13443B613B69002B00F083803B69D3F8443B386998473B69D3F8583B38699847F8603B69D3F8483B38699847FB68002B82
:403A40006FD00023FB72FB68E3225A70FB7A5A1CFA7219463B691A78FB680B449A70FB7AFA6813449D1C7B691C6B242006F032F90346083323441C1D242006F04FF90346F7
:403A8000284621461A4619F0EDFA242006F046F903461A46FB7A1344FB72FB7AFA6813449D1C7B691C6B252006F014F90346083323441C1D252006F031F903462846214645
:403AC0001A4619F0CFFAFB7AFA6813449C1CFB7AFA6813440233184619F044FB0346DBB220461946FCF72CFD252006F017F903461A46FB7A1344FB72FB7A9AB2FB68A3F802
:403B000002213B69D3F8443B386998473B69D3F8503B3869F96898473B69D3F8483B386998471837BD46B0BD58380020B0B590B004AF786003233B724FF6FF73BB8100231F
:403B4000FB818523BB727B68FB62FDF71DFEFDF7C5FE4FF4E070FDF7CDFDFDF7B7FD03461B7A87F82B30FDF7BBFDFB6A1B78002B47D1A320FCF7CCFA78627B6A002B3FD0E1
:403B800007F1100318460021102219F076FA97F82B30012B09D197F82B3007F1100210463C491A4619F0ACFA08E097F82B3007F11002104638491A4619F0A2FA7B6A1D1D2B
:403BC00007F11003184619F0CDFA03469BB207F11004009301AA07F1080393E8030082E80300F0204FF495712A46234603F078FF03461A467B6A5A807B6AC2221A7046E041
:403C000045E0A420FCF784FA38623B6A002B3ED007F1100318460021102219F02EFA97F82B30012B09D197F82B3007F11002104618491A4619F064FA08E097F82B3007F199
:403C40001002104614491A4619F05AFA3B6A1D1D07F11003184619F085FA03469BB207F11004009301AA07F1080393E8030082E80300F0204FF495712A46234603F030FFD0
:403C800003461A463B6A5A803B6AC2221A703037BD46B0BDB8D90100C4D9010090B58DB004AF786003233B724FF6FF73BB810023FB81C523BB72294BFB617B68BB61BB6948
:403CC0001B78002B24D1A320FCF722FA78617B69002B1CD07B691C1DF86919F043FA03469BB2009301AA07F1080393E8030082E803006020EA212246FB6903F0F1FE034663
:403D00001A467B695A807B69C2221A7023E022E0A420FCF7FDF938613B69002B1BD03B691C1DF86919F01EFA03469BB2009301AA07F1080393E8030082E803006020EA2162
:403D40002246FB6903F0CCFE03461A463B695A803B69C2221A702437BD4690BDD0D90100F0B58FB004AF786003233B734FF6FF733B8200237B82C523BB734F4BBB607B68A7
:403D80007B627B6A1B78002B4AD1A320FCF7C0F938623B6A002B42D00023FB77BA23BB833B6A00225A803B6A5B889BB21A463B6A13441D1DFB7F9B0007F12802134453F8E8
:403DC000204CFB7F9B0007F12802134453F8203C184619F0C7F903469BB2BE8B009301AA07F10C0393E8030082E803001A2031462A46234603F074FE03461A463B6A5B88CC
:403E00009BB213449AB23B6A5A80BB8B2033BB83FB7F0133FB773B6AC2221A7049E048E0A420FCF775F9B861BB69002B41D00023FB75BA23BB82BB6900225A80BB695B8846
:403E40009BB21A46BB6913441D1DFB7D9B0007F12802134453F8204CFB7D9B0007F12802134453F8203C184619F07CF903469BB2BE8A009301AA07F10C0393E8030082E883
:403E800003001A2031462A46234603F029FE03461A46BB695B889BB213449AB2BB695A80BB8A2033BB82FB7D0133FB75BB69C2221A702C37BD46F0BD90DA01002DE9F04175
:403EC00096B004AF786003233B7500233B834FF6FF737B838523BB75002387F847300023A7F844300023A7F842307B68FB63F86B05F038FF0346032B3ED801A252F823F0CD
:403F0000113F00002B3F0000453F00005F3F0000BD4BDB7887F847304FF40073A7F844304FF44073A7F8423026E0B74B1B7987F847304FF41073A7F844304FF45073A7F874
:403F4000423019E0B04B5B7987F847304FF42073A7F844304FF46073A7F842300CE0AA4B9B7987F847304FF43073A7F844304FF47073A7F8423000BFFB6B1B78002B40F0D3
:403F80000881FDF701FCFDF7A9FCB7F844301846FDF7B0FBFDF79AFB03465A1C07F1100310681860FDF79CFBFDF7EEFBFDF796FCB7F842301846FDF79DFB002387F841307F
:403FC000DDE097F8413007F14802134413F8383C013B032B00F2CE8001A252F823F000BFF13F00004F400000B140000013410000A320FCF78DF8B863BB6B002B26D097F853
:404000004130824A32F8236097F841307F4A9B0013445D88BB6B1C1DFDF758FB86461023009301AA07F1140393E8030082E80300304629462246734603F052FD03461A4628
:40404000BB6B5A80BB6BC2221A7093E092E0A320FCF75EF878637B6B002B28D097F841306A4A32F8238097F84130684A9B0013445E887B6B1D1DFDF729FB034603F1100443
:404080001023009301AA07F1140393E8030082E80300404631462A46234603F021FD03461A467B6B5A807B6BC2221A7062E061E0A320FCF72DF838633B6B002B28D097F8A0
:4040C0004130524A32F8238097F841304F4A9B0013445E883B6B1D1DFDF7F8FA034603F120041023009301AA07F1140393E8030082E80300404631462A46234603F0F0FC2E
:4041000003461A463B6B5A803B6BC2221A7031E030E0A320FBF7FCFFF862FB6A002B28D097F84130394A32F8238097F84130374A9B0013445E88FB6A1D1DFDF7C7FA034649
:4041400003F130041023009301AA07F1140393E8030082E80300404631462A46234603F0BFFC03461A46FB6A5A80FB6AC2221A70FFE700BF97F84130013387F8413097F815
:40418000412097F847309A42FFF41BAFFDF7A8FA0EE1FB6B1B78012B40F00A81FDF7F4FAFDF79CFBB7F844301846FDF7A3FAFDF78DFA03465A1C07F10C0310681860FDF7F6
:4041C0008FFAFDF7E1FAFDF789FBB7F842301846FDF790FA002387F84030E0E097F8403007F14802134413F83C3C013B032B00F2D18001A252F823F0114200006F42000054
:40420000D14200003343000078670020BC83FF1FA420FBF77DFFB862BB6A002B26D097F84030654A32F8236097F84030624A9B0013445D88BB6A1C1DFDF748FA8646102397
:40424000009301AA07F1140393E8030082E80300304629462246734603F042FC03461A46BB6A5A80BB6AC2221A7093E092E0A420FBF74EFF78627B6A002B28D097F84030CB
:404280004D4A32F8238097F840304B4A9B0013445E887B6A1D1DFDF719FA034603F110041023009301AA07F1140393E8030082E80300404631462A46234603F011FC03462D
:4042C0001A467B6A5A807B6AC2221A7062E061E0A420FBF71DFF38623B6A002B28D097F84030354A32F8238097F84030324A9B0013445E883B6A1D1DFDF7E8F9034603F106
:4043000020041023009301AA07F1140393E8030082E80300404631462A46234603F0E0FB03461A463B6A5A803B6AC2221A7031E030E0A420FBF7ECFEF861FB69002B28D06E
:4043400097F840301C4A32F8238097F840301A4A9B0013445E88FB691D1DFDF7B7F9034603F130041023009301AA07F1140393E8030082E80300404631462A46234603F0E9
:40438000AFFB03461A46FB695A80FB69C2221A70FFE700BF97F84030013387F8403097F8402097F847309A42FFF418AFFDF798F94837BD46BDE8F081BC83FF1FF0B58FB0EA
:4043C00004AF786003233B734FF6FF733B8200237B82C523BB734F4BBB607B687B627B6A1B78002B4AD1A320FBF792FE38623B6A002B42D00023FB77BA23BB833B6A002249
:404400005A803B6A5B889BB21A463B6A13441D1DFB7F9B0007F12802134453F8204CFB7F9B0007F12802134453F8203C184618F099FE03469BB2BE8B009301AA07F10C039C
:4044400093E8030082E803001A2031462A46234603F046FB03461A463B6A5B889BB213449AB23B6A5A80BB8B2033BB83FB7F0133FB773B6AC2221A7049E048E0A420FBF7E2
:4044800047FEB861BB69002B41D00023FB75BA23BB82BB6900225A80BB695B889BB21A46BB6913441D1DFB7D9B0007F12802134453F8204CFB7D9B0007F12802134453F8EE
:4044C000203C184618F04EFE03469BB2BE8A009301AA07F10C0393E8030082E803001A2031462A46234603F0FBFA03461A46BB695B889BB213449AB2BB695A80BB8A2033F8
:40450000BB82FB7D0133FB75BB69C2221A702C37BD46F0BDB8DA010090B585B000AF78607B68FB60F86805F01DFC03461A4640F6C83303FB02F31C4A1344BB60BB6893F8EA
:40454000A83BDBB2002B28D0BB68002283F8A82BFB681C6B0B2005F0BDFB0346083323441C1D0B2005F0DAFB0346204600211A4618F083FDFB681C6B0B2005F0ABFB034689
:40458000234439221A73FB681C6B052005F0A2FB0346234444221A7302E0BB6808221A731437BD4690BD00BF58380020B0B588B000AF78607B68BB61B86905F0D3FB034652
:4045C0001A4640F6C83303FB02F3844A13447B617B69D3F8443B786998477B69D3F8583B7869984738617B69D3F8483B786998473B69002B00F0EE800023FB773B69A22291
:404600005A70FB7F5A1CFA7719467B691A783B690B449A70FB7F5A1CFA771D46BB691C6B072005F057FB034623441A7B3B692B449A70FB7F3A6913449D1CBB691C6B122034
:4046400005F048FB0346083323441C1D122005F065FB0346284621461A4618F003FDFB7F3A6913449C1C122005F058FB034620461946FBF765FF122005F050FB03461A46AC
:40468000FB7F1344FB77FB7F0133FB77FB7F3A6913449D1CBB691C6B0E2005F01BFB0346083323441C1D0E2005F038FB0346284621461A4618F0D6FCFB7F3A6913449C1C88
:4046C0000E2005F02BFB034620461946FBF738FF0E2005F023FB03461A46FB7F1344FB77BB691C6B052005F0F5FA034623441B7BFB73FB7B102B0CD0432B13D00F2B1AD1A2
:40470000FB7F5A1CFA771A463B69134402229A7011E0FB7F5A1CFA771A463B69134401229A7008E0FB7F5A1CFA771A463B69134403229A7000BFFB7F3A6913449D1CBB69D2
:404740001C6B062005F0C6FA034608332344043328461946082218F085FCFB7B102B07D1FB7F3A69134402331846082102F04CFCFB7F3A691344023318460821FBF7E0FE42
:40478000FB7F0833FB77BB691C6B062005F0A2FA034608332344043318460021082218F06CFCFB7F9AB23B69A3F802217B69002283F8A82B7B69D3F8443B786998477B69E7
:4047C000D3F8503B7869396998477B69D3F8483B786998472037BD46B0BD00BF58380020F0B58BB004AF78607B687B617B69002B65D07B691B699A8D7B691A837B691B69F3
:40480000DA8D7B695A837B691B78002B2CD1A320FBF77EFC38613B69002B24D07B69B3F818E07B695E8B3B691D1D7B6903F11D047B691B6993F830309BB27A69126900936A
:4048400001AB32321068516803C3704631462A46234603F045F903461A463B695A803B69C2221A702BE02AE0A420FBF751FCF860FB68002B23D07B69B3F818E07B695E8B7C
:40488000FB681D1D7B6903F11D047B691B6993F830309BB27A691269009301AB32321068516803C3704631462A46234603F018F903461A46FB685A80FB68C2221A701C37B6
:4048C000BD46F0BDB0B584B000AF78607B68BB60BB68002B58D00023FB8100237B732EE0BB681B7F1A467B7BD31A013B184617F095FD02460B464FF00000254916F060FBDC
:4049000004460D467B7BBA6813445B7F03F00F03184617F083FD02460B462046294617F0E3FD02460B461046194618F077F803469AB2FB891344FB817B7B01337B73BB6866
:404940001B7F7A7B9A42CBD3FCF71EFFFCF7C6FF4FF4A070FCF7CEFEFCF7B8FE0346FA89D2B21A70FCF7B2FE03460133FA89120A92B2D2B21A704FF4A070FCF769FF054AC3
:40498000FB891380FCF7ACFE1037BD46B0BD00BF0000244024D0FF1F90B585B000AF78607B68FB60FB68002B3DD0FCF7EDFEFCF795FF4FF4A070FCF79DFEFCF787FE034676
:4049C00001331B781B029CB2FCF780FE03461B789BB2224613439BB27B81FCF781FEFB681D3318460021102218F047FB7A894FF00003F96801F11D04104619462246FBF7FC
:404A0000B1FCFB681D33184618F0ACFB0346DAB2FB681A77FB6803F11D02FB681B7F10461946FBF78DFD1437BD4690BD90B585B000AF78607B68FB60FB68002B32D0FCF73F
:404A4000A3FEFCF74BFF4FF4E070FCF753FEFCF73DFE03465B7AFB72FCF742FEFB681D3318460021102218F008FBFA7A4FF00003F96801F11D04104619462246FBF772FC7F
:404A8000FB681D33184618F06DFB0346DAB2FB681A77FB6803F11D02FB681B7F10461946FBF74EFD1437BD4690BD00BFF0B58BB004AF78607B687B617B69002B65D07B699B
:404AC0001B699A8D7B691A837B691B69DA8D7B695A837B691B78002B2CD1A320FBF718FB38613B69002B24D07B69B3F818E07B695E8B3B691D1D7B6903F11D047B691B69A4
:404B000093F830309BB27A691269009301AB32321068516803C3704631462A46234602F0DFFF03461A463B695A803B69C2221A702BE02AE0A420FBF7EBFAF860FB68002BA0
:404B400023D07B69B3F818E07B695E8BFB681D1D7B6903F11D047B691B6993F830309BB27A691269009301AB32321068516803C3704631462A46234602F0B2FF03461A466E
:404B8000FB685A80FB68C2221A701C37BD46F0BDB0B584B000AF78607B68BB60BB68002B50D00023FB730023BB732FE0BB681B7F1A46BB7BD31A013B184617F02FFC024613
:404BC0000B464FF00000214916F0FAF904460D46BB7BBA6813445B7F03F00F03184617F01DFC02460B462046294617F07DFC02460B461046194617F011FF03469BB2DAB2A4
:404C0000FB7B1344FB73BB7B0133BB73BB681B7FBA7B9A42CAD3FCF7B7FDFCF75FFE4FF4E070FCF767FDFCF751FD03460933FA7B1A704FF4E070FCF70BFE054AFB7B937435
:404C4000FCF74EFD1037BD46B0BD00BF000024407867002080B588B000AF78607B68FB61FB69D3F89031BB61BB69002B38D0BB6913229A72BB6903F11D02FB690C331046F2
:404C80001946082218F0EEF9BB6908221A77FBF7D3FD78617B69002B22D0134A07F10C031068516803C3BB691B78002B03D17B691F225A7002E07B6923225A707B69032223
:404CC0009A707B690C331A4607F10C0303CB106051607B690822A3F88C217B690322DA702037BD4680BD00BFE0DA010080B485B000AF78607B68FB60FB685B6B002B0AD01B
:404D0000FB685B6B002B03D0FB685B6B01221A70FB6800225A631437BD465DF8047B704780B586B000AF78607B687B617B691B78002B22D1FBF780FD38613B69002B1BD053
:404D40007B693A695A633B697A69C3F890213B6927225A703B6932225A813B694FF47A729A803B69194AC3F894213B6906229A703B690322DA7025E024E07B691B78012B79
:404D800020D1FBF759FDF860FB68002B1AD07B69FA685A63FB687A69C3F89021FB6828225A70FB6832225A81FB684FF47A729A80FB68064AC3F89421FB6806229A70FB6865
:404DC0000322DA701837BD4680BD00BF554C0000B0B590B004AF786004233B724FF6FF73BB810023FB81C523BB727B68BB62BB6A1B78002B40F00482BB6A1B691B783E2B6C
:404E000040F0FE81A320FBF783F978627B6A002B00F01481002387F82F30FCF7B5FCFCF771FDFCF7F5FD07F1100318460021082218F023F9FCF75CFD034602331B7803F010
:404E40004003002B32D097F82F305A1C87F82F201C46FCF74DFD034602331B781B09DBB2DBB203F00103DBB243F03003DBB2DAB207F13003234403F8202C97F82F305A1C62
:404E800087F82F201C46FCF733FD034602331B78DBB203F00F03DBB243F03003DBB2DAB207F13003234403F8202C31E097F82F305A1C87F82F201C46FCF71AFD03460233EA
:404EC0001B781B09DBB2DBB203F00303DBB243F03003DBB2DAB207F13003234403F8202C97F82F305A1C87F82F201C46FCF700FD034602331B78DBB203F00F03DBB243F01C
:404F00003003DBB2DAB207F13003234403F8202C97F82F305A1C87F82F2007F1300213443A2203F8202C97F82F305A1C87F82F201C46FCF7DDFC034601331B781B09DBB2D5
:404F4000DBB203F00703DBB243F03003DBB2DAB207F13003234403F8202C97F82F305A1C87F82F201C46FCF7C3FC034601331B78DBB203F00F03DBB243F03003DBB2DAB2CE
:404F800007F13003234403F8202C97F82F305A1C87F82F2007F1300213443A2203F8202C97F82F305A1C87F82F201C46FCF7A0FC03461B781B09DBB2DBB203F00703DBB2FB
:404FC00043F03003DBB2DAB207F13003234403F8202C97F82F305A1C87F82F201C46FCF787FC03461B78DBB203F00F03DBB243F03003DBB2DAB207F13003234403F8202CFC
:40500000FCF76EFB7B6A1D1D97F82F309BB207F11004009301AA07F1080393E8030082E80300C920BA212A46234602F059FD03461A467B6A5A807B6AC2221A70A320FBF72D
:4050400067F878627B6A002B00F0D980002387F82330FCF799FBFCF755FCFCF7D9FC07F1100318460021082218F007F897F823305A1C87F823201C46FCF73AFC0346043336
:405080001B781B09DBB2DBB203F00303DBB243F03003DBB2DAB207F13003234403F8202C97F823305A1C87F823201C46FCF720FC034604331B78DBB203F00F03DBB243F051
:4050C0003003DBB2DAB207F13003234403F8202C97F823305A1C87F8232007F1300213442F2203F8202C97F823305A1C87F823201C46FCF7FDFB034605331B781B09DBB22C
:40510000DBB203F00103DBB243F03003DBB2DAB207F13003234403F8202C97F823305A1C87F823201C46FCF7E3FB034605331B78DBB203F00F03DBB243F03003DBB2DAB207
:4051400007F13003234403F8202C97F823305A1C87F8232007F1300213442F2203F8202C97F823305A1C87F823201C46FCF7C0FB034606331B781B09DBB2DBB243F0300340
:40518000DBB2DAB207F13003234403F8202C97F823305A1C87F823201C46FCF7A9FB034606331B78DBB203F00F03DBB243F03003DBB2DAB207F13003234403F8202CFCF76B
:4051C0008FFA7B6A1D1D97F823309BB207F11004009301AA07F1080393E8030082E80300C9204FF495712A46234602F079FC03461A467B6A5A807B6AC2221A70F5E1F4E1C8
:40520000BB6A1B78012B40F0F081BB6A1B691B783E2B40F0EA81A420FAF77AFFF861FB69002B00F01481002387F82E30FCF7ACFAFCF768FBFCF7ECFB07F1100318460021BB
:40524000082217F01AFFFCF753FB034602331B7803F04003002B32D097F82E305A1C87F82E201C46FCF744FB034602331B781B09DBB2DBB203F00103DBB243F03003DBB2A5
:40528000DAB207F13003234403F8202C97F82E305A1C87F82E201C46FCF72AFB034602331B78DBB203F00F03DBB243F03003DBB2DAB207F13003234403F8202C31E097F8B7
:4052C0002E305A1C87F82E201C46FCF711FB034602331B781B09DBB2DBB203F00303DBB243F03003DBB2DAB207F13003234403F8202C97F82E305A1C87F82E201C46FCF7FA
:40530000F7FA034602331B78DBB203F00F03DBB243F03003DBB2DAB207F13003234403F8202C97F82E305A1C87F82E2007F1300213443A2203F8202C97F82E305A1C87F8BE
:405340002E201C46FCF7D4FA034601331B781B09DBB2DBB203F00703DBB243F03003DBB2DAB207F13003234403F8202C97F82E305A1C87F82E201C46FCF7BAFA03460133D6
:405380001B78DBB203F00F03DBB243F03003DBB2DAB207F13003234403F8202C97F82E305A1C87F82E2007F1300213443A2203F8202C97F82E305A1C87F82E201C46FCF70A
:4053C00097FA03461B781B09DBB2DBB203F00703DBB243F03003DBB2DAB207F13003234403F8202C97F82E305A1C87F82E201C46FCF77EFA03461B78DBB203F00F03DBB228
:4054000043F03003DBB2DAB207F13003234403F8202CFCF765F9FB691D1D97F82E309BB207F11004009301AA07F1080393E8030082E80300C920BA212A46234602F050FBD9
:4054400003461A46FB695A80FB69C2221A70A420FAF75EFEF861FB69002B00F0C6800023FB76FCF791F9FCF74DFAFCF7D1FA07F1100318460021082217F0FFFDFB7E5A1C95
:40548000FA761C46FCF734FA034604331B781B09DBB2DBB203F00303DBB243F03003DBB2DAB207F13003234403F8202CFB7E5A1CFA761C46FCF71CFA034604331B78DBB260
:4054C00003F00F03DBB243F03003DBB2DAB207F13003234403F8202CFB7E5A1CFA7607F1300213442F2203F8202CFB7E5A1CFA761C46FCF7FDF9034605331B781B09DBB2DB
:40550000DBB203F00103DBB243F03003DBB2DAB207F13003234403F8202CFB7E5A1CFA761C46FCF7E5F9034605331B78DBB203F00F03DBB243F03003DBB2DAB207F1300393
:40554000234403F8202CFB7E5A1CFA7607F1300213442F2203F8202CFB7E5A1CFA761C46FCF7C6F9034606331B781B09DBB2DBB243F03003DBB2DAB207F13003234403F833
:40558000202CFB7E5A1CFA761C46FCF7B1F9034606331B78DBB203F00F03DBB243F03003DBB2DAB207F13003234403F8202CFCF797F8FB691D1DFB7E9BB207F11004009330
:4055C00001AA07F1080393E8030082E80300C9204FF495712A46234602F082FA03461A46FB695A80FB69C2221A703037BD46B0BDB0B590B004AF786002233B724FF6FF7350
:40560000BB810023FB81C523BB727B68BB62BB6A1B78002B40F0DE81BB6A1B691B78012B40F0D881A320FAF773FD78627B6A002B00F0EA80002387F82F30FCF7A5F8FCF72B
:4056400061F9FCF7E5F907F1100318460021082217F013FDFCF74CF9034602331B7803F04003002B32D097F82F305A1C87F82F201C46FCF73DF9034602331B781B09DBB209
:40568000DBB203F00103DBB243F03003DBB2DAB207F13003234403F8202C97F82F305A1C87F82F201C46FCF723F9034602331B78DBB203F00F03DBB243F03003DBB2DAB22F
:4056C00007F13003234403F8202C31E097F82F305A1C87F82F201C46FCF70AF9034602331B781B09DBB2DBB203F00303DBB243F03003DBB2DAB207F13003234403F8202C09
:4057000097F82F305A1C87F82F201C46FCF7F0F8034602331B78DBB203F00F03DBB243F03003DBB2DAB207F13003234403F8202CA74B5B78002B0BD097F82F305A1C87F8C4
:405740002F2007F1300213443A2203F8202C0AE097F82F305A1C87F82F2007F130021344202203F8202C97F82F305A1C87F82F201C46FCF7BDF8034601331B781B09DBB293
:40578000DBB203F00703DBB243F03003DBB2DAB207F13003234403F8202C97F82F305A1C87F82F201C46FCF7A3F8034601331B78DBB203F00F03DBB243F03003DBB2DAB2AA
:4057C00007F13003234403F8202CFBF789FF7B6A1D1D97F82F309BB207F11004009301AA07F1080393E8030082E8030010204FF4DD712A46234602F073F903461A467B6A3E
:405800005A807B6AC2221A70A320FAF781FC78627B6A002B00F0DA80002387F82330FBF7B3FFFCF76FF8FCF7F3F807F1100318460021082217F021FC97F823305A1C87F856
:4058400023201C46FCF754F8034604331B781B09DBB2DBB203F00303DBB243F03003DBB2DAB207F13003234403F8202C97F823305A1C87F823201C46FCF73AF803460433F4
:405880001B78DBB203F00F03DBB243F03003DBB2DAB207F13003234403F8202C97F823305A1C87F8232007F1300213442F2203F8202C97F823305A1C87F823201C46FCF73C
:4058C00017F8034605331B781B09DBB2DBB203F00103DBB243F03003DBB2DAB207F13003234403F8202C97F823305A1C87F823201C46FBF7FDFF034605331B78DBB203F06D
:405900000F03DBB243F03003DBB2DAB207F13003234403F8202C97F823305A1C87F8232007F1300213442F2203F8202C97F823305A1C87F823201C46FBF7DAFF0346063374
:405940001B781B09DBB2DBB243F03003DBB2DAB207F13003234403F8202C97F823305A1C87F823201C46FBF7C3FF034606331B78DBB203F00F03DBB243F03003DBB2DAB21B
:4059800007F13003234403F8202CFBF7A9FE7B6A1D1D97F823309BB207F11004009301AA07F1080393E8030082E803004FF404704FF4DD712A46234602F092F803461A46A9
:4059C0007B6A5A807B6AC2221A70CFE1CEE100BFAC83FF1FBB6A1B78012B40F0C781BB6A1B691B78012B40F0C181A420FAF790FBF861FB69002B00F0EA80002387F82E3072
:405A0000FBF7C2FEFBF77EFFFCF702F807F1100318460021082217F030FBFBF769FF034602331B7803F04003002B32D097F82E305A1C87F82E201C46FBF75AFF0346023349
:405A40001B781B09DBB2DBB203F00103DBB243F03003DBB2DAB207F13003234403F8202C97F82E305A1C87F82E201C46FBF740FF034602331B78DBB203F00F03DBB243F053
:405A80003003DBB2DAB207F13003234403F8202C31E097F82E305A1C87F82E201C46FBF727FF034602331B781B09DBB2DBB203F00303DBB243F03003DBB2DAB207F1300387
:405AC000234403F8202C97F82E305A1C87F82E201C46FBF70DFF034602331B78DBB203F00F03DBB243F03003DBB2DAB207F13003234403F8202C9F4B1B7A002B0BD097F8CC
:405B00002E305A1C87F82E2007F1300213443A2203F8202C0AE097F82E305A1C87F82E2007F130021344202203F8202C97F82E305A1C87F82E201C46FBF7DAFE03460133A3
:405B40001B781B09DBB2DBB203F00703DBB243F03003DBB2DAB207F13003234403F8202C97F82E305A1C87F82E201C46FBF7C0FE034601331B78DBB203F00F03DBB243F0CE
:405B80003003DBB2DAB207F13003234403F8202CFBF7A6FDFB691D1D97F82E309BB207F11004009301AA07F1080393E8030082E8030010204FF4DD712A46234601F090FF01
:405BC00003461A46FB695A80FB69C2221A70A420FAF79EFAF861FB69002B00F0C7800023FB76FBF7D1FDFBF78DFEFBF711FF07F1100318460021082217F03FFAFB7E5A1CCA
:405C0000FA761C46FBF774FE034604331B781B09DBB2DBB203F00303DBB243F03003DBB2DAB207F13003234403F8202CFB7E5A1CFA761C46FBF75CFE034604331B78DBB252
:405C400003F00F03DBB243F03003DBB2DAB207F13003234403F8202CFB7E5A1CFA7607F1300213442F2203F8202CFB7E5A1CFA761C46FBF73DFE034605331B781B09DBB20F
:405C8000DBB203F00103DBB243F03003DBB2DAB207F13003234403F8202CFB7E5A1CFA761C46FBF725FE034605331B78DBB203F00F03DBB243F03003DBB2DAB207F13003C8
:405CC000234403F8202CFB7E5A1CFA7607F1300213442F2203F8202CFB7E5A1CFA761C46FBF706FE034606331B781B09DBB2DBB243F03003DBB2DAB207F13003234403F868
:405D0000202CFB7E5A1CFA761C46FBF7F1FD034606331B78DBB203F00F03DBB243F03003DBB2DAB207F13003234403F8202CFBF7D7FCFB691D1DFB7E9BB207F11004009322
:405D400001AA07F1080393E8030082E803004FF404704FF4DD712A46234601F0C1FE03461A46FB695A80FB69C2221A703037BD46B0BD00BFAC83FF1FB0B5D8B004AF3B1D25
:405D80001860042387F814314FF6FF73A7F818310023A7F81A31C52387F816313B1D1B68C7F84C31D7F84C31D3F89031C7F84831D7F848311B78002B40F04383D7F84831BB
:405DC0001B691B78012B40F03C83A320FAF7A0F9C7F84401D7F84431002B30D0914B1B785A1CD1B28F4A11701A468E4B1344DB7887F81C318B4B1B78032B02D9894B0022D8
:405E00001A70D7F844311D1D07F58E740123009301AA07F58A7393E8030082E803004FF4147012212A46234601F05AFE03461A46D7F844315A80D7F84431C2221A7007F585
:405E4000887318460021022217F017F907F58873D7F84801194602F00DFF07F58673D7F84801194603F04CF897F81131002B44D1A320FAF74DF9C7F84401D7F84431002BE0
:405E80005FD097F80D31002B1BD0674A07F580731068516803C312891A80D7F8443104331A4607F5807303CB106051601B881381D7F844310A225A80D7F84431C2221A7018
:405EC0003FE05A4A07F1F4031068516803C312891A80D7F8443104331A4607F1F40303CB106051601B881381D7F844310A225A80D7F84431C2221A7023E0A320FAF708F920
:405F0000C7F84401D7F84431002B1AD0484A07F1E8031068516803C312891A80D7F8443104331A4607F1E80303CB106051601B881381D7F844310A225A80D7F84431C2220D
:405F40001A70A320FAF7E4F8C7F84401D7F84431002B1DD0374A07F1D803144620686168A26807C3A2891A80D7F8443104331C4607F1D80307CB20606160A2601B88A38183
:405F8000D7F844310E225A80D7F84431C2221A7097F81031002B4FD1A320FAF7B9F8C7F84401D7F84431002B6AD097F80C31002B1BD01D4A07F1CC031068516803C3128912
:405FC0001A80D7F8443104331A4607F1CC0303CB106051601B881381D7F844310A225A80D7F84431C2221A704AE0104A07F1C0031068516803C312891A80D7F8443104335D
:406000001A4607F1C00303CB106051601B881381D7F844310A225A80D7F84431C2221A702EE000BFAC83FF1F98DB0100A4DB0100F0D90100B0DB0100A320FAF769F8C7F8EB
:406040004401D7F84431002B1AD0C44A07F1B4031068516803C312891A80D7F8443104331A4607F1B40303CB106051601B881381D7F844310A225A80D7F84431C2221A70ED
:40608000A320FAF745F8C7F84401D7F84431002B1DD0B34A07F1A403144620686168A26807C3A2891A80D7F8443104331C4607F1A40307CB20606160A2601B88A381D7F888
:4060C00044310E225A80D7F84431C2221A704FF6FF73A7F818310023A7F81A31A14B9B781A46642303FB02F3B3F5FA6F47DDD7F84801FFF77DFA9B4B00229A70994B5B7867
:40610000002B14BF01230023DBB283F00103DBB203F00103DAB2934B5A70934BC7F84031012387F81431A320F9F7F2FFC7F83C01D7F83C31002B21D0D7F83C311C1DD7F82C
:40614000400117F00FF803469BB2009301AA07F58A7393E8030082E803000F200E212246D7F8403101F0BCFC03461A46D7F83C315A80D7F83C31C2221A7006E005E0794B71
:406180009B780133DAB2774B9A70012387F81431764B5B7B83F00103DBB2002B64D0744B1B781846FAF7F0FB0346002B2ED0A320F9F7AEFFC7F84401D7F84431002B53D06A
:4061C0006C4BC7F83831D7F844311C1DD7F8380116F0C8FF03469BB2009301AA07F58A7393E8030082E80300B8204FF4E8712246D7F8383101F074FC03461A46D7F8443154
:406200005A80D7F84431C2221A702DE0A320F9F77FFFC7F84401D7F84431002B24D007F10C0318460021202216F027FFD7F844311D1D07F10C042023009301AA07F58A7339
:4062400093E8030082E80300B8204FF4E8712A46234601F045FC03461A46D7F844315A80D7F84431C2221A70434B1B78DBB2002B00F08880A320F9F74BFFC7F84401D7F89A
:406280004431002B00F0DC803B4B5B78DBB2002B2FD03A4BC7F83431D7F844311C1DD7F8340116F05FFF03462046D7F834111A4616F0D8FED7F844311C1DD7F8340116F0CE
:4062C00051FF03469BB2009301AA07F58A7393E8030082E80300B8204FF4E8712246D7F8343101F0FDFB03461A46D7F844315A802EE0234BC7F83031D7F844311C1DD7F8EE
:40630000300116F02FFF03462046D7F830111A4616F0A8FED7F844311C1DD7F8300116F021FF03469BB2009301AA07F58A7393E8030082E80300B8204FF4E8712246D7F827
:40634000303101F0CDFB03461A46D7F844315A80D7F84431C2221A709EE300BFF0D90100C0DB0100AC83FF1FE8DA01003483FF1F54380020F8DA0100786700201CDB010089
:4063800044DB0100CB4B1B7883F00103DBB2002B56D0A320F9F7BCFEC7F84401D7F84431002B49D007F10C0318462021282216F064FEC14B9B78042B0DD107F10C03BF4A32
:4063C0001C4615460FCD0FC40FCD0FC495E8030084E803000CE007F10C03B94A1C4615460FCD0FC40FCD0FC495E80F0007C42380D7F844311D1D07F10C03184616F0B2FEEF
:4064000003469BB207F10C04009301AA07F58A7393E8030082E80300A0204FF4E8712A46234601F05DFB03461A46D7F844315A80D7F84431C2221A709E4B01221A702BE301
:406440002AE3D7F848311B78012B40F02583D7F848311B691B78012B40F01E83A420F9F757FEC7F82C01D7F82C31002B30D0954BDB795A1CD1B2934AD1711A46914B1344A9
:406480009B7A87F81C318F4BDB79032B02D98D4B0022DA71D7F82C311D1D07F58E740123009301AA07F58A7393E8030082E803004FF4147012212A46234601F011FB0346BC
:4064C0001A46D7F82C315A80D7F82C31C2221A7007F1A00318460021022216F0CEFD07F1A003D7F84801194602F0C4FB07F19C03D7F84801194602F003FD97F8A130002B3F
:4065000044D1A420F9F704FEC7F82C01D7F82C31002B5FD097F89D30002B1BD06A4A07F190031068516803C312891A80D7F82C3104331A4607F1900303CB106051601B8861
:406540001381D7F82C310A225A80D7F82C31C2221A703FE05D4A07F184031068516803C312891A80D7F82C3104331A4607F1840303CB106051601B881381D7F82C310A228A
:406580005A80D7F82C31C2221A7023E0A420F9F7BFFDC7F82C01D7F82C31002B1AD04C4A07F178031068516803C312891A80D7F82C3104331A4607F1780303CB106051606D
:4065C0001B881381D7F82C310A225A80D7F82C31C2221A70A420F9F79BFDC7F82C01D7F82C31002B1DD03B4A07F16803144620686168A26807C3A2891A80D7F82C3104338D
:406600001C4607F1680307CB20606160A2601B88A381D7F82C310E225A80D7F82C31C2221A7097F8A030002B56D1A420F9F770FDC7F82C01D7F82C31002B70D097F89C3039
:40664000002B1BD0204A07F15C031068516803C312891A80D7F82C3104331A4607F15C0303CB106051601B881381D7F82C310A225A80D7F82C31C2221A7050E007F1500390
:40668000124A1068516803C312891A80D7F82C311A1D07F1500303CB106051601B881381D7F82C310A225A80D7F82C31C2221A7035E000BFD0D0FF1F78670020D0DB010075
:4066C00068DB0100AC83FF1F98DB0100A4DB0100F0D90100B0DB0100A420F9F719FDC7F82C01D7F82C31002B19D007F14403C54A1068516803C312891A80D7F82C311A1DEC
:4067000007F1440303CB106051601B881381D7F82C310A225A80D7F82C31C2221A70A420F9F7F6FCC7F82C01D7F82C31002B1DD007F13403B44A144620686168A26807C3A6
:40674000A2891A80D7F82C311A1D07F13403144607CB20606160A2601B88A381D7F82C310E225A80D7F82C31C2221A704FF6FF73A7F818310023A7F81A31A44B5B7A1A46EC
:40678000642303FB02F3B3F5FA6F16DDD7F84801FEF72EFF9D4B00225A729C4B1B7A002B14BF01230023DBB283F00103DBB203F00103DAB2954B1A7205E0944B5B7A01333D
:4067C000DAB2924B5A72012387F81431904B5B7B83F00103DBB2002B64D08E4B5B781846FAF7D2F80346002B2ED0A420F9F790FCC7F82C01D7F82C31002B53D0864BC7F8FB
:406800002831D7F82C311C1DD7F8280116F0AAFC03469BB2009301AA07F58A7393E8030082E80300B8204FF4E8712246D7F8283101F056F903461A46D7F82C315A80D7F87C
:406840002C31C2221A702DE0A420F9F761FCC7F82C01D7F82C31002B24D007F10C0318460021202216F009FCD7F82C311D1D07F10C042023009301AA07F58A7393E80300BF
:4068800082E80300B8204FF4E8712A46234601F027F903461A46D7F82C315A80D7F82C31C2221A705D4B1B78DBB2002B72D0A420F9F72EFCC7F82C01D7F82C31002B00F07E
:4068C000EB80564B5B78DBB2002B2FD0544BC7F82431D7F82C311C1DD7F8240116F042FC03462046D7F824111A4616F0BBFBD7F82C311C1DD7F8240116F034FC03469BB2BE
:40690000009301AA07F58A7393E8030082E80300B8204FF4E8712246D7F8243101F0E0F803461A46D7F82C315A802EE03D4BC7F82031D7F82C311C1DD7F8200116F012FCAE
:4069400003462046D7F820111A4616F08BFBD7F82C311C1DD7F8200116F004FC03469BB2009301AA07F58A7393E8030082E80300B8204FF4E8712246D7F8203101F0B0F8D4
:4069800003461A46D7F82C315A80D7F82C31C2221A7081E0244B5B7883F00103DBB2002B7AD0A420F9F7B4FBC7F82C01D7F82C31002B6ED007F10C0318462021282216F098
:4069C0005CFBD7F82C311C1D07F10C03184616F0C9FB024607F10C032046194616F042FB0E4B9B78042B23D107F10C030F4A1C4615460FCD0FC40FCD0FC495E8030084E85F
:406A0000030022E0F0D90100C0DB0100AC83FF1F7083FF1F54380020F8DA0100786700201CDB010044DB0100D0D0FF1FD0DB010007F10C031A4A1C4615460FCD0FC40FCDDA
:406A40000FC495E80F0007C42380D7F82C311D1D07F10C03184616F085FB03469BB207F10C04009301AA07F58A7393E8030082E80300A0204FF4E8712A46234601F030F8EA
:406A800003461A46D7F82C315A80D7F82C31C2221A70044B01225A7007F5A877BD46B0BD68DB0100D0D0FF1F80B586B000AF78607B687B617B691B78002B20D12120F9F74F
:406AC000C7FF38613B69002B18D07B693A695A633B697A69C3F890213B691C4AC3F894213B6921225A703B6906229A703B694FF47A725A813B690322DA7023E022E07B699E
:406B00001B78012B1ED12520F9F7A2FFF860FB68002B17D07B69FA685A63FB687A69C3F89021FB68094AC3F89421FB6825225A70FB6806229A70FB684FF47A725A81FB6850
:406B40000322DA701837BD4680BD00BFD14D000080B487B000AF78607B687B617B691B78002B0AD17B695B6B3B613B69002B03D03B6901221A700DE00CE07B691B78012B57
:406B800008D17B695B6BFB60FB68002B02D0FB6801221A701C37BD465DF8047B704700BF80B586B000AF78607B687B617B691B78002B1ED12220F9F74BFF38613B69002BC1
:406BC00016D01E4B00229A707B693A695A633B697A69C3F890213B6922225A703B6906229A703B6964225A813B690322DA7021E020E07B691B78012B1CD12620F9F728FF55
:406C0000F860FB68002B15D00C4B00225A727B69FA685A63FB687A69C3F89021FB6826225A70FB6806229A70FB6864225A81FB680322DA701837BD4680BD00BFAC83FF1F54
:406C400080B584B000AF78607B68FB60FB68D3F89431002B07D0FB68D3F89431FA68D2F89021104698471037BD4680BD80B487B000AF78607B687B617B691B78002B0AD137
:406C80007B695B6B3B613B69002B03D03B6901221A700DE00CE07B691B78012B08D17B695B6BFB60FB68002B02D0FB6801221A701C37BD465DF8047B704700BF80B588B0C4
:406CC00000AF78600023FB777B68BB61BB691B6B7B61786803F046F80346FB74FB7C914A40F6C83101FB03F313440833DB78DBB283F00103DBB2002B00F0C3808A4B1B787B
:406D0000DBB2012B40F0BC807B69002B00F0B8802E2002F0DFFF03461A467B6913441B7B002B32D0042002F0D5FF03461A467B6913441B7BBB74BB7C0E2B08D0BB691B69AF
:406D40001B78042B21D1BB69DB780E2B1DD10123FB77BB69FF225A71BB695A79BB699A72042002F0B7FF03461A467B69134400221A732E2002F0AEFF03461A467B691344C4
:406D800000221A73BB698C229A702E2002F0A2FF03461A467B6913441B7B002B32D0832002F098FF03461A467B6913441B7B7B747B7CB52B08D0BB691B691B78832B21D1A1
:406DC000BB69DB78B52B1DD10123FB77BB69FF225A71BB695A79BB699A72832002F07AFF03461A467B69134400221A732E2002F071FF03461A467B69134400221A73BB6979
:406E00008C229A702E2002F065FF03461A467B6913441B7B002B33D0832002F05BFF03461A467B6913441B7B3B743B7C462B08D0BB691B691B78832B22D1BB69DB78462B72
:406E40001ED10123FB77BB69FF225A71BB695A79BB699A72832002F03DFF03461A467B69134400221A738D2002F034FF03461A467B69134400221A73BB698C229A704BE086
:406E80004AE07B69002B47D02E2002F023FF03461A467B6913441B7B002B3DD0042002F019FF03461A467B6913441B7BFB73FB7B452B02D0FB7B002B08D1BB691B691B78EB
:406EC000042B29D1BB69DB78452B25D0FB7C154A40F6C83101FB03F313440833DB78FB77BB69FF225A71BB695A79BB699A72042002F0F0FE03461A467B69134400221A7371
:406F00002E2002F0E7FE03461A467B69134400221A73BB692B229A70FB7F18462037BD4680BD00BF58380020E86F002080B584B000AF78607B68FB60FB68DB78392B21D18F
:406F4000124B16221A70114B18225A70FAF71CFCFAF7C4FC4FF4E070FAF7CCFBFAF7B6FB03460B33094A12781A70FAF7AFFB03460C33064A52781A704FF4E070FAF768FC4E
:406F8000FAF7AEFB1037BD4680BD00BF5438002080B584B000AF78607B68FB60FB68DB788C2B02D08D2B07D00DE0164B18221A70144B18225A7006E0124B16221A70114B73
:406FC00016225A7000BFFAF7DFFBFAF787FC4FF4E070FAF78FFBFAF779FB03460B33094A12781A70FAF772FB03460C33054A52781A704FF4E070FAF72BFCFAF771FB103758
:40700000BD4680BD5438002080B485B000AF78600B46FB700023FB730023BB73FB78013BDBB27B732CE097F90D307A6813441B782C2B07D1BB7B83F00103DBB2002B01D0A2
:407040000123BB73BB7B002B12D097F90D307A68134497F90D20013A79680A4412781A7097F90D30013B7A68134400221A7002E0FB7B0133FB737B7BDBB2013BDBB27B7318
:4070800097F90D30002BCEDCBB7B83F00103DBB2002B01D00023FB73334B5B7AFA7BD31ADBB23B7397F90C30002B29DD23E0FB78013BDBB27B7315E097F90D307A68134452
:4070C00097F90D20013A79680A4412781A7097F90D307A68134400221A707B7BDBB2013BDBB27B7397F90D30002BE5DC3B7BDBB2013BDBB23B7397F90C30002BD7DC2DE03F
:4071000097F90C30002B29DA24E000237B7316E097F90D307A68134497F90D20013279680A4412781A7097F90D3001337A68134430221A707B7BDBB20133DBB27B7397F939
:407140000D20FB78013B9A42E2DB3B7BDBB20133DBB23B7397F90C30002BD6DB1437BD465DF8047B704700BF7867002090B58FB000AF78607B68FB62664B1B78DBB2002B62
:4071800000D0BEE0644B00225A73FB6A03F10C02FB6AB3F88C319BB2DBB21046194600F093FE03461A465C4BDA705B4800F034FD594B9B78FF2B08D1574B5B79FF2B04D1F2
:4071C000554B9B7AFF2B00F09280534B9B6B002B03D0514B9B6B50489847012387F837304E4B3B630CE03B6B1A784B4BDB789A4203D1002387F8373006E03B6B01333B638E
:407200003B6B1B78FF2BEED197F83730002B1CD0414800F089FD78627B6A002B15D07B6A3D489847034683F00103DBB2002B0CD0394BFF229A70384B9A78374B5A71364BA2
